{
  "contractName": "Adoption",
  "abi": [
    {
      "inputs": [],
      "stateMutability": "nonpayable",
      "type": "constructor"
    },
    {
      "anonymous": false,
      "inputs": [
        {
          "indexed": true,
          "internalType": "address",
          "name": "owner",
          "type": "address"
        },
        {
          "indexed": true,
          "internalType": "address",
          "name": "approved",
          "type": "address"
        },
        {
          "indexed": true,
          "internalType": "uint256",
          "name": "tokenId",
          "type": "uint256"
        }
      ],
      "name": "Approval",
      "type": "event"
    },
    {
      "anonymous": false,
      "inputs": [
        {
          "indexed": true,
          "internalType": "address",
          "name": "owner",
          "type": "address"
        },
        {
          "indexed": true,
          "internalType": "address",
          "name": "operator",
          "type": "address"
        },
        {
          "indexed": false,
          "internalType": "bool",
          "name": "approved",
          "type": "bool"
        }
      ],
      "name": "ApprovalForAll",
      "type": "event"
    },
    {
      "anonymous": false,
      "inputs": [
        {
          "indexed": false,
          "internalType": "uint256",
          "name": "petId",
          "type": "uint256"
        },
        {
          "indexed": false,
          "internalType": "string",
          "name": "name",
          "type": "string"
        },
        {
          "indexed": false,
          "internalType": "address",
          "name": "owner",
          "type": "address"
        }
      ],
      "name": "PetAdded",
      "type": "event"
    },
    {
      "anonymous": false,
      "inputs": [
        {
          "indexed": false,
          "internalType": "uint256",
          "name": "petId",
          "type": "uint256"
        },
        {
          "indexed": false,
          "internalType": "address",
          "name": "newOwner",
          "type": "address"
        }
      ],
      "name": "PetAdopted",
      "type": "event"
    },
    {
      "anonymous": false,
      "inputs": [
        {
          "indexed": false,
          "internalType": "uint256",
          "name": "petId",
          "type": "uint256"
        },
        {
          "indexed": false,
          "internalType": "address",
          "name": "newOwner",
          "type": "address"
        }
      ],
      "name": "PetSold",
      "type": "event"
    },
    {
      "anonymous": false,
      "inputs": [
        {
          "indexed": true,
          "internalType": "address",
          "name": "from",
          "type": "address"
        },
        {
          "indexed": true,
          "internalType": "address",
          "name": "to",
          "type": "address"
        },
        {
          "indexed": true,
          "internalType": "uint256",
          "name": "tokenId",
          "type": "uint256"
        }
      ],
      "name": "Transfer",
      "type": "event"
    },
    {
      "stateMutability": "payable",
      "type": "fallback",
      "payable": true
    },
    {
      "inputs": [
        {
          "internalType": "address",
          "name": "to",
          "type": "address"
        },
        {
          "internalType": "uint256",
          "name": "tokenId",
          "type": "uint256"
        }
      ],
      "name": "approve",
      "outputs": [],
      "stateMutability": "nonpayable",
      "type": "function"
    },
    {
      "inputs": [
        {
          "internalType": "address",
          "name": "owner",
          "type": "address"
        }
      ],
      "name": "balanceOf",
      "outputs": [
        {
          "internalType": "uint256",
          "name": "",
          "type": "uint256"
        }
      ],
      "stateMutability": "view",
      "type": "function",
      "constant": true
    },
    {
      "inputs": [
        {
          "internalType": "uint256",
          "name": "tokenId",
          "type": "uint256"
        }
      ],
      "name": "getApproved",
      "outputs": [
        {
          "internalType": "address",
          "name": "",
          "type": "address"
        }
      ],
      "stateMutability": "view",
      "type": "function",
      "constant": true
    },
    {
      "inputs": [
        {
          "internalType": "address",
          "name": "owner",
          "type": "address"
        },
        {
          "internalType": "address",
          "name": "operator",
          "type": "address"
        }
      ],
      "name": "isApprovedForAll",
      "outputs": [
        {
          "internalType": "bool",
          "name": "",
          "type": "bool"
        }
      ],
      "stateMutability": "view",
      "type": "function",
      "constant": true
    },
    {
      "inputs": [],
      "name": "name",
      "outputs": [
        {
          "internalType": "string",
          "name": "",
          "type": "string"
        }
      ],
      "stateMutability": "view",
      "type": "function",
      "constant": true
    },
    {
      "inputs": [
        {
          "internalType": "uint256",
          "name": "tokenId",
          "type": "uint256"
        }
      ],
      "name": "ownerOf",
      "outputs": [
        {
          "internalType": "address",
          "name": "",
          "type": "address"
        }
      ],
      "stateMutability": "view",
      "type": "function",
      "constant": true
    },
    {
      "inputs": [
        {
          "internalType": "address",
          "name": "",
          "type": "address"
        },
        {
          "internalType": "uint256",
          "name": "",
          "type": "uint256"
        }
      ],
      "name": "ownerTokens",
      "outputs": [
        {
          "internalType": "uint256",
          "name": "",
          "type": "uint256"
        }
      ],
      "stateMutability": "view",
      "type": "function",
      "constant": true
    },
    {
      "inputs": [],
      "name": "petCount",
      "outputs": [
        {
          "internalType": "uint256",
          "name": "",
          "type": "uint256"
        }
      ],
      "stateMutability": "view",
      "type": "function",
      "constant": true
    },
    {
      "inputs": [
        {
          "internalType": "uint256",
          "name": "",
          "type": "uint256"
        }
      ],
      "name": "pets",
      "outputs": [
        {
          "internalType": "string",
          "name": "name",
          "type": "string"
        },
        {
          "internalType": "string",
          "name": "picture",
          "type": "string"
        },
        {
          "internalType": "uint256",
          "name": "value",
          "type": "uint256"
        },
        {
          "internalType": "string",
          "name": "breed",
          "type": "string"
        },
        {
          "internalType": "string",
          "name": "location",
          "type": "string"
        },
        {
          "internalType": "address payable",
          "name": "owner",
          "type": "address"
        },
        {
          "internalType": "bool",
          "name": "forSale",
          "type": "bool"
        }
      ],
      "stateMutability": "view",
      "type": "function",
      "constant": true
    },
    {
      "inputs": [
        {
          "internalType": "address",
          "name": "from",
          "type": "address"
        },
        {
          "internalType": "address",
          "name": "to",
          "type": "address"
        },
        {
          "internalType": "uint256",
          "name": "tokenId",
          "type": "uint256"
        }
      ],
      "name": "safeTransferFrom",
      "outputs": [],
      "stateMutability": "nonpayable",
      "type": "function"
    },
    {
      "inputs": [
        {
          "internalType": "address",
          "name": "from",
          "type": "address"
        },
        {
          "internalType": "address",
          "name": "to",
          "type": "address"
        },
        {
          "internalType": "uint256",
          "name": "tokenId",
          "type": "uint256"
        },
        {
          "internalType": "bytes",
          "name": "_data",
          "type": "bytes"
        }
      ],
      "name": "safeTransferFrom",
      "outputs": [],
      "stateMutability": "nonpayable",
      "type": "function"
    },
    {
      "inputs": [
        {
          "internalType": "address",
          "name": "operator",
          "type": "address"
        },
        {
          "internalType": "bool",
          "name": "approved",
          "type": "bool"
        }
      ],
      "name": "setApprovalForAll",
      "outputs": [],
      "stateMutability": "nonpayable",
      "type": "function"
    },
    {
      "inputs": [
        {
          "internalType": "bytes4",
          "name": "interfaceId",
          "type": "bytes4"
        }
      ],
      "name": "supportsInterface",
      "outputs": [
        {
          "internalType": "bool",
          "name": "",
          "type": "bool"
        }
      ],
      "stateMutability": "view",
      "type": "function",
      "constant": true
    },
    {
      "inputs": [],
      "name": "symbol",
      "outputs": [
        {
          "internalType": "string",
          "name": "",
          "type": "string"
        }
      ],
      "stateMutability": "view",
      "type": "function",
      "constant": true
    },
    {
      "inputs": [
        {
          "internalType": "uint256",
          "name": "tokenId",
          "type": "uint256"
        }
      ],
      "name": "tokenURI",
      "outputs": [
        {
          "internalType": "string",
          "name": "",
          "type": "string"
        }
      ],
      "stateMutability": "view",
      "type": "function",
      "constant": true
    },
    {
      "inputs": [
        {
          "internalType": "address",
          "name": "from",
          "type": "address"
        },
        {
          "internalType": "address",
          "name": "to",
          "type": "address"
        },
        {
          "internalType": "uint256",
          "name": "tokenId",
          "type": "uint256"
        }
      ],
      "name": "transferFrom",
      "outputs": [],
      "stateMutability": "nonpayable",
      "type": "function"
    },
    {
      "stateMutability": "payable",
      "type": "receive",
      "payable": true
    },
    {
      "inputs": [
        {
          "internalType": "uint256",
          "name": "petId",
          "type": "uint256"
        }
      ],
      "name": "adoptPet",
      "outputs": [],
      "stateMutability": "payable",
      "type": "function",
      "payable": true
    },
    {
      "inputs": [
        {
          "internalType": "uint256",
          "name": "petId",
          "type": "uint256"
        }
      ],
      "name": "butsell",
      "outputs": [],
      "stateMutability": "payable",
      "type": "function",
      "payable": true
    },
    {
      "inputs": [
        {
          "internalType": "uint256",
          "name": "petId",
          "type": "uint256"
        }
      ],
      "name": "sellPet_new",
      "outputs": [],
      "stateMutability": "nonpayable",
      "type": "function"
    },
    {
      "inputs": [
        {
          "internalType": "uint256",
          "name": "petId",
          "type": "uint256"
        }
      ],
      "name": "sellPet",
      "outputs": [],
      "stateMutability": "nonpayable",
      "type": "function"
    },
    {
      "inputs": [
        {
          "internalType": "string",
          "name": "name",
          "type": "string"
        },
        {
          "internalType": "string",
          "name": "location",
          "type": "string"
        },
        {
          "internalType": "uint256",
          "name": "value",
          "type": "uint256"
        },
        {
          "internalType": "string",
          "name": "breed",
          "type": "string"
        }
      ],
      "name": "addPet",
      "outputs": [],
      "stateMutability": "nonpayable",
      "type": "function"
    },
    {
      "inputs": [],
      "name": "getCount",
      "outputs": [
        {
          "internalType": "uint256",
          "name": "",
          "type": "uint256"
        }
      ],
      "stateMutability": "view",
      "type": "function",
      "constant": true
    },
    {
      "inputs": [
        {
          "internalType": "address",
          "name": "owner",
          "type": "address"
        }
      ],
      "name": "getOwnedTokens",
      "outputs": [
        {
          "internalType": "uint256[]",
          "name": "",
          "type": "uint256[]"
        }
      ],
      "stateMutability": "view",
      "type": "function",
      "constant": true
    },
    {
      "inputs": [
        {
          "internalType": "uint256",
          "name": "petId",
          "type": "uint256"
        }
      ],
      "name": "getPetsByOwner_nft",
      "outputs": [
        {
          "internalType": "string",
          "name": "",
          "type": "string"
        },
        {
          "internalType": "string",
          "name": "",
          "type": "string"
        },
        {
          "internalType": "uint256",
          "name": "",
          "type": "uint256"
        },
        {
          "internalType": "bool",
          "name": "",
          "type": "bool"
        },
        {
          "internalType": "address",
          "name": "",
          "type": "address"
        },
        {
          "internalType": "string",
          "name": "",
          "type": "string"
        },
        {
          "internalType": "string",
          "name": "",
          "type": "string"
        }
      ],
      "stateMutability": "view",
      "type": "function",
      "constant": true
    },
    {
      "inputs": [
        {
          "internalType": "uint256",
          "name": "petId",
          "type": "uint256"
        }
      ],
      "name": "getAllPets",
      "outputs": [
        {
          "internalType": "string",
          "name": "",
          "type": "string"
        },
        {
          "internalType": "string",
          "name": "",
          "type": "string"
        },
        {
          "internalType": "uint256",
          "name": "",
          "type": "uint256"
        },
        {
          "internalType": "bool",
          "name": "",
          "type": "bool"
        },
        {
          "internalType": "address",
          "name": "",
          "type": "address"
        },
        {
          "internalType": "string",
          "name": "",
          "type": "string"
        },
        {
          "internalType": "string",
          "name": "",
          "type": "string"
        }
      ],
      "stateMutability": "view",
      "type": "function",
      "constant": true
    }
  ],
  "bytecode": "0x608060405260106008553480156200001657600080fd5b506040518060400160405280600681526020017f5065744e465400000000000000000000000000000000000000000000000000008152506040518060400160405280600381526020017f50455400000000000000000000000000000000000000000000000000000000008152508160009081620000949190620023c8565b508060019081620000a69190620023c8565b5050506040518060e001604052806040518060400160405280600681526020017f467269656461000000000000000000000000000000000000000000000000000081525081526020016040518060400160405280601c81526020017f696d616765732f73636f74746973682d746572726965722e6a706567000000008152508152602001600381526020016040518060400160405280601081526020017f53636f747469736820546572726965720000000000000000000000000000000081525081526020016040518060400160405280600e81526020017f4c6973636f2c20416c6162616d610000000000000000000000000000000000008152508152602001600073ffffffffffffffffffffffffffffffffffffffff16815260200160001515815250600660008081526020019081526020016000206000820151816000019081620001f59190620023c8565b5060208201518160010190816200020d9190620023c8565b506040820151816002015560608201518160030190816200022f9190620023c8565b506080820151816004019081620002479190620023c8565b5060a08201518160050160006101000a81548173ffffffffffffffffffffffffffffffffffffffff021916908373ffffffffffffffffffffffffffffffffffffffff16021790555060c08201518160050160146101000a81548160ff0219169083151502179055509050506040518060e001604052806040518060400160405280600481526020017f47696e610000000000000000000000000000000000000000000000000000000081525081526020016040518060400160405280601c81526020017f696d616765732f73636f74746973682d746572726965722e6a706567000000008152508152602001600381526020016040518060400160405280601081526020017f53636f747469736820546572726965720000000000000000000000000000000081525081526020016040518060400160405280601981526020017f546f6f6c6576696c6c652c20576573742056697267696e6961000000000000008152508152602001600073ffffffffffffffffffffffffffffffffffffffff1681526020016000151581525060066000600181526020019081526020016000206000820151816000019081620003ff9190620023c8565b506020820151816001019081620004179190620023c8565b50604082015181600201556060820151816003019081620004399190620023c8565b506080820151816004019081620004519190620023c8565b5060a08201518160050160006101000a81548173ffffffffffffffffffffffffffffffffffffffff021916908373ffffffffffffffffffffffffffffffffffffffff16021790555060c08201518160050160146101000a81548160ff0219169083151502179055509050506040518060e001604052806040518060400160405280600781526020017f436f6c6c696e730000000000000000000000000000000000000000000000000081525081526020016040518060400160405280601a81526020017f696d616765732f6672656e63682d62756c6c646f672e6a7065670000000000008152508152602001600281526020016040518060400160405280600e81526020017f4672656e63682042756c6c646f6700000000000000000000000000000000000081525081526020016040518060400160405280600f81526020017f467265656275726e2c20496461686f00000000000000000000000000000000008152508152602001600073ffffffffffffffffffffffffffffffffffffffff1681526020016000151581525060066000600281526020019081526020016000206000820151816000019081620006099190620023c8565b506020820151816001019081620006219190620023c8565b50604082015181600201556060820151816003019081620006439190620023c8565b5060808201518160040190816200065b9190620023c8565b5060a08201518160050160006101000a81548173ffffffffffffffffffffffffffffffffffffffff021916908373ffffffffffffffffffffffffffffffffffffffff16021790555060c08201518160050160146101000a81548160ff0219169083151502179055509050506040518060e001604052806040518060400160405280600781526020017f4d656c697373610000000000000000000000000000000000000000000000000081525081526020016040518060400160405280601181526020017f696d616765732f626f7865722e6a7065670000000000000000000000000000008152508152602001600281526020016040518060400160405280600581526020017f426f78657200000000000000000000000000000000000000000000000000000081525081526020016040518060400160405280601381526020017f43616d61732c2050656e6e73796c76616e6961000000000000000000000000008152508152602001600073ffffffffffffffffffffffffffffffffffffffff1681526020016000151581525060066000600381526020019081526020016000206000820151816000019081620008139190620023c8565b5060208201518160010190816200082b9190620023c8565b506040820151816002015560608201518160030190816200084d9190620023c8565b506080820151816004019081620008659190620023c8565b5060a08201518160050160006101000a81548173ffffffffffffffffffffffffffffffffffffffff021916908373ffffffffffffffffffffffffffffffffffffffff16021790555060c08201518160050160146101000a81548160ff0219169083151502179055509050506040518060e001604052806040518060400160405280600781526020017f4a65616e696e650000000000000000000000000000000000000000000000000081525081526020016040518060400160405280601a81526020017f696d616765732f6672656e63682d62756c6c646f672e6a7065670000000000008152508152602001600281526020016040518060400160405280600e81526020017f4672656e63682042756c6c646f6700000000000000000000000000000000000081525081526020016040518060400160405280601481526020017f4765726265722c20536f7574682044616b6f74610000000000000000000000008152508152602001600073ffffffffffffffffffffffffffffffffffffffff168152602001600015158152506006600060048152602001908152602001600020600082015181600001908162000a1d9190620023c8565b50602082015181600101908162000a359190620023c8565b5060408201518160020155606082015181600301908162000a579190620023c8565b50608082015181600401908162000a6f9190620023c8565b5060a08201518160050160006101000a81548173ffffffffffffffffffffffffffffffffffffffff021916908373ffffffffffffffffffffffffffffffffffffffff16021790555060c08201518160050160146101000a81548160ff0219169083151502179055509050506040518060e001604052806040518060400160405280600581526020017f456c76696100000000000000000000000000000000000000000000000000000081525081526020016040518060400160405280601a81526020017f696d616765732f6672656e63682d62756c6c646f672e6a7065670000000000008152508152602001600381526020016040518060400160405280600e81526020017f4672656e63682042756c6c646f6700000000000000000000000000000000000081525081526020016040518060400160405280601381526020017f496e6e7362726f6f6b2c20496c6c696e6f6973000000000000000000000000008152508152602001600073ffffffffffffffffffffffffffffffffffffffff168152602001600015158152506006600060058152602001908152602001600020600082015181600001908162000c279190620023c8565b50602082015181600101908162000c3f9190620023c8565b5060408201518160020155606082015181600301908162000c619190620023c8565b50608082015181600401908162000c799190620023c8565b5060a08201518160050160006101000a81548173ffffffffffffffffffffffffffffffffffffffff021916908373ffffffffffffffffffffffffffffffffffffffff16021790555060c08201518160050160146101000a81548160ff0219169083151502179055509050506040518060e001604052806040518060400160405280600781526020017f4c6174697368610000000000000000000000000000000000000000000000000081525081526020016040518060400160405280601c81526020017f696d616765732f676f6c64656e2d7265747269657665722e6a706567000000008152508152602001600381526020016040518060400160405280601081526020017f476f6c64656e205265747269657665720000000000000000000000000000000081525081526020016040518060400160405280601181526020017f536f7564616e2c204c6f75697369616e610000000000000000000000000000008152508152602001600073ffffffffffffffffffffffffffffffffffffffff168152602001600015158152506006600060068152602001908152602001600020600082015181600001908162000e319190620023c8565b50602082015181600101908162000e499190620023c8565b5060408201518160020155606082015181600301908162000e6b9190620023c8565b50608082015181600401908162000e839190620023c8565b5060a08201518160050160006101000a81548173ffffffffffffffffffffffffffffffffffffffff021916908373ffffffffffffffffffffffffffffffffffffffff16021790555060c08201518160050160146101000a81548160ff0219169083151502179055509050506040518060e001604052806040518060400160405280600781526020017f436f6c656d616e0000000000000000000000000000000000000000000000000081525081526020016040518060400160405280601c81526020017f696d616765732f676f6c64656e2d7265747269657665722e6a706567000000008152508152602001600381526020016040518060400160405280601081526020017f476f6c64656e205265747269657665720000000000000000000000000000000081525081526020016040518060400160405280601281526020017f4a61636b736f6e77616c642c2050616c617500000000000000000000000000008152508152602001600073ffffffffffffffffffffffffffffffffffffffff16815260200160001515815250600660006007815260200190815260200160002060008201518160000190816200103b9190620023c8565b506020820151816001019081620010539190620023c8565b50604082015181600201556060820151816003019081620010759190620023c8565b5060808201518160040190816200108d9190620023c8565b5060a08201518160050160006101000a81548173ffffffffffffffffffffffffffffffffffffffff021916908373ffffffffffffffffffffffffffffffffffffffff16021790555060c08201518160050160146101000a81548160ff0219169083151502179055509050506040518060e001604052806040518060400160405280600781526020017f4e6963686f6c650000000000000000000000000000000000000000000000000081525081526020016040518060400160405280601a81526020017f696d616765732f6672656e63682d62756c6c646f672e6a7065670000000000008152508152602001600281526020016040518060400160405280600e81526020017f4672656e63682042756c6c646f6700000000000000000000000000000000000081525081526020016040518060400160405280601081526020017f486f6e6f6c756c752c20486177616969000000000000000000000000000000008152508152602001600073ffffffffffffffffffffffffffffffffffffffff1681526020016000151581525060066000600881526020019081526020016000206000820151816000019081620012459190620023c8565b5060208201518160010190816200125d9190620023c8565b506040820151816002015560608201518160030190816200127f9190620023c8565b506080820151816004019081620012979190620023c8565b5060a08201518160050160006101000a81548173ffffffffffffffffffffffffffffffffffffffff021916908373ffffffffffffffffffffffffffffffffffffffff16021790555060c08201518160050160146101000a81548160ff0219169083151502179055509050506040518060e001604052806040518060400160405280600481526020017f4672616e0000000000000000000000000000000000000000000000000000000081525081526020016040518060400160405280601181526020017f696d616765732f626f7865722e6a7065670000000000000000000000000000008152508152602001600381526020016040518060400160405280600581526020017f426f78657200000000000000000000000000000000000000000000000000000081525081526020016040518060400160405280600d81526020017f4d617468656e792c2055746168000000000000000000000000000000000000008152508152602001600073ffffffffffffffffffffffffffffffffffffffff16815260200160001515815250600660006009815260200190815260200160002060008201518160000190816200144f9190620023c8565b506020820151816001019081620014679190620023c8565b50604082015181600201556060820151816003019081620014899190620023c8565b506080820151816004019081620014a19190620023c8565b5060a08201518160050160006101000a81548173ffffffffffffffffffffffffffffffffffffffff021916908373ffffffffffffffffffffffffffffffffffffffff16021790555060c08201518160050160146101000a81548160ff0219169083151502179055509050506040518060e001604052806040518060400160405280600681526020017f4c656f6e6f72000000000000000000000000000000000000000000000000000081525081526020016040518060400160405280601181526020017f696d616765732f626f7865722e6a7065670000000000000000000000000000008152508152602001600281526020016040518060400160405280600581526020017f426f78657200000000000000000000000000000000000000000000000000000081525081526020016040518060400160405280600e81526020017f54796865652c20496e6469616e610000000000000000000000000000000000008152508152602001600073ffffffffffffffffffffffffffffffffffffffff1681526020016000151581525060066000600a81526020019081526020016000206000820151816000019081620016599190620023c8565b506020820151816001019081620016719190620023c8565b50604082015181600201556060820151816003019081620016939190620023c8565b506080820151816004019081620016ab9190620023c8565b5060a08201518160050160006101000a81548173ffffffffffffffffffffffffffffffffffffffff021916908373ffffffffffffffffffffffffffffffffffffffff16021790555060c08201518160050160146101000a81548160ff0219169083151502179055509050506040518060e001604052806040518060400160405280600481526020017f4465616e0000000000000000000000000000000000000000000000000000000081525081526020016040518060400160405280601c81526020017f696d616765732f73636f74746973682d746572726965722e6a706567000000008152508152602001600381526020016040518060400160405280601081526020017f53636f747469736820546572726965720000000000000000000000000000000081525081526020016040518060400160405280601081526020017f57696e64736f722c204d6f6e74616e61000000000000000000000000000000008152508152602001600073ffffffffffffffffffffffffffffffffffffffff1681526020016000151581525060066000600b81526020019081526020016000206000820151816000019081620018639190620023c8565b5060208201518160010190816200187b9190620023c8565b506040820151816002015560608201518160030190816200189d9190620023c8565b506080820151816004019081620018b59190620023c8565b5060a08201518160050160006101000a81548173ffffffffffffffffffffffffffffffffffffffff021916908373ffffffffffffffffffffffffffffffffffffffff16021790555060c08201518160050160146101000a81548160ff0219169083151502179055509050506040518060e001604052806040518060400160405280600981526020017f53746576656e736f6e000000000000000000000000000000000000000000000081525081526020016040518060400160405280601a81526020017f696d616765732f6672656e63682d62756c6c646f672e6a7065670000000000008152508152602001600381526020016040518060400160405280600e81526020017f4672656e63682042756c6c646f6700000000000000000000000000000000000081525081526020016040518060400160405280601281526020017f4b696e6773746f776e652c204e657661646100000000000000000000000000008152508152602001600073ffffffffffffffffffffffffffffffffffffffff1681526020016000151581525060066000600c8152602001908152602001600020600082015181600001908162001a6d9190620023c8565b50602082015181600101908162001a859190620023c8565b5060408201518160020155606082015181600301908162001aa79190620023c8565b50608082015181600401908162001abf9190620023c8565b5060a08201518160050160006101000a81548173ffffffffffffffffffffffffffffffffffffffff021916908373ffffffffffffffffffffffffffffffffffffffff16021790555060c08201518160050160146101000a81548160ff0219169083151502179055509050506040518060e001604052806040518060400160405280600881526020017f4b72697374696e6100000000000000000000000000000000000000000000000081525081526020016040518060400160405280601c81526020017f696d616765732f676f6c64656e2d7265747269657665722e6a706567000000008152508152602001600481526020016040518060400160405280601081526020017f476f6c64656e205265747269657665720000000000000000000000000000000081525081526020016040518060400160405280601681526020017f53756c74616e612c204d617373616368757365747473000000000000000000008152508152602001600073ffffffffffffffffffffffffffffffffffffffff1681526020016000151581525060066000600d8152602001908152602001600020600082015181600001908162001c779190620023c8565b50602082015181600101908162001c8f9190620023c8565b5060408201518160020155606082015181600301908162001cb19190620023c8565b50608082015181600401908162001cc99190620023c8565b5060a08201518160050160006101000a81548173ffffffffffffffffffffffffffffffffffffffff021916908373ffffffffffffffffffffffffffffffffffffffff16021790555060c08201518160050160146101000a81548160ff0219169083151502179055509050506040518060e001604052806040518060400160405280600581526020017f457468656c00000000000000000000000000000000000000000000000000000081525081526020016040518060400160405280601c81526020017f696d616765732f676f6c64656e2d7265747269657665722e6a706567000000008152508152602001600281526020016040518060400160405280601081526020017f476f6c64656e205265747269657665720000000000000000000000000000000081525081526020016040518060400160405280601281526020017f42726f61646c616e64732c204f7265676f6e00000000000000000000000000008152508152602001600073ffffffffffffffffffffffffffffffffffffffff1681526020016000151581525060066000600e8152602001908152602001600020600082015181600001908162001e819190620023c8565b50602082015181600101908162001e999190620023c8565b5060408201518160020155606082015181600301908162001ebb9190620023c8565b50608082015181600401908162001ed39190620023c8565b5060a08201518160050160006101000a81548173ffffffffffffffffffffffffffffffffffffffff021916908373ffffffffffffffffffffffffffffffffffffffff16021790555060c08201518160050160146101000a81548160ff0219169083151502179055509050506040518060e001604052806040518060400160405280600581526020017f546572727900000000000000000000000000000000000000000000000000000081525081526020016040518060400160405280601c81526020017f696d616765732f676f6c64656e2d7265747269657665722e6a706567000000008152508152602001600281526020016040518060400160405280601081526020017f476f6c64656e205265747269657665720000000000000000000000000000000081525081526020016040518060400160405280600f81526020017f4461776e2c20576973636f6e73696e00000000000000000000000000000000008152508152602001600073ffffffffffffffffffffffffffffffffffffffff1681526020016000151581525060066000600f815260200190815260200160002060008201518160000190816200208b9190620023c8565b506020820151816001019081620020a39190620023c8565b50604082015181600201556060820151816003019081620020c59190620023c8565b506080820151816004019081620020dd9190620023c8565b5060a08201518160050160006101000a81548173ffffffffffffffffffffffffffffffffffffffff021916908373ffffffffffffffffffffffffffffffffffffffff16021790555060c08201518160050160146101000a81548160ff021916908315150217905550905050620024af565b600081519050919050565b7f4e487b7100000000000000000000000000000000000000000000000000000000600052604160045260246000fd5b7f4e487b7100000000000000000000000000000000000000000000000000000000600052602260045260246000fd5b60006002820490506001821680620021d057607f821691505b602082108103620021e657620021e562002188565b5b50919050565b60008190508160005260206000209050919050565b60006020601f8301049050919050565b600082821b905092915050565b600060088302620022507fffffffffffffffffffffffffffffffffffffffffffffffffffffffffffffffff8262002211565b6200225c868362002211565b95508019841693508086168417925050509392505050565b6000819050919050565b6000819050919050565b6000620022a9620022a36200229d8462002274565b6200227e565b62002274565b9050919050565b6000819050919050565b620022c58362002288565b620022dd620022d482620022b0565b8484546200221e565b825550505050565b600090565b620022f4620022e5565b62002301818484620022ba565b505050565b5b8181101562002329576200231d600082620022ea565b60018101905062002307565b5050565b601f82111562002378576200234281620021ec565b6200234d8462002201565b810160208510156200235d578190505b620023756200236c8562002201565b83018262002306565b50505b505050565b600082821c905092915050565b60006200239d600019846008026200237d565b1980831691505092915050565b6000620023b883836200238a565b9150826002028217905092915050565b620023d3826200214e565b67ffffffffffffffff811115620023ef57620023ee62002159565b5b620023fb8254620021b7565b620024088282856200232d565b600060209050601f8311600181146200244057600084156200242b578287015190505b620024378582620023aa565b865550620024a7565b601f1984166200245086620021ec565b60005b828110156200247a5784890151825560018201915060208501945060208101905062002453565b868310156200249a578489015162002496601f8916826200238a565b8355505b6001600288020188555050505b505050505050565b61486080620024bf6000396000f3fe60806040526004361061016a5760003560e01c806370a08231116100d1578063b2d0437d1161008a578063cd619f5811610064578063cd619f5814610568578063cfb869bf14610593578063d9d61655146105d6578063e985e9c51461061357610171565b8063b2d0437d146104bf578063b88d4fde14610502578063c87b56dd1461052b57610171565b806370a082311461039757806381b33b80146103d457806395d89b4114610417578063a22cb46514610442578063a62900bb1461046b578063a87d942c1461049457610171565b806320ec87071161012357806320ec87071461027957806323b872dd146102a257806328b60031146102cb57806342842e0e146103085780634b57241d146103315780636352211e1461035a57610171565b806301ffc9a71461017357806306fdde03146101b0578063081812fc146101db578063095ea7b31461021857806319b81577146102415780631a083ddc1461025d57610171565b3661017157005b005b34801561017f57600080fd5b5061019a60048036038101906101959190612f01565b610650565b6040516101a79190612f49565b60405180910390f35b3480156101bc57600080fd5b506101c5610732565b6040516101d29190612ff4565b60405180910390f35b3480156101e757600080fd5b5061020260048036038101906101fd919061304c565b6107c4565b60405161020f91906130ba565b60405180910390f35b34801561022457600080fd5b5061023f600480360381019061023a9190613101565b610849565b005b61025b6004803603810190610256919061304c565b610960565b005b6102776004803603810190610272919061304c565b610b58565b005b34801561028557600080fd5b506102a0600480360381019061029b9190613276565b610d43565b005b3480156102ae57600080fd5b506102c960048036038101906102c49190613331565b610f02565b005b3480156102d757600080fd5b506102f260048036038101906102ed9190613101565b610f62565b6040516102ff9190613393565b60405180910390f35b34801561031457600080fd5b5061032f600480360381019061032a9190613331565b610f93565b005b34801561033d57600080fd5b506103586004803603810190610353919061304c565b610fb3565b005b34801561036657600080fd5b50610381600480360381019061037c919061304c565b6112e6565b60405161038e91906130ba565b60405180910390f35b3480156103a357600080fd5b506103be60048036038101906103b991906133ae565b611397565b6040516103cb9190613393565b60405180910390f35b3480156103e057600080fd5b506103fb60048036038101906103f6919061304c565b61144e565b60405161040e97969594939291906133db565b60405180910390f35b34801561042357600080fd5b5061042c61173e565b6040516104399190612ff4565b60405180910390f35b34801561044e57600080fd5b5061046960048036038101906104649190613492565b6117d0565b005b34801561047757600080fd5b50610492600480360381019061048d919061304c565b6117e6565b005b3480156104a057600080fd5b506104a96118f5565b6040516104b69190613393565b60405180910390f35b3480156104cb57600080fd5b506104e660048036038101906104e1919061304c565b6118ff565b6040516104f997969594939291906133db565b60405180910390f35b34801561050e57600080fd5b5061052960048036038101906105249190613573565b611c1d565b005b34801561053757600080fd5b50610552600480360381019061054d919061304c565b611c7f565b60405161055f9190612ff4565b60405180910390f35b34801561057457600080fd5b5061057d611d26565b60405161058a9190613393565b60405180910390f35b34801561059f57600080fd5b506105ba60048036038101906105b5919061304c565b611d2c565b6040516105cd9796959493929190613617565b60405180910390f35b3480156105e257600080fd5b506105fd60048036038101906105f891906133ae565b611fbb565b60405161060a9190613760565b60405180910390f35b34801561061f57600080fd5b5061063a60048036038101906106359190613782565b612052565b6040516106479190612f49565b60405180910390f35b60007f80ac58cd000000000000000000000000000000000000000000000000000000007bffffffffffffffffffffffffffffffffffffffffffffffffffffffff1916827bffffffffffffffffffffffffffffffffffffffffffffffffffffffff1916148061071b57507f5b5e139f000000000000000000000000000000000000000000000000000000007bffffffffffffffffffffffffffffffffffffffffffffffffffffffff1916827bffffffffffffffffffffffffffffffffffffffffffffffffffffffff1916145b8061072b575061072a826120e6565b5b9050919050565b606060008054610741906137f1565b80601f016020809104026020016040519081016040528092919081815260200182805461076d906137f1565b80156107ba5780601f1061078f576101008083540402835291602001916107ba565b820191906000526020600020905b81548152906001019060200180831161079d57829003601f168201915b5050505050905090565b60006107cf82612150565b61080e576040517f08c379a000000000000000000000000000000000000000000000000000000000815260040161080590613894565b60405180910390fd5b6004600083815260200190815260200160002060009054906101000a900473ffffffffffffffffffffffffffffffffffffffff169050919050565b6000610854826112e6565b90508073ffffffffffffffffffffffffffffffffffffffff168373ffffffffffffffffffffffffffffffffffffffff16036108c4576040517f08c379a00000000000000000000000000000000000000000000000000000000081526004016108bb90613926565b60405180910390fd5b8073ffffffffffffffffffffffffffffffffffffffff166108e36121bc565b73ffffffffffffffffffffffffffffffffffffffff16148061091257506109118161090c6121bc565b612052565b5b610951576040517f08c379a0000000000000000000000000000000000000000000000000000000008152600401610948906139b8565b60405180910390fd5b61095b83836121c4565b505050565b6006600082815260200190815260200160002060050160149054906101000a900460ff16156109c4576040517f08c379a00000000000000000000000000000000000000000000000000000000081526004016109bb90613a24565b60405180910390fd5b6006600082815260200190815260200160002060050160009054906101000a900473ffffffffffffffffffffffffffffffffffffffff1673ffffffffffffffffffffffffffffffffffffffff166108fc60066000848152602001908152602001600020600201549081150290604051600060405180830381858888f19350505050158015610a56573d6000803e3d6000fd5b50336006600083815260200190815260200160002060050160006101000a81548173ffffffffffffffffffffffffffffffffffffffff021916908373ffffffffffffffffffffffffffffffffffffffff160217905550610ab6338261227d565b600760003373ffffffffffffffffffffffffffffffffffffffff1673ffffffffffffffffffffffffffffffffffffffff1681526020019081526020016000208190806001815401808255809150506001900390600052602060002001600090919091909150557faa2d40dd3b943f6c2f61c88fa64ea4eb2b19ea7399bdf0f1351ef2ce22ff9db08133604051610b4d929190613a44565b60405180910390a150565b67016345785d8a0000341015610ba3576040517f08c379a0000000000000000000000000000000000000000000000000000000008152600401610b9a90613ab9565b60405180910390fd5b6006600082815260200190815260200160002060050160149054906101000a900460ff16610c06576040517f08c379a0000000000000000000000000000000000000000000000000000000008152600401610bfd90613b25565b60405180910390fd5b6006600082815260200190815260200160002060050160009054906101000a900473ffffffffffffffffffffffffffffffffffffffff1673ffffffffffffffffffffffffffffffffffffffff166108fc349081150290604051600060405180830381858888f19350505050158015610c82573d6000803e3d6000fd5b5060006006600083815260200190815260200160002060050160146101000a81548160ff021916908315150217905550336006600083815260200190815260200160002060050160006101000a81548173ffffffffffffffffffffffffffffffffffffffff021916908373ffffffffffffffffffffffffffffffffffffffff1602179055507faa2d40dd3b943f6c2f61c88fa64ea4eb2b19ea7399bdf0f1351ef2ce22ff9db08133604051610d38929190613a44565b60405180910390a150565b600060085490506001600854610d599190613b74565b6008819055506040518060e001604052808681526020016040518060400160405280601181526020017f696d616765732f626f7865722e6a7065670000000000000000000000000000008152508152602001848152602001838152602001858152602001600073ffffffffffffffffffffffffffffffffffffffff16815260200160001515815250600660008381526020019081526020016000206000820151816000019081610e099190613d54565b506020820151816001019081610e1f9190613d54565b50604082015181600201556060820151816003019081610e3f9190613d54565b506080820151816004019081610e559190613d54565b5060a08201518160050160006101000a81548173ffffffffffffffffffffffffffffffffffffffff021916908373ffffffffffffffffffffffffffffffffffffffff16021790555060c08201518160050160146101000a81548160ff0219169083151502179055509050507f90c9154ca1209ec02728dc0f8dbe66bcebb0d277ecf13fb44fcb3bff76b1ca2a818633604051610ef393929190613e26565b60405180910390a15050505050565b610f13610f0d6121bc565b82612456565b610f52576040517f08c379a0000000000000000000000000000000000000000000000000000000008152600401610f4990613ed6565b60405180910390fd5b610f5d838383612534565b505050565b60076020528160005260406000208181548110610f7e57600080fd5b90600052602060002001600091509150505481565b610fae83838360405180602001604052806000815250611c1d565b505050565b3373ffffffffffffffffffffffffffffffffffffffff166006600083815260200190815260200160002060050160009054906101000a900473ffffffffffffffffffffffffffffffffffffffff1673ffffffffffffffffffffffffffffffffffffffff1614611057576040517f08c379a000000000000000000000000000000000000000000000000000000000815260040161104e90613f42565b60405180910390fd5b611061338261279a565b6110a0576040517f08c379a000000000000000000000000000000000000000000000000000000000815260040161109790613fae565b60405180910390fd5b3373ffffffffffffffffffffffffffffffffffffffff166110c0826112e6565b73ffffffffffffffffffffffffffffffffffffffff1614611116576040517f08c379a000000000000000000000000000000000000000000000000000000000815260040161110d9061401a565b60405180910390fd5b61111f81612885565b60016006600083815260200190815260200160002060050160146101000a81548160ff02191690831515021790555060006006600083815260200190815260200160002060050160006101000a81548173ffffffffffffffffffffffffffffffffffffffff021916908373ffffffffffffffffffffffffffffffffffffffff1602179055506000600760003373ffffffffffffffffffffffffffffffffffffffff1673ffffffffffffffffffffffffffffffffffffffff168152602001908152602001600020905060005b81805490508110156112a8578282828154811061120a5761120961403a565b5b90600052602060002001540361129557816001838054905061122c9190614069565b8154811061123d5761123c61403a565b5b906000526020600020015482828154811061125b5761125a61403a565b5b90600052602060002001819055508180548061127a5761127961409d565b5b600190038181906000526020600020016000905590556112a8565b80806112a0906140cc565b9150506111ea565b507f63354d309b088421e22d1f307fd88e9e13eb3f889ca194ef0299fc1ffcced8fa82336040516112da929190613a44565b60405180910390a15050565b6000806002600084815260200190815260200160002060009054906101000a900473ffffffffffffffffffffffffffffffffffffffff169050600073ffffffffffffffffffffffffffffffffffffffff168173ffffffffffffffffffffffffffffffffffffffff160361138e576040517f08c379a000000000000000000000000000000000000000000000000000000000815260040161138590614186565b60405180910390fd5b80915050919050565b60008073ffffffffffffffffffffffffffffffffffffffff168273ffffffffffffffffffffffffffffffffffffffff1603611407576040517f08c379a00000000000000000000000000000000000000000000000000000000081526004016113fe90614218565b60405180910390fd5b600360008373ffffffffffffffffffffffffffffffffffffffff1673ffffffffffffffffffffffffffffffffffffffff168152602001908152602001600020549050919050565b606080600080600060608060066000898152602001908152602001600020600001600660008a8152602001908152602001600020600401600660008b815260200190815260200160002060020154600660008c815260200190815260200160002060050160149054906101000a900460ff166114c98c6112e6565b600660008e8152602001908152602001600020600101600660008f8152602001908152602001600020600301868054611501906137f1565b80601f016020809104026020016040519081016040528092919081815260200182805461152d906137f1565b801561157a5780601f1061154f5761010080835404028352916020019161157a565b820191906000526020600020905b81548152906001019060200180831161155d57829003601f168201915b5050505050965085805461158d906137f1565b80601f01602080910402602001604051908101604052809291908181526020018280546115b9906137f1565b80156116065780601f106115db57610100808354040283529160200191611606565b820191906000526020600020905b8154815290600101906020018083116115e957829003601f168201915b50505050509550818054611619906137f1565b80601f0160208091040260200160405190810160405280929190818152602001828054611645906137f1565b80156116925780601f1061166757610100808354040283529160200191611692565b820191906000526020600020905b81548152906001019060200180831161167557829003601f168201915b505050505091508080546116a5906137f1565b80601f01602080910402602001604051908101604052809291908181526020018280546116d1906137f1565b801561171e5780601f106116f35761010080835404028352916020019161171e565b820191906000526020600020905b81548152906001019060200180831161170157829003601f168201915b505050505090509650965096509650965096509650919395979092949650565b60606001805461174d906137f1565b80601f0160208091040260200160405190810160405280929190818152602001828054611779906137f1565b80156117c65780601f1061179b576101008083540402835291602001916117c6565b820191906000526020600020905b8154815290600101906020018083116117a957829003601f168201915b5050505050905090565b6117e26117db6121bc565b83836129a2565b5050565b3373ffffffffffffffffffffffffffffffffffffffff166006600083815260200190815260200160002060050160009054906101000a900473ffffffffffffffffffffffffffffffffffffffff1673ffffffffffffffffffffffffffffffffffffffff161461188a576040517f08c379a000000000000000000000000000000000000000000000000000000000815260040161188190613f42565b60405180910390fd5b60016006600083815260200190815260200160002060050160146101000a81548160ff0219169083151502179055507f63354d309b088421e22d1f307fd88e9e13eb3f889ca194ef0299fc1ffcced8fa81336040516118ea929190613a44565b60405180910390a150565b6000600854905090565b606080600080600060608060066000898152602001908152602001600020600001600660008a8152602001908152602001600020600401600660008b815260200190815260200160002060020154600660008c815260200190815260200160002060050160149054906101000a900460ff16600660008d815260200190815260200160002060050160009054906101000a900473ffffffffffffffffffffffffffffffffffffffff16600660008e8152602001908152602001600020600101600660008f81526020019081526020016000206003018680546119e0906137f1565b80601f0160208091040260200160405190810160405280929190818152602001828054611a0c906137f1565b8015611a595780601f10611a2e57610100808354040283529160200191611a59565b820191906000526020600020905b815481529060010190602001808311611a3c57829003601f168201915b50505050509650858054611a6c906137f1565b80601f0160208091040260200160405190810160405280929190818152602001828054611a98906137f1565b8015611ae55780601f10611aba57610100808354040283529160200191611ae5565b820191906000526020600020905b815481529060010190602001808311611ac857829003601f168201915b50505050509550818054611af8906137f1565b80601f0160208091040260200160405190810160405280929190818152602001828054611b24906137f1565b8015611b715780601f10611b4657610100808354040283529160200191611b71565b820191906000526020600020905b815481529060010190602001808311611b5457829003601f168201915b50505050509150808054611b84906137f1565b80601f0160208091040260200160405190810160405280929190818152602001828054611bb0906137f1565b8015611bfd5780601f10611bd257610100808354040283529160200191611bfd565b820191906000526020600020905b815481529060010190602001808311611be057829003601f168201915b505050505090509650965096509650965096509650919395979092949650565b611c2e611c286121bc565b83612456565b611c6d576040517f08c379a0000000000000000000000000000000000000000000000000000000008152600401611c6490613ed6565b60405180910390fd5b611c7984848484612b0e565b50505050565b6060611c8a82612150565b611cc9576040517f08c379a0000000000000000000000000000000000000000000000000000000008152600401611cc0906142aa565b60405180910390fd5b6000611cd3612b6a565b90506000815111611cf35760405180602001604052806000815250611d1e565b80611cfd84612b81565b604051602001611d0e929190614306565b6040516020818303038152906040525b915050919050565b60085481565b6006602052806000526040600020600091509050806000018054611d4f906137f1565b80601f0160208091040260200160405190810160405280929190818152602001828054611d7b906137f1565b8015611dc85780601f10611d9d57610100808354040283529160200191611dc8565b820191906000526020600020905b815481529060010190602001808311611dab57829003601f168201915b505050505090806001018054611ddd906137f1565b80601f0160208091040260200160405190810160405280929190818152602001828054611e09906137f1565b8015611e565780601f10611e2b57610100808354040283529160200191611e56565b820191906000526020600020905b815481529060010190602001808311611e3957829003601f168201915b505050505090806002015490806003018054611e71906137f1565b80601f0160208091040260200160405190810160405280929190818152602001828054611e9d906137f1565b8015611eea5780601f10611ebf57610100808354040283529160200191611eea565b820191906000526020600020905b815481529060010190602001808311611ecd57829003601f168201915b505050505090806004018054611eff906137f1565b80601f0160208091040260200160405190810160405280929190818152602001828054611f2b906137f1565b8015611f785780601f10611f4d57610100808354040283529160200191611f78565b820191906000526020600020905b815481529060010190602001808311611f5b57829003601f168201915b5050505050908060050160009054906101000a900473ffffffffffffffffffffffffffffffffffffffff16908060050160149054906101000a900460ff16905087565b6060600760008373ffffffffffffffffffffffffffffffffffffffff1673ffffffffffffffffffffffffffffffffffffffff16815260200190815260200160002080548060200260200160405190810160405280929190818152602001828054801561204657602002820191906000526020600020905b815481526020019060010190808311612032575b50505050509050919050565b6000600560008473ffffffffffffffffffffffffffffffffffffffff1673ffffffffffffffffffffffffffffffffffffffff16815260200190815260200160002060008373ffffffffffffffffffffffffffffffffffffffff1673ffffffffffffffffffffffffffffffffffffffff16815260200190815260200160002060009054906101000a900460ff16905092915050565b60007f01ffc9a7000000000000000000000000000000000000000000000000000000007bffffffffffffffffffffffffffffffffffffffffffffffffffffffff1916827bffffffffffffffffffffffffffffffffffffffffffffffffffffffff1916149050919050565b60008073ffffffffffffffffffffffffffffffffffffffff166002600084815260200190815260200160002060009054906101000a900473ffffffffffffffffffffffffffffffffffffffff1673ffffffffffffffffffffffffffffffffffffffff1614159050919050565b600033905090565b816004600083815260200190815260200160002060006101000a81548173ffffffffffffffffffffffffffffffffffffffff021916908373ffffffffffffffffffffffffffffffffffffffff160217905550808273ffffffffffffffffffffffffffffffffffffffff16612237836112e6565b73ffffffffffffffffffffffffffffffffffffffff167f8c5be1e5ebec7d5bd14f71427d1e84f3dd0314c0f7b2291e5b200ac8c7c3b92560405160405180910390a45050565b600073ffffffffffffffffffffffffffffffffffffffff168273ffffffffffffffffffffffffffffffffffffffff16036122ec576040517f08c379a00000000000000000000000000000000000000000000000000000000081526004016122e390614376565b60405180910390fd5b6122f581612150565b15612335576040517f08c379a000000000000000000000000000000000000000000000000000000000815260040161232c906143e2565b60405180910390fd5b61234160008383612ce1565b6001600360008473ffffffffffffffffffffffffffffffffffffffff1673ffffffffffffffffffffffffffffffffffffffff16815260200190815260200160002060008282546123919190613b74565b92505081905550816002600083815260200190815260200160002060006101000a81548173ffffffffffffffffffffffffffffffffffffffff021916908373ffffffffffffffffffffffffffffffffffffffff160217905550808273ffffffffffffffffffffffffffffffffffffffff16600073ffffffffffffffffffffffffffffffffffffffff167fddf252ad1be2c89b69c2b068fc378daa952ba7f163c4a11628f55a4df523b3ef60405160405180910390a461245260008383612ce6565b5050565b600061246182612150565b6124a0576040517f08c379a000000000000000000000000000000000000000000000000000000000815260040161249790614474565b60405180910390fd5b60006124ab836112e6565b90508073ffffffffffffffffffffffffffffffffffffffff168473ffffffffffffffffffffffffffffffffffffffff16148061251a57508373ffffffffffffffffffffffffffffffffffffffff16612502846107c4565b73ffffffffffffffffffffffffffffffffffffffff16145b8061252b575061252a8185612052565b5b91505092915050565b8273ffffffffffffffffffffffffffffffffffffffff16612554826112e6565b73ffffffffffffffffffffffffffffffffffffffff16146125aa576040517f08c379a00000000000000000000000000000000000000000000000000000000081526004016125a190614506565b60405180910390fd5b600073ffffffffffffffffffffffffffffffffffffffff168273ffffffffffffffffffffffffffffffffffffffff1603612619576040517f08c379a000000000000000000000000000000000000000000000000000000000815260040161261090614598565b60405180910390fd5b612624838383612ce1565b61262f6000826121c4565b6001600360008573ffffffffffffffffffffffffffffffffffffffff1673ffffffffffffffffffffffffffffffffffffffff168152602001908152602001600020600082825461267f9190614069565b925050819055506001600360008473ffffffffffffffffffffffffffffffffffffffff1673ffffffffffffffffffffffffffffffffffffffff16815260200190815260200160002060008282546126d69190613b74565b92505081905550816002600083815260200190815260200160002060006101000a81548173ffffffffffffffffffffffffffffffffffffffff021916908373ffffffffffffffffffffffffffffffffffffffff160217905550808273ffffffffffffffffffffffffffffffffffffffff168473ffffffffffffffffffffffffffffffffffffffff167fddf252ad1be2c89b69c2b068fc378daa952ba7f163c4a11628f55a4df523b3ef60405160405180910390a4612795838383612ce6565b505050565b600080600760008573ffffffffffffffffffffffffffffffffffffffff1673ffffffffffffffffffffffffffffffffffffffff16815260200190815260200160002080548060200260200160405190810160405280929190818152602001828054801561282657602002820191906000526020600020905b815481526020019060010190808311612812575b5050505050905060005b8151811015612878578382828151811061284d5761284c61403a565b5b6020026020010151036128655760019250505061287f565b8080612870906140cc565b915050612830565b5060009150505b92915050565b6000612890826112e6565b905061289e81600084612ce1565b6128a96000836121c4565b6001600360008373ffffffffffffffffffffffffffffffffffffffff1673ffffffffffffffffffffffffffffffffffffffff16815260200190815260200160002060008282546128f99190614069565b925050819055506002600083815260200190815260200160002060006101000a81549073ffffffffffffffffffffffffffffffffffffffff021916905581600073ffffffffffffffffffffffffffffffffffffffff168273ffffffffffffffffffffffffffffffffffffffff167fddf252ad1be2c89b69c2b068fc378daa952ba7f163c4a11628f55a4df523b3ef60405160405180910390a461299e81600084612ce6565b5050565b8173ffffffffffffffffffffffffffffffffffffffff168373ffffffffffffffffffffffffffffffffffffffff1603612a10576040517f08c379a0000000000000000000000000000000000000000000000000000000008152600401612a0790614604565b60405180910390fd5b80600560008573ffffffffffffffffffffffffffffffffffffffff1673ffffffffffffffffffffffffffffffffffffffff16815260200190815260200160002060008473ffffffffffffffffffffffffffffffffffffffff1673ffffffffffffffffffffffffffffffffffffffff16815260200190815260200160002060006101000a81548160ff0219169083151502179055508173ffffffffffffffffffffffffffffffffffffffff168373ffffffffffffffffffffffffffffffffffffffff167f17307eab39ab6107e8899845ad3d59bd9653f200f220920489ca2b5937696c3183604051612b019190612f49565b60405180910390a3505050565b612b19848484612534565b612b2584848484612ceb565b612b64576040517f08c379a0000000000000000000000000000000000000000000000000000000008152600401612b5b90614696565b60405180910390fd5b50505050565b606060405180602001604052806000815250905090565b606060008203612bc8576040518060400160405280600181526020017f30000000000000000000000000000000000000000000000000000000000000008152509050612cdc565b600082905060005b60008214612bfa578080612be3906140cc565b915050600a82612bf391906146e5565b9150612bd0565b60008167ffffffffffffffff811115612c1657612c1561314b565b5b6040519080825280601f01601f191660200182016040528015612c485781602001600182028036833780820191505090505b5090505b60008514612cd557600182612c619190614069565b9150600a85612c709190614716565b6030612c7c9190613b74565b60f81b818381518110612c9257612c9161403a565b5b60200101907effffffffffffffffffffffffffffffffffffffffffffffffffffffffffffff1916908160001a905350600a85612cce91906146e5565b9450612c4c565b8093505050505b919050565b505050565b505050565b6000612d0c8473ffffffffffffffffffffffffffffffffffffffff16612e72565b15612e65578373ffffffffffffffffffffffffffffffffffffffff1663150b7a02612d356121bc565b8786866040518563ffffffff1660e01b8152600401612d57949392919061479c565b6020604051808303816000875af1925050508015612d9357506040513d601f19601f82011682018060405250810190612d9091906147fd565b60015b612e15573d8060008114612dc3576040519150601f19603f3d011682016040523d82523d6000602084013e612dc8565b606091505b506000815103612e0d576040517f08c379a0000000000000000000000000000000000000000000000000000000008152600401612e0490614696565b60405180910390fd5b805181602001fd5b63150b7a0260e01b7bffffffffffffffffffffffffffffffffffffffffffffffffffffffff1916817bffffffffffffffffffffffffffffffffffffffffffffffffffffffff191614915050612e6a565b600190505b949350505050565b6000808273ffffffffffffffffffffffffffffffffffffffff163b119050919050565b6000604051905090565b600080fd5b600080fd5b60007fffffffff0000000000000000000000000000000000000000000000000000000082169050919050565b612ede81612ea9565b8114612ee957600080fd5b50565b600081359050612efb81612ed5565b92915050565b600060208284031215612f1757612f16612e9f565b5b6000612f2584828501612eec565b91505092915050565b60008115159050919050565b612f4381612f2e565b82525050565b6000602082019050612f5e6000830184612f3a565b92915050565b600081519050919050565b600082825260208201905092915050565b60005b83811015612f9e578082015181840152602081019050612f83565b60008484015250505050565b6000601f19601f8301169050919050565b6000612fc682612f64565b612fd08185612f6f565b9350612fe0818560208601612f80565b612fe981612faa565b840191505092915050565b6000602082019050818103600083015261300e8184612fbb565b905092915050565b6000819050919050565b61302981613016565b811461303457600080fd5b50565b60008135905061304681613020565b92915050565b60006020828403121561306257613061612e9f565b5b600061307084828501613037565b91505092915050565b600073ffffffffffffffffffffffffffffffffffffffff82169050919050565b60006130a482613079565b9050919050565b6130b481613099565b82525050565b60006020820190506130cf60008301846130ab565b92915050565b6130de81613099565b81146130e957600080fd5b50565b6000813590506130fb816130d5565b92915050565b6000806040838503121561311857613117612e9f565b5b6000613126858286016130ec565b925050602061313785828601613037565b9150509250929050565b600080fd5b600080fd5b7f4e487b7100000000000000000000000000000000000000000000000000000000600052604160045260246000fd5b61318382612faa565b810181811067ffffffffffffffff821117156131a2576131a161314b565b5b80604052505050565b60006131b5612e95565b90506131c1828261317a565b919050565b600067ffffffffffffffff8211156131e1576131e061314b565b5b6131ea82612faa565b9050602081019050919050565b82818337600083830152505050565b6000613219613214846131c6565b6131ab565b90508281526020810184848401111561323557613234613146565b5b6132408482856131f7565b509392505050565b600082601f83011261325d5761325c613141565b5b813561326d848260208601613206565b91505092915050565b600080600080608085870312156132905761328f612e9f565b5b600085013567ffffffffffffffff8111156132ae576132ad612ea4565b5b6132ba87828801613248565b945050602085013567ffffffffffffffff8111156132db576132da612ea4565b5b6132e787828801613248565b93505060406132f887828801613037565b925050606085013567ffffffffffffffff81111561331957613318612ea4565b5b61332587828801613248565b91505092959194509250565b60008060006060848603121561334a57613349612e9f565b5b6000613358868287016130ec565b9350506020613369868287016130ec565b925050604061337a86828701613037565b9150509250925092565b61338d81613016565b82525050565b60006020820190506133a86000830184613384565b92915050565b6000602082840312156133c4576133c3612e9f565b5b60006133d2848285016130ec565b91505092915050565b600060e08201905081810360008301526133f5818a612fbb565b905081810360208301526134098189612fbb565b90506134186040830188613384565b6134256060830187612f3a565b61343260808301866130ab565b81810360a08301526134448185612fbb565b905081810360c08301526134588184612fbb565b905098975050505050505050565b61346f81612f2e565b811461347a57600080fd5b50565b60008135905061348c81613466565b92915050565b600080604083850312156134a9576134a8612e9f565b5b60006134b7858286016130ec565b92505060206134c88582860161347d565b9150509250929050565b600067ffffffffffffffff8211156134ed576134ec61314b565b5b6134f682612faa565b9050602081019050919050565b6000613516613511846134d2565b6131ab565b90508281526020810184848401111561353257613531613146565b5b61353d8482856131f7565b509392505050565b600082601f83011261355a57613559613141565b5b813561356a848260208601613503565b91505092915050565b6000806000806080858703121561358d5761358c612e9f565b5b600061359b878288016130ec565b94505060206135ac878288016130ec565b93505060406135bd87828801613037565b925050606085013567ffffffffffffffff8111156135de576135dd612ea4565b5b6135ea87828801613545565b91505092959194509250565b600061360182613079565b9050919050565b613611816135f6565b82525050565b600060e0820190508181036000830152613631818a612fbb565b905081810360208301526136458189612fbb565b90506136546040830188613384565b81810360608301526136668187612fbb565b9050818103608083015261367a8186612fbb565b905061368960a0830185613608565b61369660c0830184612f3a565b98975050505050505050565b600081519050919050565b600082825260208201905092915050565b6000819050602082019050919050565b6136d781613016565b82525050565b60006136e983836136ce565b60208301905092915050565b6000602082019050919050565b600061370d826136a2565b61371781856136ad565b9350613722836136be565b8060005b8381101561375357815161373a88826136dd565b9750613745836136f5565b925050600181019050613726565b5085935050505092915050565b6000602082019050818103600083015261377a8184613702565b905092915050565b6000806040838503121561379957613798612e9f565b5b60006137a7858286016130ec565b92505060206137b8858286016130ec565b9150509250929050565b7f4e487b7100000000000000000000000000000000000000000000000000000000600052602260045260246000fd5b6000600282049050600182168061380957607f821691505b60208210810361381c5761381b6137c2565b5b50919050565b7f4552433732313a20617070726f76656420717565727920666f72206e6f6e657860008201527f697374656e7420746f6b656e0000000000000000000000000000000000000000602082015250565b600061387e602c83612f6f565b915061388982613822565b604082019050919050565b600060208201905081810360008301526138ad81613871565b9050919050565b7f4552433732313a20617070726f76616c20746f2063757272656e74206f776e6560008201527f7200000000000000000000000000000000000000000000000000000000000000602082015250565b6000613910602183612f6f565b915061391b826138b4565b604082019050919050565b6000602082019050818103600083015261393f81613903565b9050919050565b7f4552433732313a20617070726f76652063616c6c6572206973206e6f74206f7760008201527f6e6572206e6f7220617070726f76656420666f7220616c6c0000000000000000602082015250565b60006139a2603883612f6f565b91506139ad82613946565b604082019050919050565b600060208201905081810360008301526139d181613995565b9050919050565b7f50657420616c726561647920666f722073616c65000000000000000000000000600082015250565b6000613a0e601483612f6f565b9150613a19826139d8565b602082019050919050565b60006020820190508181036000830152613a3d81613a01565b9050919050565b6000604082019050613a596000830185613384565b613a6660208301846130ab565b9392505050565b7f4e6f7420656e6f7567682045746865722070726f76696465642e000000000000600082015250565b6000613aa3601a83612f6f565b9150613aae82613a6d565b602082019050919050565b60006020820190508181036000830152613ad281613a96565b9050919050565b7f506574206e6f7420666f722073616c6500000000000000000000000000000000600082015250565b6000613b0f601083612f6f565b9150613b1a82613ad9565b602082019050919050565b60006020820190508181036000830152613b3e81613b02565b9050919050565b7f4e487b7100000000000000000000000000000000000000000000000000000000600052601160045260246000fd5b6000613b7f82613016565b9150613b8a83613016565b9250828201905080821115613ba257613ba1613b45565b5b92915050565b60008190508160005260206000209050919050565b60006020601f8301049050919050565b600082821b905092915050565b600060088302613c0a7fffffffffffffffffffffffffffffffffffffffffffffffffffffffffffffffff82613bcd565b613c148683613bcd565b95508019841693508086168417925050509392505050565b6000819050919050565b6000613c51613c4c613c4784613016565b613c2c565b613016565b9050919050565b6000819050919050565b613c6b83613c36565b613c7f613c7782613c58565b848454613bda565b825550505050565b600090565b613c94613c87565b613c9f818484613c62565b505050565b5b81811015613cc357613cb8600082613c8c565b600181019050613ca5565b5050565b601f821115613d0857613cd981613ba8565b613ce284613bbd565b81016020851015613cf1578190505b613d05613cfd85613bbd565b830182613ca4565b50505b505050565b600082821c905092915050565b6000613d2b60001984600802613d0d565b1980831691505092915050565b6000613d448383613d1a565b9150826002028217905092915050565b613d5d82612f64565b67ffffffffffffffff811115613d7657613d7561314b565b5b613d8082546137f1565b613d8b828285613cc7565b600060209050601f831160018114613dbe5760008415613dac578287015190505b613db68582613d38565b865550613e1e565b601f198416613dcc86613ba8565b60005b82811015613df457848901518255600182019150602085019450602081019050613dcf565b86831015613e115784890151613e0d601f891682613d1a565b8355505b6001600288020188555050505b505050505050565b6000606082019050613e3b6000830186613384565b8181036020830152613e4d8185612fbb565b9050613e5c60408301846130ab565b949350505050565b7f4552433732313a207472616e736665722063616c6c6572206973206e6f74206f60008201527f776e6572206e6f7220617070726f766564000000000000000000000000000000602082015250565b6000613ec0603183612f6f565b9150613ecb82613e64565b604082019050919050565b60006020820190508181036000830152613eef81613eb3565b9050919050565b7f4e6f7420746865206f776e657200000000000000000000000000000000000000600082015250565b6000613f2c600d83612f6f565b9150613f3782613ef6565b602082019050919050565b60006020820190508181036000830152613f5b81613f1f565b9050919050565b7f546f6b656e206e6f74206f776e65642062792074686973206164647265737300600082015250565b6000613f98601f83612f6f565b9150613fa382613f62565b602082019050919050565b60006020820190508181036000830152613fc781613f8b565b9050919050565b7f4e6f742074686520746f6b656e206f776e657200000000000000000000000000600082015250565b6000614004601383612f6f565b915061400f82613fce565b602082019050919050565b6000602082019050818103600083015261403381613ff7565b9050919050565b7f4e487b7100000000000000000000000000000000000000000000000000000000600052603260045260246000fd5b600061407482613016565b915061407f83613016565b925082820390508181111561409757614096613b45565b5b92915050565b7f4e487b7100000000000000000000000000000000000000000000000000000000600052603160045260246000fd5b60006140d782613016565b91507fffffffffffffffffffffffffffffffffffffffffffffffffffffffffffffffff820361410957614108613b45565b5b600182019050919050565b7f4552433732313a206f776e657220717565727920666f72206e6f6e657869737460008201527f656e7420746f6b656e0000000000000000000000000000000000000000000000602082015250565b6000614170602983612f6f565b915061417b82614114565b604082019050919050565b6000602082019050818103600083015261419f81614163565b9050919050565b7f4552433732313a2062616c616e636520717565727920666f7220746865207a6560008201527f726f206164647265737300000000000000000000000000000000000000000000602082015250565b6000614202602a83612f6f565b915061420d826141a6565b604082019050919050565b60006020820190508181036000830152614231816141f5565b9050919050565b7f4552433732314d657461646174613a2055524920717565727920666f72206e6f60008201527f6e6578697374656e7420746f6b656e0000000000000000000000000000000000602082015250565b6000614294602f83612f6f565b915061429f82614238565b604082019050919050565b600060208201905081810360008301526142c381614287565b9050919050565b600081905092915050565b60006142e082612f64565b6142ea81856142ca565b93506142fa818560208601612f80565b80840191505092915050565b600061431282856142d5565b915061431e82846142d5565b91508190509392505050565b7f4552433732313a206d696e7420746f20746865207a65726f2061646472657373600082015250565b6000614360602083612f6f565b915061436b8261432a565b602082019050919050565b6000602082019050818103600083015261438f81614353565b9050919050565b7f4552433732313a20746f6b656e20616c7265616479206d696e74656400000000600082015250565b60006143cc601c83612f6f565b91506143d782614396565b602082019050919050565b600060208201905081810360008301526143fb816143bf565b9050919050565b7f4552433732313a206f70657261746f7220717565727920666f72206e6f6e657860008201527f697374656e7420746f6b656e0000000000000000000000000000000000000000602082015250565b600061445e602c83612f6f565b915061446982614402565b604082019050919050565b6000602082019050818103600083015261448d81614451565b9050919050565b7f4552433732313a207472616e736665722066726f6d20696e636f72726563742060008201527f6f776e6572000000000000000000000000000000000000000000000000000000602082015250565b60006144f0602583612f6f565b91506144fb82614494565b604082019050919050565b6000602082019050818103600083015261451f816144e3565b9050919050565b7f4552433732313a207472616e7366657220746f20746865207a65726f2061646460008201527f7265737300000000000000000000000000000000000000000000000000000000602082015250565b6000614582602483612f6f565b915061458d82614526565b604082019050919050565b600060208201905081810360008301526145b181614575565b9050919050565b7f4552433732313a20617070726f766520746f2063616c6c657200000000000000600082015250565b60006145ee601983612f6f565b91506145f9826145b8565b602082019050919050565b6000602082019050818103600083015261461d816145e1565b9050919050565b7f4552433732313a207472616e7366657220746f206e6f6e20455243373231526560008201527f63656976657220696d706c656d656e7465720000000000000000000000000000602082015250565b6000614680603283612f6f565b915061468b82614624565b604082019050919050565b600060208201905081810360008301526146af81614673565b9050919050565b7f4e487b7100000000000000000000000000000000000000000000000000000000600052601260045260246000fd5b60006146f082613016565b91506146fb83613016565b92508261470b5761470a6146b6565b5b828204905092915050565b600061472182613016565b915061472c83613016565b92508261473c5761473b6146b6565b5b828206905092915050565b600081519050919050565b600082825260208201905092915050565b600061476e82614747565b6147788185614752565b9350614788818560208601612f80565b61479181612faa565b840191505092915050565b60006080820190506147b160008301876130ab565b6147be60208301866130ab565b6147cb6040830185613384565b81810360608301526147dd8184614763565b905095945050505050565b6000815190506147f781612ed5565b92915050565b60006020828403121561481357614812612e9f565b5b6000614821848285016147e8565b9150509291505056fea264697066735822122069218cc805749221797a3e38b200127238b1459e0a53b1dc8987e675261a643c64736f6c63430008130033",
  "immutableReferences": {},
  "source": "// SPDX-License-Identifier: MIT\npragma solidity ^0.8.19;\npragma experimental ABIEncoderV2;\n\nimport \"@openzeppelin/contracts/token/ERC721/ERC721.sol\"; //  ERC721 \n\ncontract Adoption is ERC721 {\n    struct Pet {\n        string name;\n        string picture;\n        uint value;\n        string breed;\n        string location;\n        address payable owner;\n        bool forSale;\n    }\n    // Pet[] public pets;\n\n    //  ID \n    mapping(uint256 => Pet) public pets;\n\n    // ID\n    mapping(address => uint256[]) public ownerTokens;\n\n    // \n    uint256 public petCount=16;\n\n    constructor() ERC721(\"PetNFT\", \"PET\") {\n        pets[0] = Pet(\n                \"Frieda\",\n                \"images/scottish-terrier.jpeg\",\n                3,\n                \"Scottish Terrier\",\n                \"Lisco, Alabama\",\n                payable(address(0)),\n                false\n            );\n\n        pets[1] = Pet(\n                \"Gina\",\n                \"images/scottish-terrier.jpeg\",\n                3,\n                \"Scottish Terrier\",\n                \"Tooleville, West Virginia\",\n                payable(address(0)),\n                false\n            );\n\n        pets[2] = Pet(\n                \"Collins\",\n                \"images/french-bulldog.jpeg\",\n                2,\n                \"French Bulldog\",\n                \"Freeburn, Idaho\",\n                payable(address(0)),\n                false\n            );\n\n        pets[3] = Pet(\n                \"Melissa\",\n                \"images/boxer.jpeg\",\n                2,\n                \"Boxer\",\n                \"Camas, Pennsylvania\",\n                payable(address(0)),\n                false\n            );\n\n        pets[4] = Pet(\n                \"Jeanine\",\n                \"images/french-bulldog.jpeg\",\n                2,\n                \"French Bulldog\",\n                \"Gerber, South Dakota\",\n                payable(address(0)),\n                false\n            );\n\n        pets[5] = Pet(\n                \"Elvia\",\n                \"images/french-bulldog.jpeg\",\n                3,\n                \"French Bulldog\",\n                \"Innsbrook, Illinois\",\n                payable(address(0)),\n                false\n            );\n\n        pets[6] = Pet(\n                \"Latisha\",\n                \"images/golden-retriever.jpeg\",\n                3,\n                \"Golden Retriever\",\n                \"Soudan, Louisiana\",\n                payable(address(0)),\n                false\n            );\n\n        pets[7] = Pet(\n                \"Coleman\",\n                \"images/golden-retriever.jpeg\",\n                3,\n                \"Golden Retriever\",\n                \"Jacksonwald, Palau\",\n                payable(address(0)),\n                false\n            );\n\n        pets[8] = Pet(\n                \"Nichole\",\n                \"images/french-bulldog.jpeg\",\n                2,\n                \"French Bulldog\",\n                \"Honolulu, Hawaii\",\n                payable(address(0)),\n                false\n            );\n\n        pets[9] = Pet(\n                \"Fran\",\n                \"images/boxer.jpeg\",\n                3,\n                \"Boxer\",\n                \"Matheny, Utah\",\n                payable(address(0)),\n                false\n            );\n\n        pets[10] = Pet(\n                \"Leonor\",\n                \"images/boxer.jpeg\",\n                2,\n                \"Boxer\",\n                \"Tyhee, Indiana\",\n                payable(address(0)),\n                false\n            );\n\n        pets[11] = Pet(\n                \"Dean\",\n                \"images/scottish-terrier.jpeg\",\n                3,\n                \"Scottish Terrier\",\n                \"Windsor, Montana\",\n                payable(address(0)),\n                false\n            );\n\n        pets[12] = Pet(\n                \"Stevenson\",\n                \"images/french-bulldog.jpeg\",\n                3,\n                \"French Bulldog\",\n                \"Kingstowne, Nevada\",\n                payable(address(0)),\n                false\n            );\n\n        pets[13] = Pet(\n                \"Kristina\",\n                \"images/golden-retriever.jpeg\",\n                4,\n                \"Golden Retriever\",\n                \"Sultana, Massachusetts\",\n                payable(address(0)),\n                false\n            );\n\n        pets[14] = Pet(\n                \"Ethel\",\n                \"images/golden-retriever.jpeg\",\n                2,\n                \"Golden Retriever\",\n                \"Broadlands, Oregon\",\n                payable(address(0)),\n                false\n            );\n\n        pets[15] = Pet(\n                \"Terry\",\n                \"images/golden-retriever.jpeg\",\n                2,\n                \"Golden Retriever\",\n                \"Dawn, Wisconsin\",\n                payable(address(0)),\n                false\n            );\n    }\n\n\n    event PetAdopted(uint petId, address newOwner);\n    event PetSold(uint petId, address newOwner);\n    event PetAdded(uint petId, string name, address owner);\n\n    function adoptPet(uint petId) public payable{\n        // require(petId < pets.length, \"Pet does not exist\");\n        require(!pets[petId].forSale, \"Pet already for sale\");\n        //require(msg.value >= pets[petId].value * 1 ether, \"Incorrect Ether amount provided.\");\n\n        pets[petId].owner.transfer(pets[petId].value); \n        pets[petId].owner = payable(msg.sender);\n\n        _mint(msg.sender, petId); //  NFT\n\n        ownerTokens[msg.sender].push(petId); //  ID \n\n        // pets[petId].isDaibi = true;\n        \n        emit PetAdopted(petId, msg.sender);\n    }\n\n    function butsell(uint petId) public payable {\n        // require(petId < pets.length, \"Pet does not exist\");\n        require(msg.value >= 0.1 ether, \"Not enough Ether provided.\"); // Check if the transaction value is enough.\n        require(pets[petId].forSale, \"Pet not for sale\"); // Ensure the pet is for sale.\n\n        pets[petId].owner.transfer(msg.value); // Transfer the Ether to the current pet owner.\n        pets[petId].forSale = false;\n        pets[petId].owner = payable(msg.sender);\n\n        emit PetAdopted(petId, msg.sender);\n    }\n\n    //address\n    function isTokenOwnedBy(address owner, uint petId) internal view returns (bool) {\n        uint256[] memory tokens = ownerTokens[owner];\n        for (uint i = 0; i < tokens.length; i++) {\n            if (tokens[i] == petId) {\n                return true; //  true\n            }\n        }\n        return false; //  false\n    }\n\n    function sellPet_new(uint petId) public {\n        // require(petId < pets.length, \"Pet does not exist\");\n        require(pets[petId].owner == msg.sender, \"Not the owner\");\n        require(isTokenOwnedBy(msg.sender, petId), \"Token not owned by this address\"); // \n        require(ownerOf(petId) == msg.sender, \"Not the token owner\"); // \n        _burn(petId); // \n        // \n        pets[petId].forSale = true;\n        pets[petId].owner = payable(address(0));\n\n        // \n        uint256[] storage tokens = ownerTokens[msg.sender];\n        for (uint i = 0; i < tokens.length; i++) {\n            if (tokens[i] == petId) {\n                tokens[i] = tokens[tokens.length - 1]; // \n                tokens.pop(); // \n                break;\n            }\n        }\n        \n        emit PetSold(petId, msg.sender);\n    }\n\n    function sellPet(uint petId) public {\n        // require(petId < pets.length, \"Pet does not exist\");\n        require(pets[petId].owner == msg.sender, \"Not the owner\");\n        pets[petId].forSale = true;\n        emit PetSold(petId, msg.sender);\n    }\n\n    function addPet(\n        string memory name,\n        string memory location,\n        uint value,\n        string memory breed\n    ) public {\n        uint newPetId = petCount;\n        petCount = petCount+1;\n        pets[newPetId]=Pet({\n                value: value,\n                name: name,\n                location: location,\n                picture: \"images/boxer.jpeg\",\n                breed: breed,\n                owner: payable(address(0)),\n                forSale: false\n            });\n        emit PetAdded(newPetId, name, msg.sender);\n    }\n\n    function getCount() public view returns (uint) {\n        return petCount;\n    }\n\n   //  ID\n    function getOwnedTokens(address owner) public view returns (uint256[] memory) {\n        return ownerTokens[owner]; //  ID\n    }\n\n    function getPetsByOwner_nft(\n        uint petId\n    )\n        public\n        view\n        returns (\n            string memory,\n            string memory,\n            uint,\n            bool,\n            address,\n            string memory,\n            string memory\n        )\n    {\n        return (\n            pets[petId].name,\n            pets[petId].location,\n            pets[petId].value,\n            pets[petId].forSale,\n            // pets[petId].owner,\n            ownerOf(petId),\n            pets[petId].picture,\n            pets[petId].breed\n        );\n    }\n\n    function getAllPets(\n        uint petId\n    )\n        public\n        view\n        returns (\n            string memory,\n            string memory,\n            uint,\n            bool,\n            address,\n            string memory,\n            string memory\n        )\n    {\n        return (\n            pets[petId].name,\n            pets[petId].location,\n            pets[petId].value,\n            pets[petId].forSale,\n            pets[petId].owner,\n            pets[petId].picture,\n            pets[petId].breed\n        );\n    }\n\n    fallback() external payable {}\n\n    receive() external payable {}\n}\n",
  "sourcePath": "C:\\Users\\admin\\Desktop\\\\\\\\2020339920009--petshop\\dapp\\contracts\\Adoption.sol",
  "compiler": {
    "name": "solc",
    "version": "0.8.19+commit.7dd6d404.Emscripten.clang"
  },
  "schemaVersion": "3.4.14",
  "updatedAt": "2024-11-29T04:28:07.392Z",
  "networkType": "ethereum",
  "devdoc": {
    "events": {
      "Approval(address,address,uint256)": {
        "details": "Emitted when `owner` enables `approved` to manage the `tokenId` token."
      },
      "ApprovalForAll(address,address,bool)": {
        "details": "Emitted when `owner` enables or disables (`approved`) `operator` to manage all of its assets."
      },
      "Transfer(address,address,uint256)": {
        "details": "Emitted when `tokenId` token is transferred from `from` to `to`."
      }
    },
    "kind": "dev",
    "methods": {
      "approve(address,uint256)": {
        "details": "See {IERC721-approve}."
      },
      "balanceOf(address)": {
        "details": "See {IERC721-balanceOf}."
      },
      "getApproved(uint256)": {
        "details": "See {IERC721-getApproved}."
      },
      "isApprovedForAll(address,address)": {
        "details": "See {IERC721-isApprovedForAll}."
      },
      "name()": {
        "details": "See {IERC721Metadata-name}."
      },
      "ownerOf(uint256)": {
        "details": "See {IERC721-ownerOf}."
      },
      "safeTransferFrom(address,address,uint256)": {
        "details": "See {IERC721-safeTransferFrom}."
      },
      "safeTransferFrom(address,address,uint256,bytes)": {
        "details": "See {IERC721-safeTransferFrom}."
      },
      "setApprovalForAll(address,bool)": {
        "details": "See {IERC721-setApprovalForAll}."
      },
      "supportsInterface(bytes4)": {
        "details": "See {IERC165-supportsInterface}."
      },
      "symbol()": {
        "details": "See {IERC721Metadata-symbol}."
      },
      "tokenURI(uint256)": {
        "details": "See {IERC721Metadata-tokenURI}."
      },
      "transferFrom(address,address,uint256)": {
        "details": "See {IERC721-transferFrom}."
      }
    },
    "version": 1
  },
  "userdoc": {
    "kind": "user",
    "methods": {},
    "version": 1
  }
}