{
  "contractName": "Adoption",
  "abi": [
    {
      "inputs": [],
      "stateMutability": "nonpayable",
      "type": "constructor"
    },
    {
      "anonymous": false,
      "inputs": [
        {
          "indexed": true,
          "internalType": "address",
          "name": "owner",
          "type": "address"
        },
        {
          "indexed": true,
          "internalType": "address",
          "name": "approved",
          "type": "address"
        },
        {
          "indexed": true,
          "internalType": "uint256",
          "name": "tokenId",
          "type": "uint256"
        }
      ],
      "name": "Approval",
      "type": "event"
    },
    {
      "anonymous": false,
      "inputs": [
        {
          "indexed": true,
          "internalType": "address",
          "name": "owner",
          "type": "address"
        },
        {
          "indexed": true,
          "internalType": "address",
          "name": "operator",
          "type": "address"
        },
        {
          "indexed": false,
          "internalType": "bool",
          "name": "approved",
          "type": "bool"
        }
      ],
      "name": "ApprovalForAll",
      "type": "event"
    },
    {
      "anonymous": false,
      "inputs": [
        {
          "indexed": false,
          "internalType": "uint256",
          "name": "petId",
          "type": "uint256"
        },
        {
          "indexed": false,
          "internalType": "string",
          "name": "name",
          "type": "string"
        },
        {
          "indexed": false,
          "internalType": "address",
          "name": "owner",
          "type": "address"
        }
      ],
      "name": "PetAdded",
      "type": "event"
    },
    {
      "anonymous": false,
      "inputs": [
        {
          "indexed": false,
          "internalType": "uint256",
          "name": "petId",
          "type": "uint256"
        },
        {
          "indexed": false,
          "internalType": "address",
          "name": "newOwner",
          "type": "address"
        }
      ],
      "name": "PetAdopted",
      "type": "event"
    },
    {
      "anonymous": false,
      "inputs": [
        {
          "indexed": false,
          "internalType": "uint256",
          "name": "petId",
          "type": "uint256"
        },
        {
          "indexed": false,
          "internalType": "address",
          "name": "newOwner",
          "type": "address"
        }
      ],
      "name": "PetSold",
      "type": "event"
    },
    {
      "anonymous": false,
      "inputs": [
        {
          "indexed": true,
          "internalType": "address",
          "name": "from",
          "type": "address"
        },
        {
          "indexed": true,
          "internalType": "address",
          "name": "to",
          "type": "address"
        },
        {
          "indexed": true,
          "internalType": "uint256",
          "name": "tokenId",
          "type": "uint256"
        }
      ],
      "name": "Transfer",
      "type": "event"
    },
    {
      "stateMutability": "payable",
      "type": "fallback",
      "payable": true
    },
    {
      "inputs": [
        {
          "internalType": "address",
          "name": "to",
          "type": "address"
        },
        {
          "internalType": "uint256",
          "name": "tokenId",
          "type": "uint256"
        }
      ],
      "name": "approve",
      "outputs": [],
      "stateMutability": "nonpayable",
      "type": "function"
    },
    {
      "inputs": [
        {
          "internalType": "address",
          "name": "owner",
          "type": "address"
        }
      ],
      "name": "balanceOf",
      "outputs": [
        {
          "internalType": "uint256",
          "name": "",
          "type": "uint256"
        }
      ],
      "stateMutability": "view",
      "type": "function",
      "constant": true
    },
    {
      "inputs": [
        {
          "internalType": "uint256",
          "name": "tokenId",
          "type": "uint256"
        }
      ],
      "name": "getApproved",
      "outputs": [
        {
          "internalType": "address",
          "name": "",
          "type": "address"
        }
      ],
      "stateMutability": "view",
      "type": "function",
      "constant": true
    },
    {
      "inputs": [
        {
          "internalType": "address",
          "name": "owner",
          "type": "address"
        },
        {
          "internalType": "address",
          "name": "operator",
          "type": "address"
        }
      ],
      "name": "isApprovedForAll",
      "outputs": [
        {
          "internalType": "bool",
          "name": "",
          "type": "bool"
        }
      ],
      "stateMutability": "view",
      "type": "function",
      "constant": true
    },
    {
      "inputs": [],
      "name": "name",
      "outputs": [
        {
          "internalType": "string",
          "name": "",
          "type": "string"
        }
      ],
      "stateMutability": "view",
      "type": "function",
      "constant": true
    },
    {
      "inputs": [
        {
          "internalType": "uint256",
          "name": "tokenId",
          "type": "uint256"
        }
      ],
      "name": "ownerOf",
      "outputs": [
        {
          "internalType": "address",
          "name": "",
          "type": "address"
        }
      ],
      "stateMutability": "view",
      "type": "function",
      "constant": true
    },
    {
      "inputs": [
        {
          "internalType": "address",
          "name": "",
          "type": "address"
        },
        {
          "internalType": "uint256",
          "name": "",
          "type": "uint256"
        }
      ],
      "name": "ownerTokens",
      "outputs": [
        {
          "internalType": "uint256",
          "name": "",
          "type": "uint256"
        }
      ],
      "stateMutability": "view",
      "type": "function",
      "constant": true
    },
    {
      "inputs": [],
      "name": "petCount",
      "outputs": [
        {
          "internalType": "uint256",
          "name": "",
          "type": "uint256"
        }
      ],
      "stateMutability": "view",
      "type": "function",
      "constant": true
    },
    {
      "inputs": [
        {
          "internalType": "uint256",
          "name": "",
          "type": "uint256"
        }
      ],
      "name": "pets",
      "outputs": [
        {
          "internalType": "string",
          "name": "name",
          "type": "string"
        },
        {
          "internalType": "string",
          "name": "picture",
          "type": "string"
        },
        {
          "internalType": "uint256",
          "name": "value",
          "type": "uint256"
        },
        {
          "internalType": "string",
          "name": "breed",
          "type": "string"
        },
        {
          "internalType": "string",
          "name": "location",
          "type": "string"
        },
        {
          "internalType": "address payable",
          "name": "owner",
          "type": "address"
        },
        {
          "internalType": "bool",
          "name": "forSale",
          "type": "bool"
        }
      ],
      "stateMutability": "view",
      "type": "function",
      "constant": true
    },
    {
      "inputs": [
        {
          "internalType": "address",
          "name": "from",
          "type": "address"
        },
        {
          "internalType": "address",
          "name": "to",
          "type": "address"
        },
        {
          "internalType": "uint256",
          "name": "tokenId",
          "type": "uint256"
        }
      ],
      "name": "safeTransferFrom",
      "outputs": [],
      "stateMutability": "nonpayable",
      "type": "function"
    },
    {
      "inputs": [
        {
          "internalType": "address",
          "name": "from",
          "type": "address"
        },
        {
          "internalType": "address",
          "name": "to",
          "type": "address"
        },
        {
          "internalType": "uint256",
          "name": "tokenId",
          "type": "uint256"
        },
        {
          "internalType": "bytes",
          "name": "_data",
          "type": "bytes"
        }
      ],
      "name": "safeTransferFrom",
      "outputs": [],
      "stateMutability": "nonpayable",
      "type": "function"
    },
    {
      "inputs": [
        {
          "internalType": "address",
          "name": "operator",
          "type": "address"
        },
        {
          "internalType": "bool",
          "name": "approved",
          "type": "bool"
        }
      ],
      "name": "setApprovalForAll",
      "outputs": [],
      "stateMutability": "nonpayable",
      "type": "function"
    },
    {
      "inputs": [
        {
          "internalType": "bytes4",
          "name": "interfaceId",
          "type": "bytes4"
        }
      ],
      "name": "supportsInterface",
      "outputs": [
        {
          "internalType": "bool",
          "name": "",
          "type": "bool"
        }
      ],
      "stateMutability": "view",
      "type": "function",
      "constant": true
    },
    {
      "inputs": [],
      "name": "symbol",
      "outputs": [
        {
          "internalType": "string",
          "name": "",
          "type": "string"
        }
      ],
      "stateMutability": "view",
      "type": "function",
      "constant": true
    },
    {
      "inputs": [
        {
          "internalType": "uint256",
          "name": "tokenId",
          "type": "uint256"
        }
      ],
      "name": "tokenURI",
      "outputs": [
        {
          "internalType": "string",
          "name": "",
          "type": "string"
        }
      ],
      "stateMutability": "view",
      "type": "function",
      "constant": true
    },
    {
      "inputs": [
        {
          "internalType": "address",
          "name": "from",
          "type": "address"
        },
        {
          "internalType": "address",
          "name": "to",
          "type": "address"
        },
        {
          "internalType": "uint256",
          "name": "tokenId",
          "type": "uint256"
        }
      ],
      "name": "transferFrom",
      "outputs": [],
      "stateMutability": "nonpayable",
      "type": "function"
    },
    {
      "stateMutability": "payable",
      "type": "receive",
      "payable": true
    },
    {
      "inputs": [
        {
          "internalType": "uint256",
          "name": "petId",
          "type": "uint256"
        }
      ],
      "name": "adoptPet",
      "outputs": [],
      "stateMutability": "payable",
      "type": "function",
      "payable": true
    },
    {
      "inputs": [
        {
          "internalType": "uint256",
          "name": "petId",
          "type": "uint256"
        }
      ],
      "name": "butsell",
      "outputs": [],
      "stateMutability": "payable",
      "type": "function",
      "payable": true
    },
    {
      "inputs": [
        {
          "internalType": "uint256",
          "name": "petId",
          "type": "uint256"
        }
      ],
      "name": "sellPet_new",
      "outputs": [],
      "stateMutability": "nonpayable",
      "type": "function"
    },
    {
      "inputs": [
        {
          "internalType": "string",
          "name": "name",
          "type": "string"
        },
        {
          "internalType": "string",
          "name": "location",
          "type": "string"
        },
        {
          "internalType": "uint256",
          "name": "value",
          "type": "uint256"
        },
        {
          "internalType": "string",
          "name": "breed",
          "type": "string"
        }
      ],
      "name": "addPet",
      "outputs": [],
      "stateMutability": "nonpayable",
      "type": "function"
    },
    {
      "inputs": [],
      "name": "getCount",
      "outputs": [
        {
          "internalType": "uint256",
          "name": "",
          "type": "uint256"
        }
      ],
      "stateMutability": "view",
      "type": "function",
      "constant": true
    },
    {
      "inputs": [
        {
          "internalType": "address",
          "name": "owner",
          "type": "address"
        }
      ],
      "name": "getOwnedTokens",
      "outputs": [
        {
          "internalType": "uint256[]",
          "name": "",
          "type": "uint256[]"
        }
      ],
      "stateMutability": "view",
      "type": "function",
      "constant": true
    },
    {
      "inputs": [
        {
          "internalType": "uint256",
          "name": "petId",
          "type": "uint256"
        }
      ],
      "name": "getPetsByOwner_nft",
      "outputs": [
        {
          "internalType": "string",
          "name": "",
          "type": "string"
        },
        {
          "internalType": "string",
          "name": "",
          "type": "string"
        },
        {
          "internalType": "uint256",
          "name": "",
          "type": "uint256"
        },
        {
          "internalType": "bool",
          "name": "",
          "type": "bool"
        },
        {
          "internalType": "address",
          "name": "",
          "type": "address"
        },
        {
          "internalType": "string",
          "name": "",
          "type": "string"
        },
        {
          "internalType": "string",
          "name": "",
          "type": "string"
        }
      ],
      "stateMutability": "view",
      "type": "function",
      "constant": true
    },
    {
      "inputs": [
        {
          "internalType": "uint256",
          "name": "petId",
          "type": "uint256"
        }
      ],
      "name": "getAllPets",
      "outputs": [
        {
          "internalType": "string",
          "name": "",
          "type": "string"
        },
        {
          "internalType": "string",
          "name": "",
          "type": "string"
        },
        {
          "internalType": "uint256",
          "name": "",
          "type": "uint256"
        },
        {
          "internalType": "bool",
          "name": "",
          "type": "bool"
        },
        {
          "internalType": "address",
          "name": "",
          "type": "address"
        },
        {
          "internalType": "string",
          "name": "",
          "type": "string"
        },
        {
          "internalType": "string",
          "name": "",
          "type": "string"
        }
      ],
      "stateMutability": "view",
      "type": "function",
      "constant": true
    }
  ],
  "bytecode": "0x608060405260106008553480156200001657600080fd5b506040518060400160405280600681526020017f5065744e465400000000000000000000000000000000000000000000000000008152506040518060400160405280600381526020017f50455400000000000000000000000000000000000000000000000000000000008152508160009081620000949190620023c8565b508060019081620000a69190620023c8565b5050506040518060e001604052806040518060400160405280600681526020017f467269656461000000000000000000000000000000000000000000000000000081525081526020016040518060400160405280601c81526020017f696d616765732f73636f74746973682d746572726965722e6a706567000000008152508152602001600381526020016040518060400160405280601081526020017f53636f747469736820546572726965720000000000000000000000000000000081525081526020016040518060400160405280600e81526020017f4c6973636f2c20416c6162616d610000000000000000000000000000000000008152508152602001600073ffffffffffffffffffffffffffffffffffffffff16815260200160001515815250600660008081526020019081526020016000206000820151816000019081620001f59190620023c8565b5060208201518160010190816200020d9190620023c8565b506040820151816002015560608201518160030190816200022f9190620023c8565b506080820151816004019081620002479190620023c8565b5060a08201518160050160006101000a81548173ffffffffffffffffffffffffffffffffffffffff021916908373ffffffffffffffffffffffffffffffffffffffff16021790555060c08201518160050160146101000a81548160ff0219169083151502179055509050506040518060e001604052806040518060400160405280600481526020017f47696e610000000000000000000000000000000000000000000000000000000081525081526020016040518060400160405280601c81526020017f696d616765732f73636f74746973682d746572726965722e6a706567000000008152508152602001600381526020016040518060400160405280601081526020017f53636f747469736820546572726965720000000000000000000000000000000081525081526020016040518060400160405280601981526020017f546f6f6c6576696c6c652c20576573742056697267696e6961000000000000008152508152602001600073ffffffffffffffffffffffffffffffffffffffff1681526020016000151581525060066000600181526020019081526020016000206000820151816000019081620003ff9190620023c8565b506020820151816001019081620004179190620023c8565b50604082015181600201556060820151816003019081620004399190620023c8565b506080820151816004019081620004519190620023c8565b5060a08201518160050160006101000a81548173ffffffffffffffffffffffffffffffffffffffff021916908373ffffffffffffffffffffffffffffffffffffffff16021790555060c08201518160050160146101000a81548160ff0219169083151502179055509050506040518060e001604052806040518060400160405280600781526020017f436f6c6c696e730000000000000000000000000000000000000000000000000081525081526020016040518060400160405280601a81526020017f696d616765732f6672656e63682d62756c6c646f672e6a7065670000000000008152508152602001600281526020016040518060400160405280600e81526020017f4672656e63682042756c6c646f6700000000000000000000000000000000000081525081526020016040518060400160405280600f81526020017f467265656275726e2c20496461686f00000000000000000000000000000000008152508152602001600073ffffffffffffffffffffffffffffffffffffffff1681526020016000151581525060066000600281526020019081526020016000206000820151816000019081620006099190620023c8565b506020820151816001019081620006219190620023c8565b50604082015181600201556060820151816003019081620006439190620023c8565b5060808201518160040190816200065b9190620023c8565b5060a08201518160050160006101000a81548173ffffffffffffffffffffffffffffffffffffffff021916908373ffffffffffffffffffffffffffffffffffffffff16021790555060c08201518160050160146101000a81548160ff0219169083151502179055509050506040518060e001604052806040518060400160405280600781526020017f4d656c697373610000000000000000000000000000000000000000000000000081525081526020016040518060400160405280601181526020017f696d616765732f626f7865722e6a7065670000000000000000000000000000008152508152602001600281526020016040518060400160405280600581526020017f426f78657200000000000000000000000000000000000000000000000000000081525081526020016040518060400160405280601381526020017f43616d61732c2050656e6e73796c76616e6961000000000000000000000000008152508152602001600073ffffffffffffffffffffffffffffffffffffffff1681526020016000151581525060066000600381526020019081526020016000206000820151816000019081620008139190620023c8565b5060208201518160010190816200082b9190620023c8565b506040820151816002015560608201518160030190816200084d9190620023c8565b506080820151816004019081620008659190620023c8565b5060a08201518160050160006101000a81548173ffffffffffffffffffffffffffffffffffffffff021916908373ffffffffffffffffffffffffffffffffffffffff16021790555060c08201518160050160146101000a81548160ff0219169083151502179055509050506040518060e001604052806040518060400160405280600781526020017f4a65616e696e650000000000000000000000000000000000000000000000000081525081526020016040518060400160405280601a81526020017f696d616765732f6672656e63682d62756c6c646f672e6a7065670000000000008152508152602001600281526020016040518060400160405280600e81526020017f4672656e63682042756c6c646f6700000000000000000000000000000000000081525081526020016040518060400160405280601481526020017f4765726265722c20536f7574682044616b6f74610000000000000000000000008152508152602001600073ffffffffffffffffffffffffffffffffffffffff168152602001600015158152506006600060048152602001908152602001600020600082015181600001908162000a1d9190620023c8565b50602082015181600101908162000a359190620023c8565b5060408201518160020155606082015181600301908162000a579190620023c8565b50608082015181600401908162000a6f9190620023c8565b5060a08201518160050160006101000a81548173ffffffffffffffffffffffffffffffffffffffff021916908373ffffffffffffffffffffffffffffffffffffffff16021790555060c08201518160050160146101000a81548160ff0219169083151502179055509050506040518060e001604052806040518060400160405280600581526020017f456c76696100000000000000000000000000000000000000000000000000000081525081526020016040518060400160405280601a81526020017f696d616765732f6672656e63682d62756c6c646f672e6a7065670000000000008152508152602001600381526020016040518060400160405280600e81526020017f4672656e63682042756c6c646f6700000000000000000000000000000000000081525081526020016040518060400160405280601381526020017f496e6e7362726f6f6b2c20496c6c696e6f6973000000000000000000000000008152508152602001600073ffffffffffffffffffffffffffffffffffffffff168152602001600015158152506006600060058152602001908152602001600020600082015181600001908162000c279190620023c8565b50602082015181600101908162000c3f9190620023c8565b5060408201518160020155606082015181600301908162000c619190620023c8565b50608082015181600401908162000c799190620023c8565b5060a08201518160050160006101000a81548173ffffffffffffffffffffffffffffffffffffffff021916908373ffffffffffffffffffffffffffffffffffffffff16021790555060c08201518160050160146101000a81548160ff0219169083151502179055509050506040518060e001604052806040518060400160405280600781526020017f4c6174697368610000000000000000000000000000000000000000000000000081525081526020016040518060400160405280601c81526020017f696d616765732f676f6c64656e2d7265747269657665722e6a706567000000008152508152602001600381526020016040518060400160405280601081526020017f476f6c64656e205265747269657665720000000000000000000000000000000081525081526020016040518060400160405280601181526020017f536f7564616e2c204c6f75697369616e610000000000000000000000000000008152508152602001600073ffffffffffffffffffffffffffffffffffffffff168152602001600015158152506006600060068152602001908152602001600020600082015181600001908162000e319190620023c8565b50602082015181600101908162000e499190620023c8565b5060408201518160020155606082015181600301908162000e6b9190620023c8565b50608082015181600401908162000e839190620023c8565b5060a08201518160050160006101000a81548173ffffffffffffffffffffffffffffffffffffffff021916908373ffffffffffffffffffffffffffffffffffffffff16021790555060c08201518160050160146101000a81548160ff0219169083151502179055509050506040518060e001604052806040518060400160405280600781526020017f436f6c656d616e0000000000000000000000000000000000000000000000000081525081526020016040518060400160405280601c81526020017f696d616765732f676f6c64656e2d7265747269657665722e6a706567000000008152508152602001600381526020016040518060400160405280601081526020017f476f6c64656e205265747269657665720000000000000000000000000000000081525081526020016040518060400160405280601281526020017f4a61636b736f6e77616c642c2050616c617500000000000000000000000000008152508152602001600073ffffffffffffffffffffffffffffffffffffffff16815260200160001515815250600660006007815260200190815260200160002060008201518160000190816200103b9190620023c8565b506020820151816001019081620010539190620023c8565b50604082015181600201556060820151816003019081620010759190620023c8565b5060808201518160040190816200108d9190620023c8565b5060a08201518160050160006101000a81548173ffffffffffffffffffffffffffffffffffffffff021916908373ffffffffffffffffffffffffffffffffffffffff16021790555060c08201518160050160146101000a81548160ff0219169083151502179055509050506040518060e001604052806040518060400160405280600781526020017f4e6963686f6c650000000000000000000000000000000000000000000000000081525081526020016040518060400160405280601a81526020017f696d616765732f6672656e63682d62756c6c646f672e6a7065670000000000008152508152602001600281526020016040518060400160405280600e81526020017f4672656e63682042756c6c646f6700000000000000000000000000000000000081525081526020016040518060400160405280601081526020017f486f6e6f6c756c752c20486177616969000000000000000000000000000000008152508152602001600073ffffffffffffffffffffffffffffffffffffffff1681526020016000151581525060066000600881526020019081526020016000206000820151816000019081620012459190620023c8565b5060208201518160010190816200125d9190620023c8565b506040820151816002015560608201518160030190816200127f9190620023c8565b506080820151816004019081620012979190620023c8565b5060a08201518160050160006101000a81548173ffffffffffffffffffffffffffffffffffffffff021916908373ffffffffffffffffffffffffffffffffffffffff16021790555060c08201518160050160146101000a81548160ff0219169083151502179055509050506040518060e001604052806040518060400160405280600481526020017f4672616e0000000000000000000000000000000000000000000000000000000081525081526020016040518060400160405280601181526020017f696d616765732f626f7865722e6a7065670000000000000000000000000000008152508152602001600381526020016040518060400160405280600581526020017f426f78657200000000000000000000000000000000000000000000000000000081525081526020016040518060400160405280600d81526020017f4d617468656e792c2055746168000000000000000000000000000000000000008152508152602001600073ffffffffffffffffffffffffffffffffffffffff16815260200160001515815250600660006009815260200190815260200160002060008201518160000190816200144f9190620023c8565b506020820151816001019081620014679190620023c8565b50604082015181600201556060820151816003019081620014899190620023c8565b506080820151816004019081620014a19190620023c8565b5060a08201518160050160006101000a81548173ffffffffffffffffffffffffffffffffffffffff021916908373ffffffffffffffffffffffffffffffffffffffff16021790555060c08201518160050160146101000a81548160ff0219169083151502179055509050506040518060e001604052806040518060400160405280600681526020017f4c656f6e6f72000000000000000000000000000000000000000000000000000081525081526020016040518060400160405280601181526020017f696d616765732f626f7865722e6a7065670000000000000000000000000000008152508152602001600281526020016040518060400160405280600581526020017f426f78657200000000000000000000000000000000000000000000000000000081525081526020016040518060400160405280600e81526020017f54796865652c20496e6469616e610000000000000000000000000000000000008152508152602001600073ffffffffffffffffffffffffffffffffffffffff1681526020016000151581525060066000600a81526020019081526020016000206000820151816000019081620016599190620023c8565b506020820151816001019081620016719190620023c8565b50604082015181600201556060820151816003019081620016939190620023c8565b506080820151816004019081620016ab9190620023c8565b5060a08201518160050160006101000a81548173ffffffffffffffffffffffffffffffffffffffff021916908373ffffffffffffffffffffffffffffffffffffffff16021790555060c08201518160050160146101000a81548160ff0219169083151502179055509050506040518060e001604052806040518060400160405280600481526020017f4465616e0000000000000000000000000000000000000000000000000000000081525081526020016040518060400160405280601c81526020017f696d616765732f73636f74746973682d746572726965722e6a706567000000008152508152602001600381526020016040518060400160405280601081526020017f53636f747469736820546572726965720000000000000000000000000000000081525081526020016040518060400160405280601081526020017f57696e64736f722c204d6f6e74616e61000000000000000000000000000000008152508152602001600073ffffffffffffffffffffffffffffffffffffffff1681526020016000151581525060066000600b81526020019081526020016000206000820151816000019081620018639190620023c8565b5060208201518160010190816200187b9190620023c8565b506040820151816002015560608201518160030190816200189d9190620023c8565b506080820151816004019081620018b59190620023c8565b5060a08201518160050160006101000a81548173ffffffffffffffffffffffffffffffffffffffff021916908373ffffffffffffffffffffffffffffffffffffffff16021790555060c08201518160050160146101000a81548160ff0219169083151502179055509050506040518060e001604052806040518060400160405280600981526020017f53746576656e736f6e000000000000000000000000000000000000000000000081525081526020016040518060400160405280601a81526020017f696d616765732f6672656e63682d62756c6c646f672e6a7065670000000000008152508152602001600381526020016040518060400160405280600e81526020017f4672656e63682042756c6c646f6700000000000000000000000000000000000081525081526020016040518060400160405280601281526020017f4b696e6773746f776e652c204e657661646100000000000000000000000000008152508152602001600073ffffffffffffffffffffffffffffffffffffffff1681526020016000151581525060066000600c8152602001908152602001600020600082015181600001908162001a6d9190620023c8565b50602082015181600101908162001a859190620023c8565b5060408201518160020155606082015181600301908162001aa79190620023c8565b50608082015181600401908162001abf9190620023c8565b5060a08201518160050160006101000a81548173ffffffffffffffffffffffffffffffffffffffff021916908373ffffffffffffffffffffffffffffffffffffffff16021790555060c08201518160050160146101000a81548160ff0219169083151502179055509050506040518060e001604052806040518060400160405280600881526020017f4b72697374696e6100000000000000000000000000000000000000000000000081525081526020016040518060400160405280601c81526020017f696d616765732f676f6c64656e2d7265747269657665722e6a706567000000008152508152602001600481526020016040518060400160405280601081526020017f476f6c64656e205265747269657665720000000000000000000000000000000081525081526020016040518060400160405280601681526020017f53756c74616e612c204d617373616368757365747473000000000000000000008152508152602001600073ffffffffffffffffffffffffffffffffffffffff1681526020016000151581525060066000600d8152602001908152602001600020600082015181600001908162001c779190620023c8565b50602082015181600101908162001c8f9190620023c8565b5060408201518160020155606082015181600301908162001cb19190620023c8565b50608082015181600401908162001cc99190620023c8565b5060a08201518160050160006101000a81548173ffffffffffffffffffffffffffffffffffffffff021916908373ffffffffffffffffffffffffffffffffffffffff16021790555060c08201518160050160146101000a81548160ff0219169083151502179055509050506040518060e001604052806040518060400160405280600581526020017f457468656c00000000000000000000000000000000000000000000000000000081525081526020016040518060400160405280601c81526020017f696d616765732f676f6c64656e2d7265747269657665722e6a706567000000008152508152602001600281526020016040518060400160405280601081526020017f476f6c64656e205265747269657665720000000000000000000000000000000081525081526020016040518060400160405280601281526020017f42726f61646c616e64732c204f7265676f6e00000000000000000000000000008152508152602001600073ffffffffffffffffffffffffffffffffffffffff1681526020016000151581525060066000600e8152602001908152602001600020600082015181600001908162001e819190620023c8565b50602082015181600101908162001e999190620023c8565b5060408201518160020155606082015181600301908162001ebb9190620023c8565b50608082015181600401908162001ed39190620023c8565b5060a08201518160050160006101000a81548173ffffffffffffffffffffffffffffffffffffffff021916908373ffffffffffffffffffffffffffffffffffffffff16021790555060c08201518160050160146101000a81548160ff0219169083151502179055509050506040518060e001604052806040518060400160405280600581526020017f546572727900000000000000000000000000000000000000000000000000000081525081526020016040518060400160405280601c81526020017f696d616765732f676f6c64656e2d7265747269657665722e6a706567000000008152508152602001600281526020016040518060400160405280601081526020017f476f6c64656e205265747269657665720000000000000000000000000000000081525081526020016040518060400160405280600f81526020017f4461776e2c20576973636f6e73696e00000000000000000000000000000000008152508152602001600073ffffffffffffffffffffffffffffffffffffffff1681526020016000151581525060066000600f815260200190815260200160002060008201518160000190816200208b9190620023c8565b506020820151816001019081620020a39190620023c8565b50604082015181600201556060820151816003019081620020c59190620023c8565b506080820151816004019081620020dd9190620023c8565b5060a08201518160050160006101000a81548173ffffffffffffffffffffffffffffffffffffffff021916908373ffffffffffffffffffffffffffffffffffffffff16021790555060c08201518160050160146101000a81548160ff021916908315150217905550905050620024af565b600081519050919050565b7f4e487b7100000000000000000000000000000000000000000000000000000000600052604160045260246000fd5b7f4e487b7100000000000000000000000000000000000000000000000000000000600052602260045260246000fd5b60006002820490506001821680620021d057607f821691505b602082108103620021e657620021e562002188565b5b50919050565b60008190508160005260206000209050919050565b60006020601f8301049050919050565b600082821b905092915050565b600060088302620022507fffffffffffffffffffffffffffffffffffffffffffffffffffffffffffffffff8262002211565b6200225c868362002211565b95508019841693508086168417925050509392505050565b6000819050919050565b6000819050919050565b6000620022a9620022a36200229d8462002274565b6200227e565b62002274565b9050919050565b6000819050919050565b620022c58362002288565b620022dd620022d482620022b0565b8484546200221e565b825550505050565b600090565b620022f4620022e5565b62002301818484620022ba565b505050565b5b8181101562002329576200231d600082620022ea565b60018101905062002307565b5050565b601f82111562002378576200234281620021ec565b6200234d8462002201565b810160208510156200235d578190505b620023756200236c8562002201565b83018262002306565b50505b505050565b600082821c905092915050565b60006200239d600019846008026200237d565b1980831691505092915050565b6000620023b883836200238a565b9150826002028217905092915050565b620023d3826200214e565b67ffffffffffffffff811115620023ef57620023ee62002159565b5b620023fb8254620021b7565b620024088282856200232d565b600060209050601f8311600181146200244057600084156200242b578287015190505b620024378582620023aa565b865550620024a7565b601f1984166200245086620021ec565b60005b828110156200247a5784890151825560018201915060208501945060208101905062002453565b868310156200249a578489015162002496601f8916826200238a565b8355505b6001600288020188555050505b505050505050565b61473d80620024bf6000396000f3fe60806040526004361061014f5760003560e01c806370a08231116100b6578063b88d4fde1161006f578063b88d4fde146104be578063c87b56dd146104e7578063cd619f5814610524578063cfb869bf1461054f578063d9d6165514610592578063e985e9c5146105cf57610156565b806370a082311461037c57806381b33b80146103b957806395d89b41146103fc578063a22cb46514610427578063a87d942c14610450578063b2d0437d1461047b57610156565b806320ec87071161010857806320ec87071461025e57806323b872dd1461028757806328b60031146102b057806342842e0e146102ed5780634b57241d146103165780636352211e1461033f57610156565b806301ffc9a71461015857806306fdde0314610195578063081812fc146101c0578063095ea7b3146101fd57806319b81577146102265780631a083ddc1461024257610156565b3661015657005b005b34801561016457600080fd5b5061017f600480360381019061017a9190612dde565b61060c565b60405161018c9190612e26565b60405180910390f35b3480156101a157600080fd5b506101aa6106ee565b6040516101b79190612ed1565b60405180910390f35b3480156101cc57600080fd5b506101e760048036038101906101e29190612f29565b610780565b6040516101f49190612f97565b60405180910390f35b34801561020957600080fd5b50610224600480360381019061021f9190612fde565b610805565b005b610240600480360381019061023b9190612f29565b61091c565b005b61025c60048036038101906102579190612f29565b610b14565b005b34801561026a57600080fd5b5061028560048036038101906102809190613153565b610d85565b005b34801561029357600080fd5b506102ae60048036038101906102a9919061320e565b610f44565b005b3480156102bc57600080fd5b506102d760048036038101906102d29190612fde565b610fa4565b6040516102e49190613270565b60405180910390f35b3480156102f957600080fd5b50610314600480360381019061030f919061320e565b610fd5565b005b34801561032257600080fd5b5061033d60048036038101906103389190612f29565b610ff5565b005b34801561034b57600080fd5b5061036660048036038101906103619190612f29565b6112d2565b6040516103739190612f97565b60405180910390f35b34801561038857600080fd5b506103a3600480360381019061039e919061328b565b611383565b6040516103b09190613270565b60405180910390f35b3480156103c557600080fd5b506103e060048036038101906103db9190612f29565b61143a565b6040516103f397969594939291906132b8565b60405180910390f35b34801561040857600080fd5b5061041161172a565b60405161041e9190612ed1565b60405180910390f35b34801561043357600080fd5b5061044e6004803603810190610449919061336f565b6117bc565b005b34801561045c57600080fd5b506104656117d2565b6040516104729190613270565b60405180910390f35b34801561048757600080fd5b506104a2600480360381019061049d9190612f29565b6117dc565b6040516104b597969594939291906132b8565b60405180910390f35b3480156104ca57600080fd5b506104e560048036038101906104e09190613450565b611afa565b005b3480156104f357600080fd5b5061050e60048036038101906105099190612f29565b611b5c565b60405161051b9190612ed1565b60405180910390f35b34801561053057600080fd5b50610539611c03565b6040516105469190613270565b60405180910390f35b34801561055b57600080fd5b5061057660048036038101906105719190612f29565b611c09565b60405161058997969594939291906134f4565b60405180910390f35b34801561059e57600080fd5b506105b960048036038101906105b4919061328b565b611e98565b6040516105c6919061363d565b60405180910390f35b3480156105db57600080fd5b506105f660048036038101906105f1919061365f565b611f2f565b6040516106039190612e26565b60405180910390f35b60007f80ac58cd000000000000000000000000000000000000000000000000000000007bffffffffffffffffffffffffffffffffffffffffffffffffffffffff1916827bffffffffffffffffffffffffffffffffffffffffffffffffffffffff191614806106d757507f5b5e139f000000000000000000000000000000000000000000000000000000007bffffffffffffffffffffffffffffffffffffffffffffffffffffffff1916827bffffffffffffffffffffffffffffffffffffffffffffffffffffffff1916145b806106e757506106e682611fc3565b5b9050919050565b6060600080546106fd906136ce565b80601f0160208091040260200160405190810160405280929190818152602001828054610729906136ce565b80156107765780601f1061074b57610100808354040283529160200191610776565b820191906000526020600020905b81548152906001019060200180831161075957829003601f168201915b5050505050905090565b600061078b8261202d565b6107ca576040517f08c379a00000000000000000000000000000000000000000000000000000000081526004016107c190613771565b60405180910390fd5b6004600083815260200190815260200160002060009054906101000a900473ffffffffffffffffffffffffffffffffffffffff169050919050565b6000610810826112d2565b90508073ffffffffffffffffffffffffffffffffffffffff168373ffffffffffffffffffffffffffffffffffffffff1603610880576040517f08c379a000000000000000000000000000000000000000000000000000000000815260040161087790613803565b60405180910390fd5b8073ffffffffffffffffffffffffffffffffffffffff1661089f612099565b73ffffffffffffffffffffffffffffffffffffffff1614806108ce57506108cd816108c8612099565b611f2f565b5b61090d576040517f08c379a000000000000000000000000000000000000000000000000000000000815260040161090490613895565b60405180910390fd5b61091783836120a1565b505050565b6006600082815260200190815260200160002060050160149054906101000a900460ff1615610980576040517f08c379a000000000000000000000000000000000000000000000000000000000815260040161097790613901565b60405180910390fd5b6006600082815260200190815260200160002060050160009054906101000a900473ffffffffffffffffffffffffffffffffffffffff1673ffffffffffffffffffffffffffffffffffffffff166108fc60066000848152602001908152602001600020600201549081150290604051600060405180830381858888f19350505050158015610a12573d6000803e3d6000fd5b50336006600083815260200190815260200160002060050160006101000a81548173ffffffffffffffffffffffffffffffffffffffff021916908373ffffffffffffffffffffffffffffffffffffffff160217905550610a72338261215a565b600760003373ffffffffffffffffffffffffffffffffffffffff1673ffffffffffffffffffffffffffffffffffffffff1681526020019081526020016000208190806001815401808255809150506001900390600052602060002001600090919091909150557faa2d40dd3b943f6c2f61c88fa64ea4eb2b19ea7399bdf0f1351ef2ce22ff9db08133604051610b09929190613921565b60405180910390a150565b67016345785d8a0000341015610b5f576040517f08c379a0000000000000000000000000000000000000000000000000000000008152600401610b5690613996565b60405180910390fd5b6006600082815260200190815260200160002060050160149054906101000a900460ff16610bc2576040517f08c379a0000000000000000000000000000000000000000000000000000000008152600401610bb990613a02565b60405180910390fd5b6006600082815260200190815260200160002060050160009054906101000a900473ffffffffffffffffffffffffffffffffffffffff1673ffffffffffffffffffffffffffffffffffffffff166108fc60066000848152602001908152602001600020600201549081150290604051600060405180830381858888f19350505050158015610c54573d6000803e3d6000fd5b5060006006600083815260200190815260200160002060050160146101000a81548160ff021916908315150217905550336006600083815260200190815260200160002060050160006101000a81548173ffffffffffffffffffffffffffffffffffffffff021916908373ffffffffffffffffffffffffffffffffffffffff160217905550610ce3338261215a565b600760003373ffffffffffffffffffffffffffffffffffffffff1673ffffffffffffffffffffffffffffffffffffffff1681526020019081526020016000208190806001815401808255809150506001900390600052602060002001600090919091909150557faa2d40dd3b943f6c2f61c88fa64ea4eb2b19ea7399bdf0f1351ef2ce22ff9db08133604051610d7a929190613921565b60405180910390a150565b600060085490506001600854610d9b9190613a51565b6008819055506040518060e001604052808681526020016040518060400160405280601181526020017f696d616765732f626f7865722e6a7065670000000000000000000000000000008152508152602001848152602001838152602001858152602001600073ffffffffffffffffffffffffffffffffffffffff16815260200160001515815250600660008381526020019081526020016000206000820151816000019081610e4b9190613c31565b506020820151816001019081610e619190613c31565b50604082015181600201556060820151816003019081610e819190613c31565b506080820151816004019081610e979190613c31565b5060a08201518160050160006101000a81548173ffffffffffffffffffffffffffffffffffffffff021916908373ffffffffffffffffffffffffffffffffffffffff16021790555060c08201518160050160146101000a81548160ff0219169083151502179055509050507f90c9154ca1209ec02728dc0f8dbe66bcebb0d277ecf13fb44fcb3bff76b1ca2a818633604051610f3593929190613d03565b60405180910390a15050505050565b610f55610f4f612099565b82612333565b610f94576040517f08c379a0000000000000000000000000000000000000000000000000000000008152600401610f8b90613db3565b60405180910390fd5b610f9f838383612411565b505050565b60076020528160005260406000208181548110610fc057600080fd5b90600052602060002001600091509150505481565b610ff083838360405180602001604052806000815250611afa565b505050565b3373ffffffffffffffffffffffffffffffffffffffff166006600083815260200190815260200160002060050160009054906101000a900473ffffffffffffffffffffffffffffffffffffffff1673ffffffffffffffffffffffffffffffffffffffff1614611099576040517f08c379a000000000000000000000000000000000000000000000000000000000815260040161109090613e1f565b60405180910390fd5b6110a33382612677565b6110e2576040517f08c379a00000000000000000000000000000000000000000000000000000000081526004016110d990613e8b565b60405180910390fd5b3373ffffffffffffffffffffffffffffffffffffffff16611102826112d2565b73ffffffffffffffffffffffffffffffffffffffff1614611158576040517f08c379a000000000000000000000000000000000000000000000000000000000815260040161114f90613ef7565b60405180910390fd5b61116181612762565b60016006600083815260200190815260200160002060050160146101000a81548160ff0219169083151502179055506000600760003373ffffffffffffffffffffffffffffffffffffffff1673ffffffffffffffffffffffffffffffffffffffff168152602001908152602001600020905060005b818054905081101561129457828282815481106111f6576111f5613f17565b5b9060005260206000200154036112815781600183805490506112189190613f46565b8154811061122957611228613f17565b5b906000526020600020015482828154811061124757611246613f17565b5b90600052602060002001819055508180548061126657611265613f7a565b5b60019003818190600052602060002001600090559055611294565b808061128c90613fa9565b9150506111d6565b507f63354d309b088421e22d1f307fd88e9e13eb3f889ca194ef0299fc1ffcced8fa82336040516112c6929190613921565b60405180910390a15050565b6000806002600084815260200190815260200160002060009054906101000a900473ffffffffffffffffffffffffffffffffffffffff169050600073ffffffffffffffffffffffffffffffffffffffff168173ffffffffffffffffffffffffffffffffffffffff160361137a576040517f08c379a000000000000000000000000000000000000000000000000000000000815260040161137190614063565b60405180910390fd5b80915050919050565b60008073ffffffffffffffffffffffffffffffffffffffff168273ffffffffffffffffffffffffffffffffffffffff16036113f3576040517f08c379a00000000000000000000000000000000000000000000000000000000081526004016113ea906140f5565b60405180910390fd5b600360008373ffffffffffffffffffffffffffffffffffffffff1673ffffffffffffffffffffffffffffffffffffffff168152602001908152602001600020549050919050565b606080600080600060608060066000898152602001908152602001600020600001600660008a8152602001908152602001600020600401600660008b815260200190815260200160002060020154600660008c815260200190815260200160002060050160149054906101000a900460ff166114b58c6112d2565b600660008e8152602001908152602001600020600101600660008f81526020019081526020016000206003018680546114ed906136ce565b80601f0160208091040260200160405190810160405280929190818152602001828054611519906136ce565b80156115665780601f1061153b57610100808354040283529160200191611566565b820191906000526020600020905b81548152906001019060200180831161154957829003601f168201915b50505050509650858054611579906136ce565b80601f01602080910402602001604051908101604052809291908181526020018280546115a5906136ce565b80156115f25780601f106115c7576101008083540402835291602001916115f2565b820191906000526020600020905b8154815290600101906020018083116115d557829003601f168201915b50505050509550818054611605906136ce565b80601f0160208091040260200160405190810160405280929190818152602001828054611631906136ce565b801561167e5780601f106116535761010080835404028352916020019161167e565b820191906000526020600020905b81548152906001019060200180831161166157829003601f168201915b50505050509150808054611691906136ce565b80601f01602080910402602001604051908101604052809291908181526020018280546116bd906136ce565b801561170a5780601f106116df5761010080835404028352916020019161170a565b820191906000526020600020905b8154815290600101906020018083116116ed57829003601f168201915b505050505090509650965096509650965096509650919395979092949650565b606060018054611739906136ce565b80601f0160208091040260200160405190810160405280929190818152602001828054611765906136ce565b80156117b25780601f10611787576101008083540402835291602001916117b2565b820191906000526020600020905b81548152906001019060200180831161179557829003601f168201915b5050505050905090565b6117ce6117c7612099565b838361287f565b5050565b6000600854905090565b606080600080600060608060066000898152602001908152602001600020600001600660008a8152602001908152602001600020600401600660008b815260200190815260200160002060020154600660008c815260200190815260200160002060050160149054906101000a900460ff16600660008d815260200190815260200160002060050160009054906101000a900473ffffffffffffffffffffffffffffffffffffffff16600660008e8152602001908152602001600020600101600660008f81526020019081526020016000206003018680546118bd906136ce565b80601f01602080910402602001604051908101604052809291908181526020018280546118e9906136ce565b80156119365780601f1061190b57610100808354040283529160200191611936565b820191906000526020600020905b81548152906001019060200180831161191957829003601f168201915b50505050509650858054611949906136ce565b80601f0160208091040260200160405190810160405280929190818152602001828054611975906136ce565b80156119c25780601f10611997576101008083540402835291602001916119c2565b820191906000526020600020905b8154815290600101906020018083116119a557829003601f168201915b505050505095508180546119d5906136ce565b80601f0160208091040260200160405190810160405280929190818152602001828054611a01906136ce565b8015611a4e5780601f10611a2357610100808354040283529160200191611a4e565b820191906000526020600020905b815481529060010190602001808311611a3157829003601f168201915b50505050509150808054611a61906136ce565b80601f0160208091040260200160405190810160405280929190818152602001828054611a8d906136ce565b8015611ada5780601f10611aaf57610100808354040283529160200191611ada565b820191906000526020600020905b815481529060010190602001808311611abd57829003601f168201915b505050505090509650965096509650965096509650919395979092949650565b611b0b611b05612099565b83612333565b611b4a576040517f08c379a0000000000000000000000000000000000000000000000000000000008152600401611b4190613db3565b60405180910390fd5b611b56848484846129eb565b50505050565b6060611b678261202d565b611ba6576040517f08c379a0000000000000000000000000000000000000000000000000000000008152600401611b9d90614187565b60405180910390fd5b6000611bb0612a47565b90506000815111611bd05760405180602001604052806000815250611bfb565b80611bda84612a5e565b604051602001611beb9291906141e3565b6040516020818303038152906040525b915050919050565b60085481565b6006602052806000526040600020600091509050806000018054611c2c906136ce565b80601f0160208091040260200160405190810160405280929190818152602001828054611c58906136ce565b8015611ca55780601f10611c7a57610100808354040283529160200191611ca5565b820191906000526020600020905b815481529060010190602001808311611c8857829003601f168201915b505050505090806001018054611cba906136ce565b80601f0160208091040260200160405190810160405280929190818152602001828054611ce6906136ce565b8015611d335780601f10611d0857610100808354040283529160200191611d33565b820191906000526020600020905b815481529060010190602001808311611d1657829003601f168201915b505050505090806002015490806003018054611d4e906136ce565b80601f0160208091040260200160405190810160405280929190818152602001828054611d7a906136ce565b8015611dc75780601f10611d9c57610100808354040283529160200191611dc7565b820191906000526020600020905b815481529060010190602001808311611daa57829003601f168201915b505050505090806004018054611ddc906136ce565b80601f0160208091040260200160405190810160405280929190818152602001828054611e08906136ce565b8015611e555780601f10611e2a57610100808354040283529160200191611e55565b820191906000526020600020905b815481529060010190602001808311611e3857829003601f168201915b5050505050908060050160009054906101000a900473ffffffffffffffffffffffffffffffffffffffff16908060050160149054906101000a900460ff16905087565b6060600760008373ffffffffffffffffffffffffffffffffffffffff1673ffffffffffffffffffffffffffffffffffffffff168152602001908152602001600020805480602002602001604051908101604052809291908181526020018280548015611f2357602002820191906000526020600020905b815481526020019060010190808311611f0f575b50505050509050919050565b6000600560008473ffffffffffffffffffffffffffffffffffffffff1673ffffffffffffffffffffffffffffffffffffffff16815260200190815260200160002060008373ffffffffffffffffffffffffffffffffffffffff1673ffffffffffffffffffffffffffffffffffffffff16815260200190815260200160002060009054906101000a900460ff16905092915050565b60007f01ffc9a7000000000000000000000000000000000000000000000000000000007bffffffffffffffffffffffffffffffffffffffffffffffffffffffff1916827bffffffffffffffffffffffffffffffffffffffffffffffffffffffff1916149050919050565b60008073ffffffffffffffffffffffffffffffffffffffff166002600084815260200190815260200160002060009054906101000a900473ffffffffffffffffffffffffffffffffffffffff1673ffffffffffffffffffffffffffffffffffffffff1614159050919050565b600033905090565b816004600083815260200190815260200160002060006101000a81548173ffffffffffffffffffffffffffffffffffffffff021916908373ffffffffffffffffffffffffffffffffffffffff160217905550808273ffffffffffffffffffffffffffffffffffffffff16612114836112d2565b73ffffffffffffffffffffffffffffffffffffffff167f8c5be1e5ebec7d5bd14f71427d1e84f3dd0314c0f7b2291e5b200ac8c7c3b92560405160405180910390a45050565b600073ffffffffffffffffffffffffffffffffffffffff168273ffffffffffffffffffffffffffffffffffffffff16036121c9576040517f08c379a00000000000000000000000000000000000000000000000000000000081526004016121c090614253565b60405180910390fd5b6121d28161202d565b15612212576040517f08c379a0000000000000000000000000000000000000000000000000000000008152600401612209906142bf565b60405180910390fd5b61221e60008383612bbe565b6001600360008473ffffffffffffffffffffffffffffffffffffffff1673ffffffffffffffffffffffffffffffffffffffff168152602001908152602001600020600082825461226e9190613a51565b92505081905550816002600083815260200190815260200160002060006101000a81548173ffffffffffffffffffffffffffffffffffffffff021916908373ffffffffffffffffffffffffffffffffffffffff160217905550808273ffffffffffffffffffffffffffffffffffffffff16600073ffffffffffffffffffffffffffffffffffffffff167fddf252ad1be2c89b69c2b068fc378daa952ba7f163c4a11628f55a4df523b3ef60405160405180910390a461232f60008383612bc3565b5050565b600061233e8261202d565b61237d576040517f08c379a000000000000000000000000000000000000000000000000000000000815260040161237490614351565b60405180910390fd5b6000612388836112d2565b90508073ffffffffffffffffffffffffffffffffffffffff168473ffffffffffffffffffffffffffffffffffffffff1614806123f757508373ffffffffffffffffffffffffffffffffffffffff166123df84610780565b73ffffffffffffffffffffffffffffffffffffffff16145b8061240857506124078185611f2f565b5b91505092915050565b8273ffffffffffffffffffffffffffffffffffffffff16612431826112d2565b73ffffffffffffffffffffffffffffffffffffffff1614612487576040517f08c379a000000000000000000000000000000000000000000000000000000000815260040161247e906143e3565b60405180910390fd5b600073ffffffffffffffffffffffffffffffffffffffff168273ffffffffffffffffffffffffffffffffffffffff16036124f6576040517f08c379a00000000000000000000000000000000000000000000000000000000081526004016124ed90614475565b60405180910390fd5b612501838383612bbe565b61250c6000826120a1565b6001600360008573ffffffffffffffffffffffffffffffffffffffff1673ffffffffffffffffffffffffffffffffffffffff168152602001908152602001600020600082825461255c9190613f46565b925050819055506001600360008473ffffffffffffffffffffffffffffffffffffffff1673ffffffffffffffffffffffffffffffffffffffff16815260200190815260200160002060008282546125b39190613a51565b92505081905550816002600083815260200190815260200160002060006101000a81548173ffffffffffffffffffffffffffffffffffffffff021916908373ffffffffffffffffffffffffffffffffffffffff160217905550808273ffffffffffffffffffffffffffffffffffffffff168473ffffffffffffffffffffffffffffffffffffffff167fddf252ad1be2c89b69c2b068fc378daa952ba7f163c4a11628f55a4df523b3ef60405160405180910390a4612672838383612bc3565b505050565b600080600760008573ffffffffffffffffffffffffffffffffffffffff1673ffffffffffffffffffffffffffffffffffffffff16815260200190815260200160002080548060200260200160405190810160405280929190818152602001828054801561270357602002820191906000526020600020905b8154815260200190600101908083116126ef575b5050505050905060005b8151811015612755578382828151811061272a57612729613f17565b5b6020026020010151036127425760019250505061275c565b808061274d90613fa9565b91505061270d565b5060009150505b92915050565b600061276d826112d2565b905061277b81600084612bbe565b6127866000836120a1565b6001600360008373ffffffffffffffffffffffffffffffffffffffff1673ffffffffffffffffffffffffffffffffffffffff16815260200190815260200160002060008282546127d69190613f46565b925050819055506002600083815260200190815260200160002060006101000a81549073ffffffffffffffffffffffffffffffffffffffff021916905581600073ffffffffffffffffffffffffffffffffffffffff168273ffffffffffffffffffffffffffffffffffffffff167fddf252ad1be2c89b69c2b068fc378daa952ba7f163c4a11628f55a4df523b3ef60405160405180910390a461287b81600084612bc3565b5050565b8173ffffffffffffffffffffffffffffffffffffffff168373ffffffffffffffffffffffffffffffffffffffff16036128ed576040517f08c379a00000000000000000000000000000000000000000000000000000000081526004016128e4906144e1565b60405180910390fd5b80600560008573ffffffffffffffffffffffffffffffffffffffff1673ffffffffffffffffffffffffffffffffffffffff16815260200190815260200160002060008473ffffffffffffffffffffffffffffffffffffffff1673ffffffffffffffffffffffffffffffffffffffff16815260200190815260200160002060006101000a81548160ff0219169083151502179055508173ffffffffffffffffffffffffffffffffffffffff168373ffffffffffffffffffffffffffffffffffffffff167f17307eab39ab6107e8899845ad3d59bd9653f200f220920489ca2b5937696c31836040516129de9190612e26565b60405180910390a3505050565b6129f6848484612411565b612a0284848484612bc8565b612a41576040517f08c379a0000000000000000000000000000000000000000000000000000000008152600401612a3890614573565b60405180910390fd5b50505050565b606060405180602001604052806000815250905090565b606060008203612aa5576040518060400160405280600181526020017f30000000000000000000000000000000000000000000000000000000000000008152509050612bb9565b600082905060005b60008214612ad7578080612ac090613fa9565b915050600a82612ad091906145c2565b9150612aad565b60008167ffffffffffffffff811115612af357612af2613028565b5b6040519080825280601f01601f191660200182016040528015612b255781602001600182028036833780820191505090505b5090505b60008514612bb257600182612b3e9190613f46565b9150600a85612b4d91906145f3565b6030612b599190613a51565b60f81b818381518110612b6f57612b6e613f17565b5b60200101907effffffffffffffffffffffffffffffffffffffffffffffffffffffffffffff1916908160001a905350600a85612bab91906145c2565b9450612b29565b8093505050505b919050565b505050565b505050565b6000612be98473ffffffffffffffffffffffffffffffffffffffff16612d4f565b15612d42578373ffffffffffffffffffffffffffffffffffffffff1663150b7a02612c12612099565b8786866040518563ffffffff1660e01b8152600401612c349493929190614679565b6020604051808303816000875af1925050508015612c7057506040513d601f19601f82011682018060405250810190612c6d91906146da565b60015b612cf2573d8060008114612ca0576040519150601f19603f3d011682016040523d82523d6000602084013e612ca5565b606091505b506000815103612cea576040517f08c379a0000000000000000000000000000000000000000000000000000000008152600401612ce190614573565b60405180910390fd5b805181602001fd5b63150b7a0260e01b7bffffffffffffffffffffffffffffffffffffffffffffffffffffffff1916817bffffffffffffffffffffffffffffffffffffffffffffffffffffffff191614915050612d47565b600190505b949350505050565b6000808273ffffffffffffffffffffffffffffffffffffffff163b119050919050565b6000604051905090565b600080fd5b600080fd5b60007fffffffff0000000000000000000000000000000000000000000000000000000082169050919050565b612dbb81612d86565b8114612dc657600080fd5b50565b600081359050612dd881612db2565b92915050565b600060208284031215612df457612df3612d7c565b5b6000612e0284828501612dc9565b91505092915050565b60008115159050919050565b612e2081612e0b565b82525050565b6000602082019050612e3b6000830184612e17565b92915050565b600081519050919050565b600082825260208201905092915050565b60005b83811015612e7b578082015181840152602081019050612e60565b60008484015250505050565b6000601f19601f8301169050919050565b6000612ea382612e41565b612ead8185612e4c565b9350612ebd818560208601612e5d565b612ec681612e87565b840191505092915050565b60006020820190508181036000830152612eeb8184612e98565b905092915050565b6000819050919050565b612f0681612ef3565b8114612f1157600080fd5b50565b600081359050612f2381612efd565b92915050565b600060208284031215612f3f57612f3e612d7c565b5b6000612f4d84828501612f14565b91505092915050565b600073ffffffffffffffffffffffffffffffffffffffff82169050919050565b6000612f8182612f56565b9050919050565b612f9181612f76565b82525050565b6000602082019050612fac6000830184612f88565b92915050565b612fbb81612f76565b8114612fc657600080fd5b50565b600081359050612fd881612fb2565b92915050565b60008060408385031215612ff557612ff4612d7c565b5b600061300385828601612fc9565b925050602061301485828601612f14565b9150509250929050565b600080fd5b600080fd5b7f4e487b7100000000000000000000000000000000000000000000000000000000600052604160045260246000fd5b61306082612e87565b810181811067ffffffffffffffff8211171561307f5761307e613028565b5b80604052505050565b6000613092612d72565b905061309e8282613057565b919050565b600067ffffffffffffffff8211156130be576130bd613028565b5b6130c782612e87565b9050602081019050919050565b82818337600083830152505050565b60006130f66130f1846130a3565b613088565b90508281526020810184848401111561311257613111613023565b5b61311d8482856130d4565b509392505050565b600082601f83011261313a5761313961301e565b5b813561314a8482602086016130e3565b91505092915050565b6000806000806080858703121561316d5761316c612d7c565b5b600085013567ffffffffffffffff81111561318b5761318a612d81565b5b61319787828801613125565b945050602085013567ffffffffffffffff8111156131b8576131b7612d81565b5b6131c487828801613125565b93505060406131d587828801612f14565b925050606085013567ffffffffffffffff8111156131f6576131f5612d81565b5b61320287828801613125565b91505092959194509250565b60008060006060848603121561322757613226612d7c565b5b600061323586828701612fc9565b935050602061324686828701612fc9565b925050604061325786828701612f14565b9150509250925092565b61326a81612ef3565b82525050565b60006020820190506132856000830184613261565b92915050565b6000602082840312156132a1576132a0612d7c565b5b60006132af84828501612fc9565b91505092915050565b600060e08201905081810360008301526132d2818a612e98565b905081810360208301526132e68189612e98565b90506132f56040830188613261565b6133026060830187612e17565b61330f6080830186612f88565b81810360a08301526133218185612e98565b905081810360c08301526133358184612e98565b905098975050505050505050565b61334c81612e0b565b811461335757600080fd5b50565b60008135905061336981613343565b92915050565b6000806040838503121561338657613385612d7c565b5b600061339485828601612fc9565b92505060206133a58582860161335a565b9150509250929050565b600067ffffffffffffffff8211156133ca576133c9613028565b5b6133d382612e87565b9050602081019050919050565b60006133f36133ee846133af565b613088565b90508281526020810184848401111561340f5761340e613023565b5b61341a8482856130d4565b509392505050565b600082601f8301126134375761343661301e565b5b81356134478482602086016133e0565b91505092915050565b6000806000806080858703121561346a57613469612d7c565b5b600061347887828801612fc9565b945050602061348987828801612fc9565b935050604061349a87828801612f14565b925050606085013567ffffffffffffffff8111156134bb576134ba612d81565b5b6134c787828801613422565b91505092959194509250565b60006134de82612f56565b9050919050565b6134ee816134d3565b82525050565b600060e082019050818103600083015261350e818a612e98565b905081810360208301526135228189612e98565b90506135316040830188613261565b81810360608301526135438187612e98565b905081810360808301526135578186612e98565b905061356660a08301856134e5565b61357360c0830184612e17565b98975050505050505050565b600081519050919050565b600082825260208201905092915050565b6000819050602082019050919050565b6135b481612ef3565b82525050565b60006135c683836135ab565b60208301905092915050565b6000602082019050919050565b60006135ea8261357f565b6135f4818561358a565b93506135ff8361359b565b8060005b8381101561363057815161361788826135ba565b9750613622836135d2565b925050600181019050613603565b5085935050505092915050565b6000602082019050818103600083015261365781846135df565b905092915050565b6000806040838503121561367657613675612d7c565b5b600061368485828601612fc9565b925050602061369585828601612fc9565b9150509250929050565b7f4e487b7100000000000000000000000000000000000000000000000000000000600052602260045260246000fd5b600060028204905060018216806136e657607f821691505b6020821081036136f9576136f861369f565b5b50919050565b7f4552433732313a20617070726f76656420717565727920666f72206e6f6e657860008201527f697374656e7420746f6b656e0000000000000000000000000000000000000000602082015250565b600061375b602c83612e4c565b9150613766826136ff565b604082019050919050565b6000602082019050818103600083015261378a8161374e565b9050919050565b7f4552433732313a20617070726f76616c20746f2063757272656e74206f776e6560008201527f7200000000000000000000000000000000000000000000000000000000000000602082015250565b60006137ed602183612e4c565b91506137f882613791565b604082019050919050565b6000602082019050818103600083015261381c816137e0565b9050919050565b7f4552433732313a20617070726f76652063616c6c6572206973206e6f74206f7760008201527f6e6572206e6f7220617070726f76656420666f7220616c6c0000000000000000602082015250565b600061387f603883612e4c565b915061388a82613823565b604082019050919050565b600060208201905081810360008301526138ae81613872565b9050919050565b7f50657420616c726561647920666f722073616c65000000000000000000000000600082015250565b60006138eb601483612e4c565b91506138f6826138b5565b602082019050919050565b6000602082019050818103600083015261391a816138de565b9050919050565b60006040820190506139366000830185613261565b6139436020830184612f88565b9392505050565b7f4e6f7420656e6f7567682045746865722070726f76696465642e000000000000600082015250565b6000613980601a83612e4c565b915061398b8261394a565b602082019050919050565b600060208201905081810360008301526139af81613973565b9050919050565b7f506574206e6f7420666f722073616c6500000000000000000000000000000000600082015250565b60006139ec601083612e4c565b91506139f7826139b6565b602082019050919050565b60006020820190508181036000830152613a1b816139df565b9050919050565b7f4e487b7100000000000000000000000000000000000000000000000000000000600052601160045260246000fd5b6000613a5c82612ef3565b9150613a6783612ef3565b9250828201905080821115613a7f57613a7e613a22565b5b92915050565b60008190508160005260206000209050919050565b60006020601f8301049050919050565b600082821b905092915050565b600060088302613ae77fffffffffffffffffffffffffffffffffffffffffffffffffffffffffffffffff82613aaa565b613af18683613aaa565b95508019841693508086168417925050509392505050565b6000819050919050565b6000613b2e613b29613b2484612ef3565b613b09565b612ef3565b9050919050565b6000819050919050565b613b4883613b13565b613b5c613b5482613b35565b848454613ab7565b825550505050565b600090565b613b71613b64565b613b7c818484613b3f565b505050565b5b81811015613ba057613b95600082613b69565b600181019050613b82565b5050565b601f821115613be557613bb681613a85565b613bbf84613a9a565b81016020851015613bce578190505b613be2613bda85613a9a565b830182613b81565b50505b505050565b600082821c905092915050565b6000613c0860001984600802613bea565b1980831691505092915050565b6000613c218383613bf7565b9150826002028217905092915050565b613c3a82612e41565b67ffffffffffffffff811115613c5357613c52613028565b5b613c5d82546136ce565b613c68828285613ba4565b600060209050601f831160018114613c9b5760008415613c89578287015190505b613c938582613c15565b865550613cfb565b601f198416613ca986613a85565b60005b82811015613cd157848901518255600182019150602085019450602081019050613cac565b86831015613cee5784890151613cea601f891682613bf7565b8355505b6001600288020188555050505b505050505050565b6000606082019050613d186000830186613261565b8181036020830152613d2a8185612e98565b9050613d396040830184612f88565b949350505050565b7f4552433732313a207472616e736665722063616c6c6572206973206e6f74206f60008201527f776e6572206e6f7220617070726f766564000000000000000000000000000000602082015250565b6000613d9d603183612e4c565b9150613da882613d41565b604082019050919050565b60006020820190508181036000830152613dcc81613d90565b9050919050565b7f4e6f7420746865206f776e657200000000000000000000000000000000000000600082015250565b6000613e09600d83612e4c565b9150613e1482613dd3565b602082019050919050565b60006020820190508181036000830152613e3881613dfc565b9050919050565b7f546f6b656e206e6f74206f776e65642062792074686973206164647265737300600082015250565b6000613e75601f83612e4c565b9150613e8082613e3f565b602082019050919050565b60006020820190508181036000830152613ea481613e68565b9050919050565b7f4e6f742074686520746f6b656e206f776e657200000000000000000000000000600082015250565b6000613ee1601383612e4c565b9150613eec82613eab565b602082019050919050565b60006020820190508181036000830152613f1081613ed4565b9050919050565b7f4e487b7100000000000000000000000000000000000000000000000000000000600052603260045260246000fd5b6000613f5182612ef3565b9150613f5c83612ef3565b9250828203905081811115613f7457613f73613a22565b5b92915050565b7f4e487b7100000000000000000000000000000000000000000000000000000000600052603160045260246000fd5b6000613fb482612ef3565b91507fffffffffffffffffffffffffffffffffffffffffffffffffffffffffffffffff8203613fe657613fe5613a22565b5b600182019050919050565b7f4552433732313a206f776e657220717565727920666f72206e6f6e657869737460008201527f656e7420746f6b656e0000000000000000000000000000000000000000000000602082015250565b600061404d602983612e4c565b915061405882613ff1565b604082019050919050565b6000602082019050818103600083015261407c81614040565b9050919050565b7f4552433732313a2062616c616e636520717565727920666f7220746865207a6560008201527f726f206164647265737300000000000000000000000000000000000000000000602082015250565b60006140df602a83612e4c565b91506140ea82614083565b604082019050919050565b6000602082019050818103600083015261410e816140d2565b9050919050565b7f4552433732314d657461646174613a2055524920717565727920666f72206e6f60008201527f6e6578697374656e7420746f6b656e0000000000000000000000000000000000602082015250565b6000614171602f83612e4c565b915061417c82614115565b604082019050919050565b600060208201905081810360008301526141a081614164565b9050919050565b600081905092915050565b60006141bd82612e41565b6141c781856141a7565b93506141d7818560208601612e5d565b80840191505092915050565b60006141ef82856141b2565b91506141fb82846141b2565b91508190509392505050565b7f4552433732313a206d696e7420746f20746865207a65726f2061646472657373600082015250565b600061423d602083612e4c565b915061424882614207565b602082019050919050565b6000602082019050818103600083015261426c81614230565b9050919050565b7f4552433732313a20746f6b656e20616c7265616479206d696e74656400000000600082015250565b60006142a9601c83612e4c565b91506142b482614273565b602082019050919050565b600060208201905081810360008301526142d88161429c565b9050919050565b7f4552433732313a206f70657261746f7220717565727920666f72206e6f6e657860008201527f697374656e7420746f6b656e0000000000000000000000000000000000000000602082015250565b600061433b602c83612e4c565b9150614346826142df565b604082019050919050565b6000602082019050818103600083015261436a8161432e565b9050919050565b7f4552433732313a207472616e736665722066726f6d20696e636f72726563742060008201527f6f776e6572000000000000000000000000000000000000000000000000000000602082015250565b60006143cd602583612e4c565b91506143d882614371565b604082019050919050565b600060208201905081810360008301526143fc816143c0565b9050919050565b7f4552433732313a207472616e7366657220746f20746865207a65726f2061646460008201527f7265737300000000000000000000000000000000000000000000000000000000602082015250565b600061445f602483612e4c565b915061446a82614403565b604082019050919050565b6000602082019050818103600083015261448e81614452565b9050919050565b7f4552433732313a20617070726f766520746f2063616c6c657200000000000000600082015250565b60006144cb601983612e4c565b91506144d682614495565b602082019050919050565b600060208201905081810360008301526144fa816144be565b9050919050565b7f4552433732313a207472616e7366657220746f206e6f6e20455243373231526560008201527f63656976657220696d706c656d656e7465720000000000000000000000000000602082015250565b600061455d603283612e4c565b915061456882614501565b604082019050919050565b6000602082019050818103600083015261458c81614550565b9050919050565b7f4e487b7100000000000000000000000000000000000000000000000000000000600052601260045260246000fd5b60006145cd82612ef3565b91506145d883612ef3565b9250826145e8576145e7614593565b5b828204905092915050565b60006145fe82612ef3565b915061460983612ef3565b92508261461957614618614593565b5b828206905092915050565b600081519050919050565b600082825260208201905092915050565b600061464b82614624565b614655818561462f565b9350614665818560208601612e5d565b61466e81612e87565b840191505092915050565b600060808201905061468e6000830187612f88565b61469b6020830186612f88565b6146a86040830185613261565b81810360608301526146ba8184614640565b905095945050505050565b6000815190506146d481612db2565b92915050565b6000602082840312156146f0576146ef612d7c565b5b60006146fe848285016146c5565b9150509291505056fea26469706673582212202f920518176d5628b55b48b1355eb53b9973bc48cc47561f48e64dda53a9525364736f6c63430008130033",
  "immutableReferences": {},
  "source": "// SPDX-License-Identifier: MIT\npragma solidity ^0.8.19;\npragma experimental ABIEncoderV2;\n\nimport \"@openzeppelin/contracts/token/ERC721/ERC721.sol\"; //  ERC721 \n\ncontract Adoption is ERC721 {\n    struct Pet {\n        string name;\n        string picture;\n        uint value;\n        string breed;\n        string location;\n        address payable owner;\n        bool forSale;\n    }\n    // Pet[] public pets;\n\n    //  ID \n    mapping(uint256 => Pet) public pets;\n\n    // ID\n    mapping(address => uint256[]) public ownerTokens;\n\n    // \n    uint256 public petCount=16;\n\n    constructor() ERC721(\"PetNFT\", \"PET\") {\n        pets[0] = Pet(\n                \"Frieda\",\n                \"images/scottish-terrier.jpeg\",\n                3,\n                \"Scottish Terrier\",\n                \"Lisco, Alabama\",\n                payable(address(0)),\n                false\n            );\n\n        pets[1] = Pet(\n                \"Gina\",\n                \"images/scottish-terrier.jpeg\",\n                3,\n                \"Scottish Terrier\",\n                \"Tooleville, West Virginia\",\n                payable(address(0)),\n                false\n            );\n\n        pets[2] = Pet(\n                \"Collins\",\n                \"images/french-bulldog.jpeg\",\n                2,\n                \"French Bulldog\",\n                \"Freeburn, Idaho\",\n                payable(address(0)),\n                false\n            );\n\n        pets[3] = Pet(\n                \"Melissa\",\n                \"images/boxer.jpeg\",\n                2,\n                \"Boxer\",\n                \"Camas, Pennsylvania\",\n                payable(address(0)),\n                false\n            );\n\n        pets[4] = Pet(\n                \"Jeanine\",\n                \"images/french-bulldog.jpeg\",\n                2,\n                \"French Bulldog\",\n                \"Gerber, South Dakota\",\n                payable(address(0)),\n                false\n            );\n\n        pets[5] = Pet(\n                \"Elvia\",\n                \"images/french-bulldog.jpeg\",\n                3,\n                \"French Bulldog\",\n                \"Innsbrook, Illinois\",\n                payable(address(0)),\n                false\n            );\n\n        pets[6] = Pet(\n                \"Latisha\",\n                \"images/golden-retriever.jpeg\",\n                3,\n                \"Golden Retriever\",\n                \"Soudan, Louisiana\",\n                payable(address(0)),\n                false\n            );\n\n        pets[7] = Pet(\n                \"Coleman\",\n                \"images/golden-retriever.jpeg\",\n                3,\n                \"Golden Retriever\",\n                \"Jacksonwald, Palau\",\n                payable(address(0)),\n                false\n            );\n\n        pets[8] = Pet(\n                \"Nichole\",\n                \"images/french-bulldog.jpeg\",\n                2,\n                \"French Bulldog\",\n                \"Honolulu, Hawaii\",\n                payable(address(0)),\n                false\n            );\n\n        pets[9] = Pet(\n                \"Fran\",\n                \"images/boxer.jpeg\",\n                3,\n                \"Boxer\",\n                \"Matheny, Utah\",\n                payable(address(0)),\n                false\n            );\n\n        pets[10] = Pet(\n                \"Leonor\",\n                \"images/boxer.jpeg\",\n                2,\n                \"Boxer\",\n                \"Tyhee, Indiana\",\n                payable(address(0)),\n                false\n            );\n\n        pets[11] = Pet(\n                \"Dean\",\n                \"images/scottish-terrier.jpeg\",\n                3,\n                \"Scottish Terrier\",\n                \"Windsor, Montana\",\n                payable(address(0)),\n                false\n            );\n\n        pets[12] = Pet(\n                \"Stevenson\",\n                \"images/french-bulldog.jpeg\",\n                3,\n                \"French Bulldog\",\n                \"Kingstowne, Nevada\",\n                payable(address(0)),\n                false\n            );\n\n        pets[13] = Pet(\n                \"Kristina\",\n                \"images/golden-retriever.jpeg\",\n                4,\n                \"Golden Retriever\",\n                \"Sultana, Massachusetts\",\n                payable(address(0)),\n                false\n            );\n\n        pets[14] = Pet(\n                \"Ethel\",\n                \"images/golden-retriever.jpeg\",\n                2,\n                \"Golden Retriever\",\n                \"Broadlands, Oregon\",\n                payable(address(0)),\n                false\n            );\n\n        pets[15] = Pet(\n                \"Terry\",\n                \"images/golden-retriever.jpeg\",\n                2,\n                \"Golden Retriever\",\n                \"Dawn, Wisconsin\",\n                payable(address(0)),\n                false\n            );\n    }\n\n\n    event PetAdopted(uint petId, address newOwner);\n    event PetSold(uint petId, address newOwner);\n    event PetAdded(uint petId, string name, address owner);\n\n    function adoptPet(uint petId) public payable{\n        // require(petId < pets.length, \"Pet does not exist\");\n        require(!pets[petId].forSale, \"Pet already for sale\");\n        //require(msg.value >= pets[petId].value * 1 ether, \"Incorrect Ether amount provided.\");\n\n        pets[petId].owner.transfer(pets[petId].value); \n        pets[petId].owner = payable(msg.sender);\n\n        _mint(msg.sender, petId); //  NFT\n\n        ownerTokens[msg.sender].push(petId); //  ID \n\n        // pets[petId].isDaibi = true;\n        \n        emit PetAdopted(petId, msg.sender);\n    }\n\n    function butsell(uint petId) public payable {\n        // require(petId < pets.length, \"Pet does not exist\");\n        require(msg.value >= 0.1 ether, \"Not enough Ether provided.\"); // Check if the transaction value is enough.\n        require(pets[petId].forSale, \"Pet not for sale\"); // Ensure the pet is for sale.\n\n        pets[petId].owner.transfer(pets[petId].value); // Transfer the Ether to the current pet owner.\n        pets[petId].forSale = false;\n        pets[petId].owner = payable(msg.sender);\n\n        _mint(msg.sender, petId); //  NFT\n\n        ownerTokens[msg.sender].push(petId); //  ID \n\n        emit PetAdopted(petId, msg.sender);\n    }\n\n    //address\n    function isTokenOwnedBy(address owner, uint petId) internal view returns (bool) {\n        uint256[] memory tokens = ownerTokens[owner];\n        for (uint i = 0; i < tokens.length; i++) {\n            if (tokens[i] == petId) {\n                return true; //  true\n            }\n        }\n        return false; //  false\n    }\n\n    //\n    function sellPet_new(uint petId) public {\n        // require(petId < pets.length, \"Pet does not exist\");\n        require(pets[petId].owner == msg.sender, \"Not the owner\");\n        require(isTokenOwnedBy(msg.sender, petId), \"Token not owned by this address\"); // \n        require(ownerOf(petId) == msg.sender, \"Not the token owner\"); // \n        _burn(petId); // \n        // \n        pets[petId].forSale = true;\n        //owner\n        //pets[petId].owner = payable(address(0));\n\n        // \n        uint256[] storage tokens = ownerTokens[msg.sender];\n        for (uint i = 0; i < tokens.length; i++) {\n            if (tokens[i] == petId) {\n                tokens[i] = tokens[tokens.length - 1]; // \n                tokens.pop(); // \n                break;\n            }\n        }\n        \n        emit PetSold(petId, msg.sender);\n    }\n\n    // function sellPet(uint petId) public {\n    //     // require(petId < pets.length, \"Pet does not exist\");\n    //     require(pets[petId].owner == msg.sender, \"Not the owner\");\n    //     pets[petId].forSale = true;\n    //     emit PetSold(petId, msg.sender);\n    // }\n\n    function addPet(\n        string memory name,\n        string memory location,\n        uint value,\n        string memory breed\n    ) public {\n        uint newPetId = petCount;\n        petCount = petCount+1;\n        pets[newPetId]=Pet({\n                value: value,\n                name: name,\n                location: location,\n                picture: \"images/boxer.jpeg\",\n                breed: breed,\n                owner: payable(address(0)),\n                forSale: false\n            });\n        emit PetAdded(newPetId, name, msg.sender);\n    }\n\n    function getCount() public view returns (uint) {\n        return petCount;\n    }\n\n   //  ID\n    function getOwnedTokens(address owner) public view returns (uint256[] memory) {\n        return ownerTokens[owner]; //  ID\n    }\n\n    function getPetsByOwner_nft(\n        uint petId\n    )\n        public\n        view\n        returns (\n            string memory,\n            string memory,\n            uint,\n            bool,\n            address,\n            string memory,\n            string memory\n        )\n    {\n        return (\n            pets[petId].name,\n            pets[petId].location,\n            pets[petId].value,\n            pets[petId].forSale,\n            // pets[petId].owner,\n            ownerOf(petId),\n            pets[petId].picture,\n            pets[petId].breed\n        );\n    }\n\n    function getAllPets(\n        uint petId\n    )\n        public\n        view\n        returns (\n            string memory,\n            string memory,\n            uint,\n            bool,\n            address,\n            string memory,\n            string memory\n        )\n    {\n        return (\n            pets[petId].name,\n            pets[petId].location,\n            pets[petId].value,\n            pets[petId].forSale,\n            pets[petId].owner,\n            pets[petId].picture,\n            pets[petId].breed\n        );\n    }\n\n    fallback() external payable {}\n\n    receive() external payable {}\n}\n",
  "sourcePath": "C:\\Users\\admin\\Desktop\\\\\\\\2020339920009--petshop\\dapp\\contracts\\Adoption.sol",
  "compiler": {
    "name": "solc",
    "version": "0.8.19+commit.7dd6d404.Emscripten.clang"
  },
  "schemaVersion": "3.4.14",
  "updatedAt": "2024-11-29T07:25:45.093Z",
  "networkType": "ethereum",
  "devdoc": {
    "events": {
      "Approval(address,address,uint256)": {
        "details": "Emitted when `owner` enables `approved` to manage the `tokenId` token."
      },
      "ApprovalForAll(address,address,bool)": {
        "details": "Emitted when `owner` enables or disables (`approved`) `operator` to manage all of its assets."
      },
      "Transfer(address,address,uint256)": {
        "details": "Emitted when `tokenId` token is transferred from `from` to `to`."
      }
    },
    "kind": "dev",
    "methods": {
      "approve(address,uint256)": {
        "details": "See {IERC721-approve}."
      },
      "balanceOf(address)": {
        "details": "See {IERC721-balanceOf}."
      },
      "getApproved(uint256)": {
        "details": "See {IERC721-getApproved}."
      },
      "isApprovedForAll(address,address)": {
        "details": "See {IERC721-isApprovedForAll}."
      },
      "name()": {
        "details": "See {IERC721Metadata-name}."
      },
      "ownerOf(uint256)": {
        "details": "See {IERC721-ownerOf}."
      },
      "safeTransferFrom(address,address,uint256)": {
        "details": "See {IERC721-safeTransferFrom}."
      },
      "safeTransferFrom(address,address,uint256,bytes)": {
        "details": "See {IERC721-safeTransferFrom}."
      },
      "setApprovalForAll(address,bool)": {
        "details": "See {IERC721-setApprovalForAll}."
      },
      "supportsInterface(bytes4)": {
        "details": "See {IERC165-supportsInterface}."
      },
      "symbol()": {
        "details": "See {IERC721Metadata-symbol}."
      },
      "tokenURI(uint256)": {
        "details": "See {IERC721Metadata-tokenURI}."
      },
      "transferFrom(address,address,uint256)": {
        "details": "See {IERC721-transferFrom}."
      }
    },
    "version": 1
  },
  "userdoc": {
    "kind": "user",
    "methods": {},
    "version": 1
  }
}