{
  "contractName": "Adoption",
  "abi": [
    {
      "inputs": [],
      "stateMutability": "nonpayable",
      "type": "constructor"
    },
    {
      "anonymous": false,
      "inputs": [
        {
          "indexed": true,
          "internalType": "address",
          "name": "owner",
          "type": "address"
        },
        {
          "indexed": true,
          "internalType": "address",
          "name": "approved",
          "type": "address"
        },
        {
          "indexed": true,
          "internalType": "uint256",
          "name": "tokenId",
          "type": "uint256"
        }
      ],
      "name": "Approval",
      "type": "event"
    },
    {
      "anonymous": false,
      "inputs": [
        {
          "indexed": true,
          "internalType": "address",
          "name": "owner",
          "type": "address"
        },
        {
          "indexed": true,
          "internalType": "address",
          "name": "operator",
          "type": "address"
        },
        {
          "indexed": false,
          "internalType": "bool",
          "name": "approved",
          "type": "bool"
        }
      ],
      "name": "ApprovalForAll",
      "type": "event"
    },
    {
      "anonymous": false,
      "inputs": [
        {
          "indexed": false,
          "internalType": "uint256",
          "name": "petId",
          "type": "uint256"
        },
        {
          "indexed": false,
          "internalType": "string",
          "name": "name",
          "type": "string"
        },
        {
          "indexed": false,
          "internalType": "address",
          "name": "owner",
          "type": "address"
        }
      ],
      "name": "PetAdded",
      "type": "event"
    },
    {
      "anonymous": false,
      "inputs": [
        {
          "indexed": false,
          "internalType": "uint256",
          "name": "petId",
          "type": "uint256"
        },
        {
          "indexed": false,
          "internalType": "address",
          "name": "newOwner",
          "type": "address"
        }
      ],
      "name": "PetAdopted",
      "type": "event"
    },
    {
      "anonymous": false,
      "inputs": [
        {
          "indexed": false,
          "internalType": "uint256",
          "name": "petId",
          "type": "uint256"
        },
        {
          "indexed": false,
          "internalType": "address",
          "name": "newOwner",
          "type": "address"
        }
      ],
      "name": "PetSold",
      "type": "event"
    },
    {
      "anonymous": false,
      "inputs": [
        {
          "indexed": true,
          "internalType": "address",
          "name": "from",
          "type": "address"
        },
        {
          "indexed": true,
          "internalType": "address",
          "name": "to",
          "type": "address"
        },
        {
          "indexed": true,
          "internalType": "uint256",
          "name": "tokenId",
          "type": "uint256"
        }
      ],
      "name": "Transfer",
      "type": "event"
    },
    {
      "stateMutability": "payable",
      "type": "fallback",
      "payable": true
    },
    {
      "inputs": [
        {
          "internalType": "address",
          "name": "to",
          "type": "address"
        },
        {
          "internalType": "uint256",
          "name": "tokenId",
          "type": "uint256"
        }
      ],
      "name": "approve",
      "outputs": [],
      "stateMutability": "nonpayable",
      "type": "function"
    },
    {
      "inputs": [
        {
          "internalType": "address",
          "name": "owner",
          "type": "address"
        }
      ],
      "name": "balanceOf",
      "outputs": [
        {
          "internalType": "uint256",
          "name": "",
          "type": "uint256"
        }
      ],
      "stateMutability": "view",
      "type": "function",
      "constant": true
    },
    {
      "inputs": [
        {
          "internalType": "uint256",
          "name": "tokenId",
          "type": "uint256"
        }
      ],
      "name": "getApproved",
      "outputs": [
        {
          "internalType": "address",
          "name": "",
          "type": "address"
        }
      ],
      "stateMutability": "view",
      "type": "function",
      "constant": true
    },
    {
      "inputs": [
        {
          "internalType": "address",
          "name": "owner",
          "type": "address"
        },
        {
          "internalType": "address",
          "name": "operator",
          "type": "address"
        }
      ],
      "name": "isApprovedForAll",
      "outputs": [
        {
          "internalType": "bool",
          "name": "",
          "type": "bool"
        }
      ],
      "stateMutability": "view",
      "type": "function",
      "constant": true
    },
    {
      "inputs": [],
      "name": "name",
      "outputs": [
        {
          "internalType": "string",
          "name": "",
          "type": "string"
        }
      ],
      "stateMutability": "view",
      "type": "function",
      "constant": true
    },
    {
      "inputs": [
        {
          "internalType": "uint256",
          "name": "tokenId",
          "type": "uint256"
        }
      ],
      "name": "ownerOf",
      "outputs": [
        {
          "internalType": "address",
          "name": "",
          "type": "address"
        }
      ],
      "stateMutability": "view",
      "type": "function",
      "constant": true
    },
    {
      "inputs": [
        {
          "internalType": "address",
          "name": "",
          "type": "address"
        },
        {
          "internalType": "uint256",
          "name": "",
          "type": "uint256"
        }
      ],
      "name": "ownerTokens",
      "outputs": [
        {
          "internalType": "uint256",
          "name": "",
          "type": "uint256"
        }
      ],
      "stateMutability": "view",
      "type": "function",
      "constant": true
    },
    {
      "inputs": [],
      "name": "petCount",
      "outputs": [
        {
          "internalType": "uint256",
          "name": "",
          "type": "uint256"
        }
      ],
      "stateMutability": "view",
      "type": "function",
      "constant": true
    },
    {
      "inputs": [
        {
          "internalType": "uint256",
          "name": "",
          "type": "uint256"
        }
      ],
      "name": "pets",
      "outputs": [
        {
          "internalType": "string",
          "name": "name",
          "type": "string"
        },
        {
          "internalType": "string",
          "name": "picture",
          "type": "string"
        },
        {
          "internalType": "uint256",
          "name": "value",
          "type": "uint256"
        },
        {
          "internalType": "uint256",
          "name": "timestamp",
          "type": "uint256"
        },
        {
          "internalType": "uint256",
          "name": "NFTCode",
          "type": "uint256"
        },
        {
          "internalType": "string",
          "name": "description",
          "type": "string"
        },
        {
          "internalType": "address payable",
          "name": "owner",
          "type": "address"
        },
        {
          "internalType": "bool",
          "name": "forSale",
          "type": "bool"
        }
      ],
      "stateMutability": "view",
      "type": "function",
      "constant": true
    },
    {
      "inputs": [
        {
          "internalType": "address",
          "name": "from",
          "type": "address"
        },
        {
          "internalType": "address",
          "name": "to",
          "type": "address"
        },
        {
          "internalType": "uint256",
          "name": "tokenId",
          "type": "uint256"
        }
      ],
      "name": "safeTransferFrom",
      "outputs": [],
      "stateMutability": "nonpayable",
      "type": "function"
    },
    {
      "inputs": [
        {
          "internalType": "address",
          "name": "from",
          "type": "address"
        },
        {
          "internalType": "address",
          "name": "to",
          "type": "address"
        },
        {
          "internalType": "uint256",
          "name": "tokenId",
          "type": "uint256"
        },
        {
          "internalType": "bytes",
          "name": "_data",
          "type": "bytes"
        }
      ],
      "name": "safeTransferFrom",
      "outputs": [],
      "stateMutability": "nonpayable",
      "type": "function"
    },
    {
      "inputs": [
        {
          "internalType": "address",
          "name": "operator",
          "type": "address"
        },
        {
          "internalType": "bool",
          "name": "approved",
          "type": "bool"
        }
      ],
      "name": "setApprovalForAll",
      "outputs": [],
      "stateMutability": "nonpayable",
      "type": "function"
    },
    {
      "inputs": [
        {
          "internalType": "bytes4",
          "name": "interfaceId",
          "type": "bytes4"
        }
      ],
      "name": "supportsInterface",
      "outputs": [
        {
          "internalType": "bool",
          "name": "",
          "type": "bool"
        }
      ],
      "stateMutability": "view",
      "type": "function",
      "constant": true
    },
    {
      "inputs": [],
      "name": "symbol",
      "outputs": [
        {
          "internalType": "string",
          "name": "",
          "type": "string"
        }
      ],
      "stateMutability": "view",
      "type": "function",
      "constant": true
    },
    {
      "inputs": [
        {
          "internalType": "uint256",
          "name": "tokenId",
          "type": "uint256"
        }
      ],
      "name": "tokenURI",
      "outputs": [
        {
          "internalType": "string",
          "name": "",
          "type": "string"
        }
      ],
      "stateMutability": "view",
      "type": "function",
      "constant": true
    },
    {
      "inputs": [
        {
          "internalType": "address",
          "name": "from",
          "type": "address"
        },
        {
          "internalType": "address",
          "name": "to",
          "type": "address"
        },
        {
          "internalType": "uint256",
          "name": "tokenId",
          "type": "uint256"
        }
      ],
      "name": "transferFrom",
      "outputs": [],
      "stateMutability": "nonpayable",
      "type": "function"
    },
    {
      "stateMutability": "payable",
      "type": "receive",
      "payable": true
    },
    {
      "inputs": [
        {
          "internalType": "uint256",
          "name": "petId",
          "type": "uint256"
        }
      ],
      "name": "adoptPet",
      "outputs": [],
      "stateMutability": "payable",
      "type": "function",
      "payable": true
    },
    {
      "inputs": [
        {
          "internalType": "uint256",
          "name": "petId",
          "type": "uint256"
        }
      ],
      "name": "butsell",
      "outputs": [],
      "stateMutability": "payable",
      "type": "function",
      "payable": true
    },
    {
      "inputs": [
        {
          "internalType": "uint256",
          "name": "petId",
          "type": "uint256"
        }
      ],
      "name": "sellPet_new",
      "outputs": [],
      "stateMutability": "nonpayable",
      "type": "function"
    },
    {
      "inputs": [
        {
          "internalType": "string",
          "name": "name",
          "type": "string"
        },
        {
          "internalType": "uint256",
          "name": "value",
          "type": "uint256"
        },
        {
          "internalType": "string",
          "name": "description",
          "type": "string"
        }
      ],
      "name": "addPet",
      "outputs": [],
      "stateMutability": "nonpayable",
      "type": "function"
    },
    {
      "inputs": [],
      "name": "getCount",
      "outputs": [
        {
          "internalType": "uint256",
          "name": "",
          "type": "uint256"
        }
      ],
      "stateMutability": "view",
      "type": "function",
      "constant": true
    },
    {
      "inputs": [
        {
          "internalType": "address",
          "name": "owner",
          "type": "address"
        }
      ],
      "name": "getOwnedTokens",
      "outputs": [
        {
          "internalType": "uint256[]",
          "name": "",
          "type": "uint256[]"
        }
      ],
      "stateMutability": "view",
      "type": "function",
      "constant": true
    },
    {
      "inputs": [
        {
          "internalType": "uint256",
          "name": "petId",
          "type": "uint256"
        }
      ],
      "name": "getPetsByOwner_nft",
      "outputs": [
        {
          "internalType": "string",
          "name": "",
          "type": "string"
        },
        {
          "internalType": "string",
          "name": "",
          "type": "string"
        },
        {
          "internalType": "uint256",
          "name": "",
          "type": "uint256"
        },
        {
          "internalType": "bool",
          "name": "",
          "type": "bool"
        },
        {
          "internalType": "string",
          "name": "",
          "type": "string"
        },
        {
          "internalType": "uint256",
          "name": "",
          "type": "uint256"
        },
        {
          "internalType": "uint256",
          "name": "",
          "type": "uint256"
        }
      ],
      "stateMutability": "view",
      "type": "function",
      "constant": true
    },
    {
      "inputs": [
        {
          "internalType": "uint256",
          "name": "petId",
          "type": "uint256"
        }
      ],
      "name": "getAllPets",
      "outputs": [
        {
          "internalType": "string",
          "name": "",
          "type": "string"
        },
        {
          "internalType": "string",
          "name": "",
          "type": "string"
        },
        {
          "internalType": "uint256",
          "name": "",
          "type": "uint256"
        },
        {
          "internalType": "bool",
          "name": "",
          "type": "bool"
        },
        {
          "internalType": "string",
          "name": "",
          "type": "string"
        },
        {
          "internalType": "uint256",
          "name": "",
          "type": "uint256"
        },
        {
          "internalType": "uint256",
          "name": "",
          "type": "uint256"
        }
      ],
      "stateMutability": "view",
      "type": "function",
      "constant": true
    }
  ],
  "bytecode": "0x6080604052600880553480156200001557600080fd5b506040518060400160405280600681526020017f5065744e465400000000000000000000000000000000000000000000000000008152506040518060400160405280600381526020017f50455400000000000000000000000000000000000000000000000000000000008152508160009081620000939190620010c8565b508060019081620000a59190620010c8565b5050506040518061010001604052806040518060400160405280601881526020017f537461747565206f66207468652053697820456c64657273000000000000000081525081526020016040518060400160405280600c81526020017f696d616765732f312e6a7067000000000000000000000000000000000000000081525081526020016003815260200160008152602001600081526020016040518060e0016040528060b8815260200162005a3660b891398152602001600073ffffffffffffffffffffffffffffffffffffffff1681526020016000151581525060066000600181526020019081526020016000206000820151816000019081620001ad9190620010c8565b506020820151816001019081620001c59190620010c8565b5060408201518160020155606082015181600301556080820151816004015560a0820151816005019081620001fb9190620010c8565b5060c08201518160060160006101000a81548173ffffffffffffffffffffffffffffffffffffffff021916908373ffffffffffffffffffffffffffffffffffffffff16021790555060e08201518160060160146101000a81548160ff0219169083151502179055509050506040518061010001604052806040518060600160405280602f815260200162005aee602f913981526020016040518060400160405280600c81526020017f696d616765732f322e6a7067000000000000000000000000000000000000000081525081526020016004815260200160008152602001600081526020016040518060c00160405280609e815260200162005b49609e91398152602001600073ffffffffffffffffffffffffffffffffffffffff16815260200160001515815250600660006002815260200190815260200160002060008201518160000190816200034f9190620010c8565b506020820151816001019081620003679190620010c8565b5060408201518160020155606082015181600301556080820151816004015560a08201518160050190816200039d9190620010c8565b5060c08201518160060160006101000a81548173ffffffffffffffffffffffffffffffffffffffff021916908373ffffffffffffffffffffffffffffffffffffffff16021790555060e08201518160060160146101000a81548160ff0219169083151502179055509050506040518061010001604052806040518060400160405280601781526020017f426f7368616e672052656164696e6720537469636b657200000000000000000081525081526020016040518060400160405280600c81526020017f696d616765732f352e6a7067000000000000000000000000000000000000000081525081526020016002815260200160008152602001600081526020016040518060e0016040528060af815260200162005cda60af91398152602001600073ffffffffffffffffffffffffffffffffffffffff16815260200160001515815250600660006003815260200190815260200160002060008201518160000190816200050d9190620010c8565b506020820151816001019081620005259190620010c8565b5060408201518160020155606082015181600301556080820151816004015560a08201518160050190816200055b9190620010c8565b5060c08201518160060160006101000a81548173ffffffffffffffffffffffffffffffffffffffff021916908373ffffffffffffffffffffffffffffffffffffffff16021790555060e08201518160060160146101000a81548160ff0219169083151502179055509050506040518061010001604052806040518060400160405280601a81526020017f4e6174696f6e616c205374796c6520466f7274756e652043617400000000000081525081526020016040518060400160405280600c81526020017f696d616765732f332e6a7067000000000000000000000000000000000000000081525081526020016003815260200160008152602001600081526020016040518060e0016040528060bd815260200162005d8960bd91398152602001600073ffffffffffffffffffffffffffffffffffffffff1681526020016000151581525060066000600481526020019081526020016000206000820151816000019081620006cb9190620010c8565b506020820151816001019081620006e39190620010c8565b5060408201518160020155606082015181600301556080820151816004015560a0820151816005019081620007199190620010c8565b5060c08201518160060160006101000a81548173ffffffffffffffffffffffffffffffffffffffff021916908373ffffffffffffffffffffffffffffffffffffffff16021790555060e08201518160060160146101000a81548160ff0219169083151502179055509050506040518061010001604052806040518060600160405280602c815260200162005b1d602c913981526020016040518060400160405280600c81526020017f696d616765732f342e6a70670000000000000000000000000000000000000000815250815260200160058152602001600081526020016000815260200160405180610120016040528060f3815260200162005be760f391398152602001600073ffffffffffffffffffffffffffffffffffffffff16815260200160001515815250600660006005815260200190815260200160002060008201518160000190816200086e9190620010c8565b506020820151816001019081620008869190620010c8565b5060408201518160020155606082015181600301556080820151816004015560a0820151816005019081620008bc9190620010c8565b5060c08201518160060160006101000a81548173ffffffffffffffffffffffffffffffffffffffff021916908373ffffffffffffffffffffffffffffffffffffffff16021790555060e08201518160060160146101000a81548160ff0219169083151502179055509050506040518061010001604052806040518060400160405280601881526020017f537072696e6720436f6c6f7273206f66204c756f79616e67000000000000000081525081526020016040518060400160405280600c81526020017f696d616765732f362e6a70670000000000000000000000000000000000000000815250815260200160058152602001600081526020016000815260200160405180610120016040528060ec81526020016200584860ec91398152602001600073ffffffffffffffffffffffffffffffffffffffff168152602001600015158152506006600060068152602001908152602001600020600082015181600001908162000a2d9190620010c8565b50602082015181600101908162000a459190620010c8565b5060408201518160020155606082015181600301556080820151816004015560a082015181600501908162000a7b9190620010c8565b5060c08201518160060160006101000a81548173ffffffffffffffffffffffffffffffffffffffff021916908373ffffffffffffffffffffffffffffffffffffffff16021790555060e08201518160060160146101000a81548160ff021916908315150217905550905050604051806101000160405280604051806060016040528060298152602001620059346029913981526020016040518060400160405280600c81526020017f696d616765732f372e6a70670000000000000000000000000000000000000000815250815260200160038152602001600081526020016000815260200160405180610100016040528060d981526020016200595d60d991398152602001600073ffffffffffffffffffffffffffffffffffffffff168152602001600015158152506006600060078152602001908152602001600020600082015181600001908162000bd09190620010c8565b50602082015181600101908162000be89190620010c8565b5060408201518160020155606082015181600301556080820151816004015560a082015181600501908162000c1e9190620010c8565b5060c08201518160060160006101000a81548173ffffffffffffffffffffffffffffffffffffffff021916908373ffffffffffffffffffffffffffffffffffffffff16021790555060e08201518160060160146101000a81548160ff0219169083151502179055509050506040518061010001604052806040518060400160405280601581526020017f5465612054617374696e672061742043756927616e000000000000000000000081525081526020016040518060400160405280600c81526020017f696d616765732f382e6a70670000000000000000000000000000000000000000815250815260200160038152602001600081526020016000815260200160405180610120016040528060e7815260200162005e4660e791398152602001600073ffffffffffffffffffffffffffffffffffffffff168152602001600015158152506006600060088152602001908152602001600020600082015181600001908162000d8f9190620010c8565b50602082015181600101908162000da79190620010c8565b5060408201518160020155606082015181600301556080820151816004015560a082015181600501908162000ddd9190620010c8565b5060c08201518160060160006101000a81548173ffffffffffffffffffffffffffffffffffffffff021916908373ffffffffffffffffffffffffffffffffffffffff16021790555060e08201518160060160146101000a81548160ff021916908315150217905550905050620011af565b600081519050919050565b7f4e487b7100000000000000000000000000000000000000000000000000000000600052604160045260246000fd5b7f4e487b7100000000000000000000000000000000000000000000000000000000600052602260045260246000fd5b6000600282049050600182168062000ed057607f821691505b60208210810362000ee65762000ee562000e88565b5b50919050565b60008190508160005260206000209050919050565b60006020601f8301049050919050565b600082821b905092915050565b60006008830262000f507fffffffffffffffffffffffffffffffffffffffffffffffffffffffffffffffff8262000f11565b62000f5c868362000f11565b95508019841693508086168417925050509392505050565b6000819050919050565b6000819050919050565b600062000fa962000fa362000f9d8462000f74565b62000f7e565b62000f74565b9050919050565b6000819050919050565b62000fc58362000f88565b62000fdd62000fd48262000fb0565b84845462000f1e565b825550505050565b600090565b62000ff462000fe5565b6200100181848462000fba565b505050565b5b8181101562001029576200101d60008262000fea565b60018101905062001007565b5050565b601f8211156200107857620010428162000eec565b6200104d8462000f01565b810160208510156200105d578190505b620010756200106c8562000f01565b83018262001006565b50505b505050565b600082821c905092915050565b60006200109d600019846008026200107d565b1980831691505092915050565b6000620010b883836200108a565b9150826002028217905092915050565b620010d38262000e4e565b67ffffffffffffffff811115620010ef57620010ee62000e59565b5b620010fb825462000eb7565b620011088282856200102d565b600060209050601f8311600181146200114057600084156200112b578287015190505b620011378582620010aa565b865550620011a7565b601f198416620011508662000eec565b60005b828110156200117a5784890151825560018201915060208501945060208101905062001153565b868310156200119a578489015162001196601f8916826200108a565b8355505b6001600288020188555050505b505050505050565b61468980620011bf6000396000f3fe60806040526004361061014f5760003560e01c806370a08231116100b6578063b88d4fde1161006f578063b88d4fde146104be578063c87b56dd146104e7578063cd619f5814610524578063cfb869bf1461054f578063d9d6165514610593578063e985e9c5146105d057610156565b806370a082311461037c57806381b33b80146103b957806395d89b41146103fc578063a22cb46514610427578063a87d942c14610450578063b2d0437d1461047b57610156565b806322b53b411161010857806322b53b411461025e57806323b872dd1461028757806328b60031146102b057806342842e0e146102ed5780634b57241d146103165780636352211e1461033f57610156565b806301ffc9a71461015857806306fdde0314610195578063081812fc146101c0578063095ea7b3146101fd57806319b81577146102265780631a083ddc1461024257610156565b3661015657005b005b34801561016457600080fd5b5061017f600480360381019061017a9190612d59565b61060d565b60405161018c9190612da1565b60405180910390f35b3480156101a157600080fd5b506101aa6106ef565b6040516101b79190612e4c565b60405180910390f35b3480156101cc57600080fd5b506101e760048036038101906101e29190612ea4565b610781565b6040516101f49190612f12565b60405180910390f35b34801561020957600080fd5b50610224600480360381019061021f9190612f59565b610806565b005b610240600480360381019061023b9190612ea4565b61091d565b005b61025c60048036038101906102579190612ea4565b610b4b565b005b34801561026a57600080fd5b50610285600480360381019061028091906130ce565b610df2565b005b34801561029357600080fd5b506102ae60048036038101906102a99190613159565b610fb7565b005b3480156102bc57600080fd5b506102d760048036038101906102d29190612f59565b611017565b6040516102e491906131bb565b60405180910390f35b3480156102f957600080fd5b50610314600480360381019061030f9190613159565b611048565b005b34801561032257600080fd5b5061033d60048036038101906103389190612ea4565b611068565b005b34801561034b57600080fd5b5061036660048036038101906103619190612ea4565b61137d565b6040516103739190612f12565b60405180910390f35b34801561038857600080fd5b506103a3600480360381019061039e91906131d6565b61142e565b6040516103b091906131bb565b60405180910390f35b3480156103c557600080fd5b506103e060048036038101906103db9190612ea4565b6114e5565b6040516103f39796959493929190613203565b60405180910390f35b34801561040857600080fd5b50610411611795565b60405161041e9190612e4c565b60405180910390f35b34801561043357600080fd5b5061044e600480360381019061044991906132b3565b611827565b005b34801561045c57600080fd5b5061046561183d565b60405161047291906131bb565b60405180910390f35b34801561048757600080fd5b506104a2600480360381019061049d9190612ea4565b611847565b6040516104b59796959493929190613203565b60405180910390f35b3480156104ca57600080fd5b506104e560048036038101906104e09190613394565b611af7565b005b3480156104f357600080fd5b5061050e60048036038101906105099190612ea4565b611b59565b60405161051b9190612e4c565b60405180910390f35b34801561053057600080fd5b50610539611c00565b60405161054691906131bb565b60405180910390f35b34801561055b57600080fd5b5061057660048036038101906105719190612ea4565b611c06565b60405161058a989796959493929190613438565b60405180910390f35b34801561059f57600080fd5b506105ba60048036038101906105b591906131d6565b611e13565b6040516105c79190613589565b60405180910390f35b3480156105dc57600080fd5b506105f760048036038101906105f291906135ab565b611eaa565b6040516106049190612da1565b60405180910390f35b60007f80ac58cd000000000000000000000000000000000000000000000000000000007bffffffffffffffffffffffffffffffffffffffffffffffffffffffff1916827bffffffffffffffffffffffffffffffffffffffffffffffffffffffff191614806106d857507f5b5e139f000000000000000000000000000000000000000000000000000000007bffffffffffffffffffffffffffffffffffffffffffffffffffffffff1916827bffffffffffffffffffffffffffffffffffffffffffffffffffffffff1916145b806106e857506106e782611f3e565b5b9050919050565b6060600080546106fe9061361a565b80601f016020809104026020016040519081016040528092919081815260200182805461072a9061361a565b80156107775780601f1061074c57610100808354040283529160200191610777565b820191906000526020600020905b81548152906001019060200180831161075a57829003601f168201915b5050505050905090565b600061078c82611fa8565b6107cb576040517f08c379a00000000000000000000000000000000000000000000000000000000081526004016107c2906136bd565b60405180910390fd5b6004600083815260200190815260200160002060009054906101000a900473ffffffffffffffffffffffffffffffffffffffff169050919050565b60006108118261137d565b90508073ffffffffffffffffffffffffffffffffffffffff168373ffffffffffffffffffffffffffffffffffffffff1603610881576040517f08c379a00000000000000000000000000000000000000000000000000000000081526004016108789061374f565b60405180910390fd5b8073ffffffffffffffffffffffffffffffffffffffff166108a0612014565b73ffffffffffffffffffffffffffffffffffffffff1614806108cf57506108ce816108c9612014565b611eaa565b5b61090e576040517f08c379a0000000000000000000000000000000000000000000000000000000008152600401610905906137e1565b60405180910390fd5b610918838361201c565b505050565b6006600082815260200190815260200160002060060160149054906101000a900460ff1615610981576040517f08c379a00000000000000000000000000000000000000000000000000000000081526004016109789061384d565b60405180910390fd5b6006600082815260200190815260200160002060060160009054906101000a900473ffffffffffffffffffffffffffffffffffffffff1673ffffffffffffffffffffffffffffffffffffffff166108fc60066000848152602001908152602001600020600201549081150290604051600060405180830381858888f19350505050158015610a13573d6000803e3d6000fd5b50336006600083815260200190815260200160002060060160006101000a81548173ffffffffffffffffffffffffffffffffffffffff021916908373ffffffffffffffffffffffffffffffffffffffff160217905550806006600083815260200190815260200160002060040181905550426006600083815260200190815260200160002060030181905550610aa933826120d5565b600760003373ffffffffffffffffffffffffffffffffffffffff1673ffffffffffffffffffffffffffffffffffffffff1681526020019081526020016000208190806001815401808255809150506001900390600052602060002001600090919091909150557faa2d40dd3b943f6c2f61c88fa64ea4eb2b19ea7399bdf0f1351ef2ce22ff9db08133604051610b4092919061386d565b60405180910390a150565b67016345785d8a0000341015610b96576040517f08c379a0000000000000000000000000000000000000000000000000000000008152600401610b8d906138e2565b60405180910390fd5b6006600082815260200190815260200160002060060160149054906101000a900460ff16610bf9576040517f08c379a0000000000000000000000000000000000000000000000000000000008152600401610bf09061394e565b60405180910390fd5b6006600082815260200190815260200160002060060160009054906101000a900473ffffffffffffffffffffffffffffffffffffffff1673ffffffffffffffffffffffffffffffffffffffff166108fc60066000848152602001908152602001600020600201549081150290604051600060405180830381858888f19350505050158015610c8b573d6000803e3d6000fd5b5060006006600083815260200190815260200160002060060160146101000a81548160ff021916908315150217905550336006600083815260200190815260200160002060060160006101000a81548173ffffffffffffffffffffffffffffffffffffffff021916908373ffffffffffffffffffffffffffffffffffffffff160217905550806006600083815260200190815260200160002060040181905550426006600083815260200190815260200160002060030181905550610d5033826120d5565b600760003373ffffffffffffffffffffffffffffffffffffffff1673ffffffffffffffffffffffffffffffffffffffff1681526020019081526020016000208190806001815401808255809150506001900390600052602060002001600090919091909150557faa2d40dd3b943f6c2f61c88fa64ea4eb2b19ea7399bdf0f1351ef2ce22ff9db08133604051610de792919061386d565b60405180910390a150565b6001600854610e01919061399d565b600881905550600060085490506040518061010001604052808581526020016040518060400160405280601181526020017f696d616765732f626f7865722e6a70656700000000000000000000000000000081525081526020018481526020016000815260200160008152602001838152602001600073ffffffffffffffffffffffffffffffffffffffff16815260200160001515815250600660008381526020019081526020016000206000820151816000019081610ec19190613b7d565b506020820151816001019081610ed79190613b7d565b5060408201518160020155606082015181600301556080820151816004015560a0820151816005019081610f0b9190613b7d565b5060c08201518160060160006101000a81548173ffffffffffffffffffffffffffffffffffffffff021916908373ffffffffffffffffffffffffffffffffffffffff16021790555060e08201518160060160146101000a81548160ff0219169083151502179055509050507f90c9154ca1209ec02728dc0f8dbe66bcebb0d277ecf13fb44fcb3bff76b1ca2a818533604051610fa993929190613c4f565b60405180910390a150505050565b610fc8610fc2612014565b826122ae565b611007576040517f08c379a0000000000000000000000000000000000000000000000000000000008152600401610ffe90613cff565b60405180910390fd5b61101283838361238c565b505050565b6007602052816000526040600020818154811061103357600080fd5b90600052602060002001600091509150505481565b61106383838360405180602001604052806000815250611af7565b505050565b3373ffffffffffffffffffffffffffffffffffffffff166006600083815260200190815260200160002060060160009054906101000a900473ffffffffffffffffffffffffffffffffffffffff1673ffffffffffffffffffffffffffffffffffffffff161461110c576040517f08c379a000000000000000000000000000000000000000000000000000000000815260040161110390613d6b565b60405180910390fd5b61111633826125f2565b611155576040517f08c379a000000000000000000000000000000000000000000000000000000000815260040161114c90613dd7565b60405180910390fd5b3373ffffffffffffffffffffffffffffffffffffffff166111758261137d565b73ffffffffffffffffffffffffffffffffffffffff16146111cb576040517f08c379a00000000000000000000000000000000000000000000000000000000081526004016111c290613e43565b60405180910390fd5b6111d4816126dd565b60016006600083815260200190815260200160002060060160146101000a81548160ff02191690831515021790555060006006600083815260200190815260200160002060040181905550600060066000838152602001908152602001600020600301819055506000600760003373ffffffffffffffffffffffffffffffffffffffff1673ffffffffffffffffffffffffffffffffffffffff168152602001908152602001600020905060005b818054905081101561133f57828282815481106112a1576112a0613e63565b5b90600052602060002001540361132c5781600183805490506112c39190613e92565b815481106112d4576112d3613e63565b5b90600052602060002001548282815481106112f2576112f1613e63565b5b90600052602060002001819055508180548061131157611310613ec6565b5b6001900381819060005260206000200160009055905561133f565b808061133790613ef5565b915050611281565b507f63354d309b088421e22d1f307fd88e9e13eb3f889ca194ef0299fc1ffcced8fa823360405161137192919061386d565b60405180910390a15050565b6000806002600084815260200190815260200160002060009054906101000a900473ffffffffffffffffffffffffffffffffffffffff169050600073ffffffffffffffffffffffffffffffffffffffff168173ffffffffffffffffffffffffffffffffffffffff1603611425576040517f08c379a000000000000000000000000000000000000000000000000000000000815260040161141c90613faf565b60405180910390fd5b80915050919050565b60008073ffffffffffffffffffffffffffffffffffffffff168273ffffffffffffffffffffffffffffffffffffffff160361149e576040517f08c379a000000000000000000000000000000000000000000000000000000000815260040161149590614041565b60405180910390fd5b600360008373ffffffffffffffffffffffffffffffffffffffff1673ffffffffffffffffffffffffffffffffffffffff168152602001908152602001600020549050919050565b60608060008060606000806000600660008a8152602001908152602001600020604051806101000160405290816000820180546115219061361a565b80601f016020809104026020016040519081016040528092919081815260200182805461154d9061361a565b801561159a5780601f1061156f5761010080835404028352916020019161159a565b820191906000526020600020905b81548152906001019060200180831161157d57829003601f168201915b505050505081526020016001820180546115b39061361a565b80601f01602080910402602001604051908101604052809291908181526020018280546115df9061361a565b801561162c5780601f106116015761010080835404028352916020019161162c565b820191906000526020600020905b81548152906001019060200180831161160f57829003601f168201915b505050505081526020016002820154815260200160038201548152602001600482015481526020016005820180546116639061361a565b80601f016020809104026020016040519081016040528092919081815260200182805461168f9061361a565b80156116dc5780601f106116b1576101008083540402835291602001916116dc565b820191906000526020600020905b8154815290600101906020018083116116bf57829003601f168201915b505050505081526020016006820160009054906101000a900473ffffffffffffffffffffffffffffffffffffffff1673ffffffffffffffffffffffffffffffffffffffff1673ffffffffffffffffffffffffffffffffffffffff1681526020016006820160149054906101000a900460ff161515151581525050905080600001518160a0015182604001518360e00151846020015185608001518660600151975097509750975097509750975050919395979092949650565b6060600180546117a49061361a565b80601f01602080910402602001604051908101604052809291908181526020018280546117d09061361a565b801561181d5780601f106117f25761010080835404028352916020019161181d565b820191906000526020600020905b81548152906001019060200180831161180057829003601f168201915b5050505050905090565b611839611832612014565b83836127fa565b5050565b6000600854905090565b60608060008060606000806000600660008a8152602001908152602001600020604051806101000160405290816000820180546118839061361a565b80601f01602080910402602001604051908101604052809291908181526020018280546118af9061361a565b80156118fc5780601f106118d1576101008083540402835291602001916118fc565b820191906000526020600020905b8154815290600101906020018083116118df57829003601f168201915b505050505081526020016001820180546119159061361a565b80601f01602080910402602001604051908101604052809291908181526020018280546119419061361a565b801561198e5780601f106119635761010080835404028352916020019161198e565b820191906000526020600020905b81548152906001019060200180831161197157829003601f168201915b505050505081526020016002820154815260200160038201548152602001600482015481526020016005820180546119c59061361a565b80601f01602080910402602001604051908101604052809291908181526020018280546119f19061361a565b8015611a3e5780601f10611a1357610100808354040283529160200191611a3e565b820191906000526020600020905b815481529060010190602001808311611a2157829003601f168201915b505050505081526020016006820160009054906101000a900473ffffffffffffffffffffffffffffffffffffffff1673ffffffffffffffffffffffffffffffffffffffff1673ffffffffffffffffffffffffffffffffffffffff1681526020016006820160149054906101000a900460ff161515151581525050905080600001518160a0015182604001518360e00151846020015185608001518660600151975097509750975097509750975050919395979092949650565b611b08611b02612014565b836122ae565b611b47576040517f08c379a0000000000000000000000000000000000000000000000000000000008152600401611b3e90613cff565b60405180910390fd5b611b5384848484612966565b50505050565b6060611b6482611fa8565b611ba3576040517f08c379a0000000000000000000000000000000000000000000000000000000008152600401611b9a906140d3565b60405180910390fd5b6000611bad6129c2565b90506000815111611bcd5760405180602001604052806000815250611bf8565b80611bd7846129d9565b604051602001611be892919061412f565b6040516020818303038152906040525b915050919050565b60085481565b6006602052806000526040600020600091509050806000018054611c299061361a565b80601f0160208091040260200160405190810160405280929190818152602001828054611c559061361a565b8015611ca25780601f10611c7757610100808354040283529160200191611ca2565b820191906000526020600020905b815481529060010190602001808311611c8557829003601f168201915b505050505090806001018054611cb79061361a565b80601f0160208091040260200160405190810160405280929190818152602001828054611ce39061361a565b8015611d305780601f10611d0557610100808354040283529160200191611d30565b820191906000526020600020905b815481529060010190602001808311611d1357829003601f168201915b505050505090806002015490806003015490806004015490806005018054611d579061361a565b80601f0160208091040260200160405190810160405280929190818152602001828054611d839061361a565b8015611dd05780601f10611da557610100808354040283529160200191611dd0565b820191906000526020600020905b815481529060010190602001808311611db357829003601f168201915b5050505050908060060160009054906101000a900473ffffffffffffffffffffffffffffffffffffffff16908060060160149054906101000a900460ff16905088565b6060600760008373ffffffffffffffffffffffffffffffffffffffff1673ffffffffffffffffffffffffffffffffffffffff168152602001908152602001600020805480602002602001604051908101604052809291908181526020018280548015611e9e57602002820191906000526020600020905b815481526020019060010190808311611e8a575b50505050509050919050565b6000600560008473ffffffffffffffffffffffffffffffffffffffff1673ffffffffffffffffffffffffffffffffffffffff16815260200190815260200160002060008373ffffffffffffffffffffffffffffffffffffffff1673ffffffffffffffffffffffffffffffffffffffff16815260200190815260200160002060009054906101000a900460ff16905092915050565b60007f01ffc9a7000000000000000000000000000000000000000000000000000000007bffffffffffffffffffffffffffffffffffffffffffffffffffffffff1916827bffffffffffffffffffffffffffffffffffffffffffffffffffffffff1916149050919050565b60008073ffffffffffffffffffffffffffffffffffffffff166002600084815260200190815260200160002060009054906101000a900473ffffffffffffffffffffffffffffffffffffffff1673ffffffffffffffffffffffffffffffffffffffff1614159050919050565b600033905090565b816004600083815260200190815260200160002060006101000a81548173ffffffffffffffffffffffffffffffffffffffff021916908373ffffffffffffffffffffffffffffffffffffffff160217905550808273ffffffffffffffffffffffffffffffffffffffff1661208f8361137d565b73ffffffffffffffffffffffffffffffffffffffff167f8c5be1e5ebec7d5bd14f71427d1e84f3dd0314c0f7b2291e5b200ac8c7c3b92560405160405180910390a45050565b600073ffffffffffffffffffffffffffffffffffffffff168273ffffffffffffffffffffffffffffffffffffffff1603612144576040517f08c379a000000000000000000000000000000000000000000000000000000000815260040161213b9061419f565b60405180910390fd5b61214d81611fa8565b1561218d576040517f08c379a00000000000000000000000000000000000000000000000000000000081526004016121849061420b565b60405180910390fd5b61219960008383612b39565b6001600360008473ffffffffffffffffffffffffffffffffffffffff1673ffffffffffffffffffffffffffffffffffffffff16815260200190815260200160002060008282546121e9919061399d565b92505081905550816002600083815260200190815260200160002060006101000a81548173ffffffffffffffffffffffffffffffffffffffff021916908373ffffffffffffffffffffffffffffffffffffffff160217905550808273ffffffffffffffffffffffffffffffffffffffff16600073ffffffffffffffffffffffffffffffffffffffff167fddf252ad1be2c89b69c2b068fc378daa952ba7f163c4a11628f55a4df523b3ef60405160405180910390a46122aa60008383612b3e565b5050565b60006122b982611fa8565b6122f8576040517f08c379a00000000000000000000000000000000000000000000000000000000081526004016122ef9061429d565b60405180910390fd5b60006123038361137d565b90508073ffffffffffffffffffffffffffffffffffffffff168473ffffffffffffffffffffffffffffffffffffffff16148061237257508373ffffffffffffffffffffffffffffffffffffffff1661235a84610781565b73ffffffffffffffffffffffffffffffffffffffff16145b8061238357506123828185611eaa565b5b91505092915050565b8273ffffffffffffffffffffffffffffffffffffffff166123ac8261137d565b73ffffffffffffffffffffffffffffffffffffffff1614612402576040517f08c379a00000000000000000000000000000000000000000000000000000000081526004016123f99061432f565b60405180910390fd5b600073ffffffffffffffffffffffffffffffffffffffff168273ffffffffffffffffffffffffffffffffffffffff1603612471576040517f08c379a0000000000000000000000000000000000000000000000000000000008152600401612468906143c1565b60405180910390fd5b61247c838383612b39565b61248760008261201c565b6001600360008573ffffffffffffffffffffffffffffffffffffffff1673ffffffffffffffffffffffffffffffffffffffff16815260200190815260200160002060008282546124d79190613e92565b925050819055506001600360008473ffffffffffffffffffffffffffffffffffffffff1673ffffffffffffffffffffffffffffffffffffffff168152602001908152602001600020600082825461252e919061399d565b92505081905550816002600083815260200190815260200160002060006101000a81548173ffffffffffffffffffffffffffffffffffffffff021916908373ffffffffffffffffffffffffffffffffffffffff160217905550808273ffffffffffffffffffffffffffffffffffffffff168473ffffffffffffffffffffffffffffffffffffffff167fddf252ad1be2c89b69c2b068fc378daa952ba7f163c4a11628f55a4df523b3ef60405160405180910390a46125ed838383612b3e565b505050565b600080600760008573ffffffffffffffffffffffffffffffffffffffff1673ffffffffffffffffffffffffffffffffffffffff16815260200190815260200160002080548060200260200160405190810160405280929190818152602001828054801561267e57602002820191906000526020600020905b81548152602001906001019080831161266a575b5050505050905060005b81518110156126d057838282815181106126a5576126a4613e63565b5b6020026020010151036126bd576001925050506126d7565b80806126c890613ef5565b915050612688565b5060009150505b92915050565b60006126e88261137d565b90506126f681600084612b39565b61270160008361201c565b6001600360008373ffffffffffffffffffffffffffffffffffffffff1673ffffffffffffffffffffffffffffffffffffffff16815260200190815260200160002060008282546127519190613e92565b925050819055506002600083815260200190815260200160002060006101000a81549073ffffffffffffffffffffffffffffffffffffffff021916905581600073ffffffffffffffffffffffffffffffffffffffff168273ffffffffffffffffffffffffffffffffffffffff167fddf252ad1be2c89b69c2b068fc378daa952ba7f163c4a11628f55a4df523b3ef60405160405180910390a46127f681600084612b3e565b5050565b8173ffffffffffffffffffffffffffffffffffffffff168373ffffffffffffffffffffffffffffffffffffffff1603612868576040517f08c379a000000000000000000000000000000000000000000000000000000000815260040161285f9061442d565b60405180910390fd5b80600560008573ffffffffffffffffffffffffffffffffffffffff1673ffffffffffffffffffffffffffffffffffffffff16815260200190815260200160002060008473ffffffffffffffffffffffffffffffffffffffff1673ffffffffffffffffffffffffffffffffffffffff16815260200190815260200160002060006101000a81548160ff0219169083151502179055508173ffffffffffffffffffffffffffffffffffffffff168373ffffffffffffffffffffffffffffffffffffffff167f17307eab39ab6107e8899845ad3d59bd9653f200f220920489ca2b5937696c31836040516129599190612da1565b60405180910390a3505050565b61297184848461238c565b61297d84848484612b43565b6129bc576040517f08c379a00000000000000000000000000000000000000000000000000000000081526004016129b3906144bf565b60405180910390fd5b50505050565b606060405180602001604052806000815250905090565b606060008203612a20576040518060400160405280600181526020017f30000000000000000000000000000000000000000000000000000000000000008152509050612b34565b600082905060005b60008214612a52578080612a3b90613ef5565b915050600a82612a4b919061450e565b9150612a28565b60008167ffffffffffffffff811115612a6e57612a6d612fa3565b5b6040519080825280601f01601f191660200182016040528015612aa05781602001600182028036833780820191505090505b5090505b60008514612b2d57600182612ab99190613e92565b9150600a85612ac8919061453f565b6030612ad4919061399d565b60f81b818381518110612aea57612ae9613e63565b5b60200101907effffffffffffffffffffffffffffffffffffffffffffffffffffffffffffff1916908160001a905350600a85612b26919061450e565b9450612aa4565b8093505050505b919050565b505050565b505050565b6000612b648473ffffffffffffffffffffffffffffffffffffffff16612cca565b15612cbd578373ffffffffffffffffffffffffffffffffffffffff1663150b7a02612b8d612014565b8786866040518563ffffffff1660e01b8152600401612baf94939291906145c5565b6020604051808303816000875af1925050508015612beb57506040513d601f19601f82011682018060405250810190612be89190614626565b60015b612c6d573d8060008114612c1b576040519150601f19603f3d011682016040523d82523d6000602084013e612c20565b606091505b506000815103612c65576040517f08c379a0000000000000000000000000000000000000000000000000000000008152600401612c5c906144bf565b60405180910390fd5b805181602001fd5b63150b7a0260e01b7bffffffffffffffffffffffffffffffffffffffffffffffffffffffff1916817bffffffffffffffffffffffffffffffffffffffffffffffffffffffff191614915050612cc2565b600190505b949350505050565b6000808273ffffffffffffffffffffffffffffffffffffffff163b119050919050565b6000604051905090565b600080fd5b600080fd5b60007fffffffff0000000000000000000000000000000000000000000000000000000082169050919050565b612d3681612d01565b8114612d4157600080fd5b50565b600081359050612d5381612d2d565b92915050565b600060208284031215612d6f57612d6e612cf7565b5b6000612d7d84828501612d44565b91505092915050565b60008115159050919050565b612d9b81612d86565b82525050565b6000602082019050612db66000830184612d92565b92915050565b600081519050919050565b600082825260208201905092915050565b60005b83811015612df6578082015181840152602081019050612ddb565b60008484015250505050565b6000601f19601f8301169050919050565b6000612e1e82612dbc565b612e288185612dc7565b9350612e38818560208601612dd8565b612e4181612e02565b840191505092915050565b60006020820190508181036000830152612e668184612e13565b905092915050565b6000819050919050565b612e8181612e6e565b8114612e8c57600080fd5b50565b600081359050612e9e81612e78565b92915050565b600060208284031215612eba57612eb9612cf7565b5b6000612ec884828501612e8f565b91505092915050565b600073ffffffffffffffffffffffffffffffffffffffff82169050919050565b6000612efc82612ed1565b9050919050565b612f0c81612ef1565b82525050565b6000602082019050612f276000830184612f03565b92915050565b612f3681612ef1565b8114612f4157600080fd5b50565b600081359050612f5381612f2d565b92915050565b60008060408385031215612f7057612f6f612cf7565b5b6000612f7e85828601612f44565b9250506020612f8f85828601612e8f565b9150509250929050565b600080fd5b600080fd5b7f4e487b7100000000000000000000000000000000000000000000000000000000600052604160045260246000fd5b612fdb82612e02565b810181811067ffffffffffffffff82111715612ffa57612ff9612fa3565b5b80604052505050565b600061300d612ced565b90506130198282612fd2565b919050565b600067ffffffffffffffff82111561303957613038612fa3565b5b61304282612e02565b9050602081019050919050565b82818337600083830152505050565b600061307161306c8461301e565b613003565b90508281526020810184848401111561308d5761308c612f9e565b5b61309884828561304f565b509392505050565b600082601f8301126130b5576130b4612f99565b5b81356130c584826020860161305e565b91505092915050565b6000806000606084860312156130e7576130e6612cf7565b5b600084013567ffffffffffffffff81111561310557613104612cfc565b5b613111868287016130a0565b935050602061312286828701612e8f565b925050604084013567ffffffffffffffff81111561314357613142612cfc565b5b61314f868287016130a0565b9150509250925092565b60008060006060848603121561317257613171612cf7565b5b600061318086828701612f44565b935050602061319186828701612f44565b92505060406131a286828701612e8f565b9150509250925092565b6131b581612e6e565b82525050565b60006020820190506131d060008301846131ac565b92915050565b6000602082840312156131ec576131eb612cf7565b5b60006131fa84828501612f44565b91505092915050565b600060e082019050818103600083015261321d818a612e13565b905081810360208301526132318189612e13565b905061324060408301886131ac565b61324d6060830187612d92565b818103608083015261325f8186612e13565b905061326e60a08301856131ac565b61327b60c08301846131ac565b98975050505050505050565b61329081612d86565b811461329b57600080fd5b50565b6000813590506132ad81613287565b92915050565b600080604083850312156132ca576132c9612cf7565b5b60006132d885828601612f44565b92505060206132e98582860161329e565b9150509250929050565b600067ffffffffffffffff82111561330e5761330d612fa3565b5b61331782612e02565b9050602081019050919050565b6000613337613332846132f3565b613003565b90508281526020810184848401111561335357613352612f9e565b5b61335e84828561304f565b509392505050565b600082601f83011261337b5761337a612f99565b5b813561338b848260208601613324565b91505092915050565b600080600080608085870312156133ae576133ad612cf7565b5b60006133bc87828801612f44565b94505060206133cd87828801612f44565b93505060406133de87828801612e8f565b925050606085013567ffffffffffffffff8111156133ff576133fe612cfc565b5b61340b87828801613366565b91505092959194509250565b600061342282612ed1565b9050919050565b61343281613417565b82525050565b6000610100820190508181036000830152613453818b612e13565b90508181036020830152613467818a612e13565b905061347660408301896131ac565b61348360608301886131ac565b61349060808301876131ac565b81810360a08301526134a28186612e13565b90506134b160c0830185613429565b6134be60e0830184612d92565b9998505050505050505050565b600081519050919050565b600082825260208201905092915050565b6000819050602082019050919050565b61350081612e6e565b82525050565b600061351283836134f7565b60208301905092915050565b6000602082019050919050565b6000613536826134cb565b61354081856134d6565b935061354b836134e7565b8060005b8381101561357c5781516135638882613506565b975061356e8361351e565b92505060018101905061354f565b5085935050505092915050565b600060208201905081810360008301526135a3818461352b565b905092915050565b600080604083850312156135c2576135c1612cf7565b5b60006135d085828601612f44565b92505060206135e185828601612f44565b9150509250929050565b7f4e487b7100000000000000000000000000000000000000000000000000000000600052602260045260246000fd5b6000600282049050600182168061363257607f821691505b602082108103613645576136446135eb565b5b50919050565b7f4552433732313a20617070726f76656420717565727920666f72206e6f6e657860008201527f697374656e7420746f6b656e0000000000000000000000000000000000000000602082015250565b60006136a7602c83612dc7565b91506136b28261364b565b604082019050919050565b600060208201905081810360008301526136d68161369a565b9050919050565b7f4552433732313a20617070726f76616c20746f2063757272656e74206f776e6560008201527f7200000000000000000000000000000000000000000000000000000000000000602082015250565b6000613739602183612dc7565b9150613744826136dd565b604082019050919050565b600060208201905081810360008301526137688161372c565b9050919050565b7f4552433732313a20617070726f76652063616c6c6572206973206e6f74206f7760008201527f6e6572206e6f7220617070726f76656420666f7220616c6c0000000000000000602082015250565b60006137cb603883612dc7565b91506137d68261376f565b604082019050919050565b600060208201905081810360008301526137fa816137be565b9050919050565b7f50657420616c726561647920666f722073616c65000000000000000000000000600082015250565b6000613837601483612dc7565b915061384282613801565b602082019050919050565b600060208201905081810360008301526138668161382a565b9050919050565b600060408201905061388260008301856131ac565b61388f6020830184612f03565b9392505050565b7f4e6f7420656e6f7567682045746865722070726f76696465642e000000000000600082015250565b60006138cc601a83612dc7565b91506138d782613896565b602082019050919050565b600060208201905081810360008301526138fb816138bf565b9050919050565b7f506574206e6f7420666f722073616c6500000000000000000000000000000000600082015250565b6000613938601083612dc7565b915061394382613902565b602082019050919050565b600060208201905081810360008301526139678161392b565b9050919050565b7f4e487b7100000000000000000000000000000000000000000000000000000000600052601160045260246000fd5b60006139a882612e6e565b91506139b383612e6e565b92508282019050808211156139cb576139ca61396e565b5b92915050565b60008190508160005260206000209050919050565b60006020601f8301049050919050565b600082821b905092915050565b600060088302613a337fffffffffffffffffffffffffffffffffffffffffffffffffffffffffffffffff826139f6565b613a3d86836139f6565b95508019841693508086168417925050509392505050565b6000819050919050565b6000613a7a613a75613a7084612e6e565b613a55565b612e6e565b9050919050565b6000819050919050565b613a9483613a5f565b613aa8613aa082613a81565b848454613a03565b825550505050565b600090565b613abd613ab0565b613ac8818484613a8b565b505050565b5b81811015613aec57613ae1600082613ab5565b600181019050613ace565b5050565b601f821115613b3157613b02816139d1565b613b0b846139e6565b81016020851015613b1a578190505b613b2e613b26856139e6565b830182613acd565b50505b505050565b600082821c905092915050565b6000613b5460001984600802613b36565b1980831691505092915050565b6000613b6d8383613b43565b9150826002028217905092915050565b613b8682612dbc565b67ffffffffffffffff811115613b9f57613b9e612fa3565b5b613ba9825461361a565b613bb4828285613af0565b600060209050601f831160018114613be75760008415613bd5578287015190505b613bdf8582613b61565b865550613c47565b601f198416613bf5866139d1565b60005b82811015613c1d57848901518255600182019150602085019450602081019050613bf8565b86831015613c3a5784890151613c36601f891682613b43565b8355505b6001600288020188555050505b505050505050565b6000606082019050613c6460008301866131ac565b8181036020830152613c768185612e13565b9050613c856040830184612f03565b949350505050565b7f4552433732313a207472616e736665722063616c6c6572206973206e6f74206f60008201527f776e6572206e6f7220617070726f766564000000000000000000000000000000602082015250565b6000613ce9603183612dc7565b9150613cf482613c8d565b604082019050919050565b60006020820190508181036000830152613d1881613cdc565b9050919050565b7f4e6f7420746865206f776e657200000000000000000000000000000000000000600082015250565b6000613d55600d83612dc7565b9150613d6082613d1f565b602082019050919050565b60006020820190508181036000830152613d8481613d48565b9050919050565b7f546f6b656e206e6f74206f776e65642062792074686973206164647265737300600082015250565b6000613dc1601f83612dc7565b9150613dcc82613d8b565b602082019050919050565b60006020820190508181036000830152613df081613db4565b9050919050565b7f4e6f742074686520746f6b656e206f776e657200000000000000000000000000600082015250565b6000613e2d601383612dc7565b9150613e3882613df7565b602082019050919050565b60006020820190508181036000830152613e5c81613e20565b9050919050565b7f4e487b7100000000000000000000000000000000000000000000000000000000600052603260045260246000fd5b6000613e9d82612e6e565b9150613ea883612e6e565b9250828203905081811115613ec057613ebf61396e565b5b92915050565b7f4e487b7100000000000000000000000000000000000000000000000000000000600052603160045260246000fd5b6000613f0082612e6e565b91507fffffffffffffffffffffffffffffffffffffffffffffffffffffffffffffffff8203613f3257613f3161396e565b5b600182019050919050565b7f4552433732313a206f776e657220717565727920666f72206e6f6e657869737460008201527f656e7420746f6b656e0000000000000000000000000000000000000000000000602082015250565b6000613f99602983612dc7565b9150613fa482613f3d565b604082019050919050565b60006020820190508181036000830152613fc881613f8c565b9050919050565b7f4552433732313a2062616c616e636520717565727920666f7220746865207a6560008201527f726f206164647265737300000000000000000000000000000000000000000000602082015250565b600061402b602a83612dc7565b915061403682613fcf565b604082019050919050565b6000602082019050818103600083015261405a8161401e565b9050919050565b7f4552433732314d657461646174613a2055524920717565727920666f72206e6f60008201527f6e6578697374656e7420746f6b656e0000000000000000000000000000000000602082015250565b60006140bd602f83612dc7565b91506140c882614061565b604082019050919050565b600060208201905081810360008301526140ec816140b0565b9050919050565b600081905092915050565b600061410982612dbc565b61411381856140f3565b9350614123818560208601612dd8565b80840191505092915050565b600061413b82856140fe565b915061414782846140fe565b91508190509392505050565b7f4552433732313a206d696e7420746f20746865207a65726f2061646472657373600082015250565b6000614189602083612dc7565b915061419482614153565b602082019050919050565b600060208201905081810360008301526141b88161417c565b9050919050565b7f4552433732313a20746f6b656e20616c7265616479206d696e74656400000000600082015250565b60006141f5601c83612dc7565b9150614200826141bf565b602082019050919050565b60006020820190508181036000830152614224816141e8565b9050919050565b7f4552433732313a206f70657261746f7220717565727920666f72206e6f6e657860008201527f697374656e7420746f6b656e0000000000000000000000000000000000000000602082015250565b6000614287602c83612dc7565b91506142928261422b565b604082019050919050565b600060208201905081810360008301526142b68161427a565b9050919050565b7f4552433732313a207472616e736665722066726f6d20696e636f72726563742060008201527f6f776e6572000000000000000000000000000000000000000000000000000000602082015250565b6000614319602583612dc7565b9150614324826142bd565b604082019050919050565b600060208201905081810360008301526143488161430c565b9050919050565b7f4552433732313a207472616e7366657220746f20746865207a65726f2061646460008201527f7265737300000000000000000000000000000000000000000000000000000000602082015250565b60006143ab602483612dc7565b91506143b68261434f565b604082019050919050565b600060208201905081810360008301526143da8161439e565b9050919050565b7f4552433732313a20617070726f766520746f2063616c6c657200000000000000600082015250565b6000614417601983612dc7565b9150614422826143e1565b602082019050919050565b600060208201905081810360008301526144468161440a565b9050919050565b7f4552433732313a207472616e7366657220746f206e6f6e20455243373231526560008201527f63656976657220696d706c656d656e7465720000000000000000000000000000602082015250565b60006144a9603283612dc7565b91506144b48261444d565b604082019050919050565b600060208201905081810360008301526144d88161449c565b9050919050565b7f4e487b7100000000000000000000000000000000000000000000000000000000600052601260045260246000fd5b600061451982612e6e565b915061452483612e6e565b925082614534576145336144df565b5b828204905092915050565b600061454a82612e6e565b915061455583612e6e565b925082614565576145646144df565b5b828206905092915050565b600081519050919050565b600082825260208201905092915050565b600061459782614570565b6145a1818561457b565b93506145b1818560208601612dd8565b6145ba81612e02565b840191505092915050565b60006080820190506145da6000830187612f03565b6145e76020830186612f03565b6145f460408301856131ac565b8181036060830152614606818461458c565b905095945050505050565b60008151905061462081612d2d565b92915050565b60006020828403121561463c5761463b612cf7565b5b600061464a84828501614611565b9150509291505056fea2646970667358221220920c7332966a1ba11bfc58dbaef25c2fa0da61b760db50014eee5648391a74da64736f6c6343000813003343757272656e746c7920686f7573656420696e207468652050616c616365204d757365756d20696e204265696a696e672c206974206465706963747320746865207669766964206e61747572616c2065636f6c6f676963616c20626561757479206f662070656f6e6965732e2054686973207061696e74696e672062726f6b6520667265652066726f6d2074686520636f6e73747261696e7473206f6620696e6b206f75746c696e652c206469726563746c7920626c656e64696e6720636f6c6f727320616e6420776174657220746f20646f742074686520666c6f7765727320616e64206c65617665732e4d656970696e67207769746820466f7572204c6f76657320696e20426c756520616e6420576869746543757272656e746c7920686f7573656420696e207468652048756265692050726f76696e6369616c204d757365756d2c2061206e6174696f6e616c2066697273742d636c6173732063756c747572616c2072656c69632e20497427732061207261726520616e642070726563696f7573206578616d706c65206f66205975616e2044796e6173747920626c75652d616e642d776869746520706f7263656c61696e2c207072696d6172696c7920666561747572696e672068756d616e206669677572657320617320746865206d61696e207375626a6563742e5468652027537461747565206f66207468652053697820456c64657273272069732061207061696e74696e67206279207468652054616e672044796e6173747920617274697374204c75204c656e676a69612c2063757272656e746c7920686f7573656420696e207468652050616c616365204d757365756d20696e204265696a696e672c206361727279696e672070726f666f756e642072656c6967696f75732063756c747572616c20636f6e6e6f746174696f6e732e476f6c64204d6564616c206f6620746865205072696d6f726469616c2048656176656e6c7920536f7665726569676e4a616465204f726e616d656e74206f662048756d616e204865616420616e642053657270656e7420426f6479546865205072696d6f726469616c2048656176656e6c7920536f7665726569676e206f6620746865204a616465205075726974792c207468652068656164206f66207468652054687265652050757265204f6e657320696e2054616f69736d2c2073796d626f6c697a657320746865206368616f7320616e6420696e66696e697479206f662074686520756e6976657273652773206372656174696f6e2e546865206a616465206f726e616d656e74206f662068756d616e206865616420616e642073657270656e7420626f64792077617320756e656172746865642066726f6d2074686520746f6d62206f66204875616e67204a756e6d656e6720696e20746865206561726c7920537072696e6720616e6420417574756d6e20706572696f642c2070726f766964696e672076616c7561626c6520706879736963616c206461746120666f72207374756479696e672074686520636c6f7468696e6720616e64206a6164652063617276696e67206372616674736d616e73686970206f6620746865205a686f752044796e617374792e5468652027426f7368616e672052656164696e6720537469636b657227206973206120776f726b206f6e207061706572206279207468652066616d6f75732054616e672044796e617374792063616c6c6967726170686572204f7579616e672058756e2c206b6e6f776e20666f7220697473206578717569736974652063616c6c6967726170687920736b696c6c7320616e642070726f666f756e642063756c747572616c2068657269746167652e546865204e6174696f6e616c205374796c6520466f7274756e65204361742069732070726573656e74656420696e206120626c756520616e642072656420676c617a652c20776974682064656c696361746520706f7263656c61696e207175616c69747920616e64206120636c65616e20616e6420656c6567616e7420636f6c6f722e20497420697320776f72746879206f66206265696e672061206d61737465727069656365206f66204368696e65736520706f7263656c61696e2e4d69616f797520686f73746564207769746820686967682065746971756574746520746f2072656365697665204a6961204d7520616e64206865722070617274792e204d69616f797520707265706172656420646966666572656e74207479706573206f6620746561206163636f7264696e6720746f20746865206964656e74697469657320616e6420707265666572656e636573206f6620646966666572656e7420696e646976696475616c732c2073686f77636173696e672074686520696e747269636163696573206f662074686520616e6369656e742074656120636572656d6f6e792e",
  "immutableReferences": {},
  "source": "// SPDX-License-Identifier: MIT\r\npragma solidity ^0.8.19;\r\npragma experimental ABIEncoderV2;\r\n\r\nimport \"@openzeppelin/contracts/token/ERC721/ERC721.sol\"; //  ERC721 \r\n\r\ncontract Adoption is ERC721 {\r\n    struct Pet {\r\n        string name;\r\n        string picture;\r\n        uint value;\r\n        uint timestamp;\r\n        uint NFTCode;\r\n        string description;\r\n        address payable owner;\r\n        bool forSale;\r\n    }\r\n    // Pet[] public pets;\r\n\r\n    //  ID \r\n    mapping(uint256 => Pet) public pets;\r\n\r\n    // ID\r\n    mapping(address => uint256[]) public ownerTokens;\r\n\r\n    // \r\n    uint256 public petCount=8;\r\n\r\n    constructor() ERC721(\"PetNFT\", \"PET\") {\r\n\r\n        pets[1] = Pet(\r\n                \"Statue of the Six Elders\", // \"\"\r\n                \"images/1.jpg\",\r\n                3,\r\n                0,\r\n                0,\r\n                \"The 'Statue of the Six Elders' is a painting by the Tang Dynasty artist Lu Lengjia, currently housed in the Palace Museum in Beijing, carrying profound religious cultural connotations.\",\r\n                payable(address(0)),\r\n                false\r\n            );\r\n\r\n        pets[2] = Pet(\r\n                \"Gold Medal of the Primordial Heavenly Sovereign\",\r\n                \"images/2.jpg\",\r\n                4,\r\n                0,\r\n                0,\r\n                \"The Primordial Heavenly Sovereign of the Jade Purity, the head of the Three Pure Ones in Taoism, symbolizes the chaos and infinity of the universe's creation.\",\r\n                payable(address(0)),\r\n                false\r\n            );\r\n\r\n        pets[3] = Pet(\r\n                \"Boshang Reading Sticker\",\r\n                \"images/5.jpg\",\r\n                2,\r\n                0,\r\n                0,\r\n                \"The 'Boshang Reading Sticker' is a work on paper by the famous Tang Dynasty calligrapher Ouyang Xun, known for its exquisite calligraphy skills and profound cultural heritage.\",\r\n                payable(address(0)),\r\n                false\r\n            );\r\n\r\n        pets[4] = Pet(\r\n                \"National Style Fortune Cat\",\r\n                \"images/3.jpg\",\r\n                3,\r\n                0,\r\n                0,\r\n                \"The National Style Fortune Cat is presented in a blue and red glaze, with delicate porcelain quality and a clean and elegant color. It is worthy of being a masterpiece of Chinese porcelain.\",\r\n                payable(address(0)),\r\n                false\r\n            );\r\n\r\n        pets[5] = Pet(\r\n                \"Jade Ornament of Human Head and Serpent Body\",\r\n                \"images/4.jpg\",\r\n                5,\r\n                0,\r\n                0,\r\n                \"The jade ornament of human head and serpent body was unearthed from the tomb of Huang Junmeng in the early Spring and Autumn period, providing valuable physical data for studying the clothing and jade carving craftsmanship of the Zhou Dynasty.\",\r\n                payable(address(0)),\r\n                false\r\n            );\r\n\r\n        pets[6] = Pet(\r\n                \"Spring Colors of Luoyang\",\r\n                \"images/6.jpg\",\r\n                5,\r\n                0,\r\n                0,\r\n                \"Currently housed in the Palace Museum in Beijing, it depicts the vivid natural ecological beauty of peonies. This painting broke free from the constraints of ink outline, directly blending colors and water to dot the flowers and leaves.\",\r\n                payable(address(0)),\r\n                false\r\n            );\r\n\r\n        pets[7] = Pet(\r\n                \"Meiping with Four Loves in Blue and White\",\r\n                \"images/7.jpg\",\r\n                3,\r\n                0,\r\n                0,\r\n                \"Currently housed in the Hubei Provincial Museum, a national first-class cultural relic. It's a rare and precious example of Yuan Dynasty blue-and-white porcelain, primarily featuring human figures as the main subject.\",\r\n                payable(address(0)),\r\n                false\r\n            );\r\n\r\n        pets[8] = Pet(\r\n                \"Tea Tasting at Cui'an\",\r\n                \"images/8.jpg\",\r\n                3,\r\n                0,\r\n                0,\r\n                \"Miaoyu hosted with high etiquette to receive Jia Mu and her party. Miaoyu prepared different types of tea according to the identities and preferences of different individuals, showcasing the intricacies of the ancient tea ceremony.\",\r\n                payable(address(0)),\r\n                false\r\n            );\r\n    }\r\n\r\n\r\n    event PetAdopted(uint petId, address newOwner);\r\n    event PetSold(uint petId, address newOwner);\r\n    event PetAdded(uint petId, string name, address owner);\r\n\r\n    function adoptPet(uint petId) public payable{\r\n        // require(petId < pets.length, \"Pet does not exist\");\r\n        require(!pets[petId].forSale, \"Pet already for sale\");\r\n        //require(msg.value >= pets[petId].value * 1 ether, \"Incorrect Ether amount provided.\");\r\n\r\n        pets[petId].owner.transfer(pets[petId].value); \r\n        pets[petId].owner = payable(msg.sender);\r\n        pets[petId].NFTCode = petId;\r\n        pets[petId].timestamp = block.timestamp;\r\n\r\n        _mint(msg.sender, petId); //  NFT\r\n\r\n        ownerTokens[msg.sender].push(petId); //  ID \r\n\r\n        // pets[petId].isDaibi = true;\r\n        \r\n        emit PetAdopted(petId, msg.sender);\r\n    }\r\n\r\n    function butsell(uint petId) public payable {\r\n        // require(petId < pets.length, \"Pet does not exist\");\r\n        require(msg.value >= 0.1 ether, \"Not enough Ether provided.\"); // Check if the transaction value is enough.\r\n        require(pets[petId].forSale, \"Pet not for sale\"); // Ensure the pet is for sale.\r\n\r\n        pets[petId].owner.transfer(pets[petId].value); // Transfer the Ether to the current pet owner.\r\n        pets[petId].forSale = false;\r\n        pets[petId].owner = payable(msg.sender);\r\n        pets[petId].NFTCode = petId;\r\n        pets[petId].timestamp = block.timestamp;\r\n\r\n        _mint(msg.sender, petId); //  NFT\r\n\r\n        ownerTokens[msg.sender].push(petId); //  ID \r\n\r\n        emit PetAdopted(petId, msg.sender);\r\n    }\r\n\r\n    //address\r\n    function isTokenOwnedBy(address owner, uint petId) internal view returns (bool) {\r\n        uint256[] memory tokens = ownerTokens[owner];\r\n        for (uint i = 0; i < tokens.length; i++) {\r\n            if (tokens[i] == petId) {\r\n                return true; //  true\r\n            }\r\n        }\r\n        return false; //  false\r\n    }\r\n\r\n    //\r\n    function sellPet_new(uint petId) public {\r\n        // require(petId < pets.length, \"Pet does not exist\");\r\n        require(pets[petId].owner == msg.sender, \"Not the owner\");\r\n        require(isTokenOwnedBy(msg.sender, petId), \"Token not owned by this address\"); // \r\n        require(ownerOf(petId) == msg.sender, \"Not the token owner\"); // \r\n        _burn(petId); // \r\n        // \r\n        pets[petId].forSale = true;\r\n        pets[petId].NFTCode = 0;\r\n        pets[petId].timestamp = 0;\r\n        //owner\r\n        //pets[petId].owner = payable(address(0));\r\n\r\n        // \r\n        uint256[] storage tokens = ownerTokens[msg.sender];\r\n        for (uint i = 0; i < tokens.length; i++) {\r\n            if (tokens[i] == petId) {\r\n                tokens[i] = tokens[tokens.length - 1]; // \r\n                tokens.pop(); // \r\n                break;\r\n            }\r\n        }\r\n        \r\n        emit PetSold(petId, msg.sender);\r\n    }\r\n\r\n    // function sellPet(uint petId) public {\r\n    //     // require(petId < pets.length, \"Pet does not exist\");\r\n    //     require(pets[petId].owner == msg.sender, \"Not the owner\");\r\n    //     pets[petId].forSale = true;\r\n    //     emit PetSold(petId, msg.sender);\r\n    // }\r\n\r\n    function addPet(\r\n        string memory name,\r\n        uint value,\r\n        string memory description\r\n    ) public {\r\n        petCount = petCount+1;\r\n        uint newPetId = petCount;\r\n        pets[newPetId]=Pet({\r\n                value: value,\r\n                name: name,\r\n                description: description,\r\n                picture: \"images/boxer.jpeg\",\r\n                timestamp: 0,\r\n                NFTCode: 0,\r\n                owner: payable(address(0)),\r\n                forSale: false\r\n            });\r\n        emit PetAdded(newPetId, name, msg.sender);\r\n    }\r\n\r\n    function getCount() public view returns (uint) {\r\n        return petCount;\r\n    }\r\n\r\n   //  ID\r\n    function getOwnedTokens(address owner) public view returns (uint256[] memory) {\r\n        return ownerTokens[owner]; //  ID\r\n    }\r\n\r\n    function getPetsByOwner_nft(\r\n        uint petId\r\n    )\r\n        public\r\n        view\r\n        returns (\r\n            string memory,\r\n            string memory,\r\n            uint,\r\n            bool,\r\n            // address,\r\n            string memory,\r\n            uint,\r\n            uint\r\n        )\r\n    {\r\n        Pet memory pet = pets[petId];\r\n        return (\r\n            pet.name,\r\n            pet.description,\r\n            pet.value,\r\n            pet.forSale,\r\n            // ownerOf(petId),\r\n            pet.picture,\r\n            pet.NFTCode,\r\n            pet.timestamp\r\n        );\r\n    }\r\n\r\n    function getAllPets(\r\n        uint petId\r\n    )\r\n        public\r\n        view\r\n        returns (\r\n            string memory,\r\n            string memory,\r\n            uint,\r\n            bool,\r\n            // address,\r\n            string memory,\r\n            uint,\r\n            uint\r\n        )\r\n    {\r\n        Pet memory pet = pets[petId];\r\n        return (\r\n            pet.name,\r\n            pet.description,\r\n            pet.value,\r\n            pet.forSale,\r\n            // ownerOf(petId),\r\n            pet.picture,\r\n            pet.NFTCode,\r\n            pet.timestamp\r\n        );\r\n    }\r\n\r\n    fallback() external payable {}\r\n\r\n    receive() external payable {}\r\n}\r\n",
  "sourcePath": "C:\\Users\\admin\\Desktop\\\\\\\\blockchain\\contracts\\Adoption.sol",
  "compiler": {
    "name": "solc",
    "version": "0.8.19+commit.7dd6d404.Emscripten.clang"
  },
  "schemaVersion": "3.4.14",
  "updatedAt": "2024-11-30T09:45:19.164Z",
  "networkType": "ethereum",
  "devdoc": {
    "events": {
      "Approval(address,address,uint256)": {
        "details": "Emitted when `owner` enables `approved` to manage the `tokenId` token."
      },
      "ApprovalForAll(address,address,bool)": {
        "details": "Emitted when `owner` enables or disables (`approved`) `operator` to manage all of its assets."
      },
      "Transfer(address,address,uint256)": {
        "details": "Emitted when `tokenId` token is transferred from `from` to `to`."
      }
    },
    "kind": "dev",
    "methods": {
      "approve(address,uint256)": {
        "details": "See {IERC721-approve}."
      },
      "balanceOf(address)": {
        "details": "See {IERC721-balanceOf}."
      },
      "getApproved(uint256)": {
        "details": "See {IERC721-getApproved}."
      },
      "isApprovedForAll(address,address)": {
        "details": "See {IERC721-isApprovedForAll}."
      },
      "name()": {
        "details": "See {IERC721Metadata-name}."
      },
      "ownerOf(uint256)": {
        "details": "See {IERC721-ownerOf}."
      },
      "safeTransferFrom(address,address,uint256)": {
        "details": "See {IERC721-safeTransferFrom}."
      },
      "safeTransferFrom(address,address,uint256,bytes)": {
        "details": "See {IERC721-safeTransferFrom}."
      },
      "setApprovalForAll(address,bool)": {
        "details": "See {IERC721-setApprovalForAll}."
      },
      "supportsInterface(bytes4)": {
        "details": "See {IERC165-supportsInterface}."
      },
      "symbol()": {
        "details": "See {IERC721Metadata-symbol}."
      },
      "tokenURI(uint256)": {
        "details": "See {IERC721Metadata-tokenURI}."
      },
      "transferFrom(address,address,uint256)": {
        "details": "See {IERC721-transferFrom}."
      }
    },
    "version": 1
  },
  "userdoc": {
    "kind": "user",
    "methods": {},
    "version": 1
  }
}