{
  "contractName": "DigitalCollectibleContract",
  "abi": [
    {
      "inputs": [],
      "stateMutability": "nonpayable",
      "type": "constructor"
    },
    {
      "anonymous": false,
      "inputs": [
        {
          "indexed": true,
          "internalType": "address",
          "name": "owner",
          "type": "address"
        },
        {
          "indexed": true,
          "internalType": "address",
          "name": "approved",
          "type": "address"
        },
        {
          "indexed": true,
          "internalType": "uint256",
          "name": "tokenId",
          "type": "uint256"
        }
      ],
      "name": "Approval",
      "type": "event"
    },
    {
      "anonymous": false,
      "inputs": [
        {
          "indexed": true,
          "internalType": "address",
          "name": "owner",
          "type": "address"
        },
        {
          "indexed": true,
          "internalType": "address",
          "name": "operator",
          "type": "address"
        },
        {
          "indexed": false,
          "internalType": "bool",
          "name": "approved",
          "type": "bool"
        }
      ],
      "name": "ApprovalForAll",
      "type": "event"
    },
    {
      "anonymous": false,
      "inputs": [
        {
          "indexed": false,
          "internalType": "uint256",
          "name": "nftId",
          "type": "uint256"
        },
        {
          "indexed": false,
          "internalType": "string",
          "name": "name",
          "type": "string"
        },
        {
          "indexed": false,
          "internalType": "address",
          "name": "owner",
          "type": "address"
        }
      ],
      "name": "NFTAdded",
      "type": "event"
    },
    {
      "anonymous": false,
      "inputs": [
        {
          "indexed": false,
          "internalType": "uint256",
          "name": "nftId",
          "type": "uint256"
        },
        {
          "indexed": false,
          "internalType": "address",
          "name": "newOwner",
          "type": "address"
        }
      ],
      "name": "NFTPurchased",
      "type": "event"
    },
    {
      "anonymous": false,
      "inputs": [
        {
          "indexed": false,
          "internalType": "uint256",
          "name": "nftId",
          "type": "uint256"
        },
        {
          "indexed": false,
          "internalType": "address",
          "name": "newOwner",
          "type": "address"
        }
      ],
      "name": "NFTSold",
      "type": "event"
    },
    {
      "anonymous": false,
      "inputs": [
        {
          "indexed": true,
          "internalType": "address",
          "name": "from",
          "type": "address"
        },
        {
          "indexed": true,
          "internalType": "address",
          "name": "to",
          "type": "address"
        },
        {
          "indexed": true,
          "internalType": "uint256",
          "name": "tokenId",
          "type": "uint256"
        }
      ],
      "name": "Transfer",
      "type": "event"
    },
    {
      "stateMutability": "payable",
      "type": "fallback",
      "payable": true
    },
    {
      "inputs": [
        {
          "internalType": "address",
          "name": "to",
          "type": "address"
        },
        {
          "internalType": "uint256",
          "name": "tokenId",
          "type": "uint256"
        }
      ],
      "name": "approve",
      "outputs": [],
      "stateMutability": "nonpayable",
      "type": "function"
    },
    {
      "inputs": [
        {
          "internalType": "address",
          "name": "owner",
          "type": "address"
        }
      ],
      "name": "balanceOf",
      "outputs": [
        {
          "internalType": "uint256",
          "name": "",
          "type": "uint256"
        }
      ],
      "stateMutability": "view",
      "type": "function",
      "constant": true
    },
    {
      "inputs": [
        {
          "internalType": "uint256",
          "name": "tokenId",
          "type": "uint256"
        }
      ],
      "name": "getApproved",
      "outputs": [
        {
          "internalType": "address",
          "name": "",
          "type": "address"
        }
      ],
      "stateMutability": "view",
      "type": "function",
      "constant": true
    },
    {
      "inputs": [
        {
          "internalType": "address",
          "name": "owner",
          "type": "address"
        },
        {
          "internalType": "address",
          "name": "operator",
          "type": "address"
        }
      ],
      "name": "isApprovedForAll",
      "outputs": [
        {
          "internalType": "bool",
          "name": "",
          "type": "bool"
        }
      ],
      "stateMutability": "view",
      "type": "function",
      "constant": true
    },
    {
      "inputs": [],
      "name": "name",
      "outputs": [
        {
          "internalType": "string",
          "name": "",
          "type": "string"
        }
      ],
      "stateMutability": "view",
      "type": "function",
      "constant": true
    },
    {
      "inputs": [],
      "name": "nftCount",
      "outputs": [
        {
          "internalType": "uint256",
          "name": "",
          "type": "uint256"
        }
      ],
      "stateMutability": "view",
      "type": "function",
      "constant": true
    },
    {
      "inputs": [
        {
          "internalType": "uint256",
          "name": "",
          "type": "uint256"
        }
      ],
      "name": "nfts",
      "outputs": [
        {
          "internalType": "string",
          "name": "name",
          "type": "string"
        },
        {
          "internalType": "string",
          "name": "picture",
          "type": "string"
        },
        {
          "internalType": "uint256",
          "name": "value",
          "type": "uint256"
        },
        {
          "internalType": "uint256",
          "name": "timestamp",
          "type": "uint256"
        },
        {
          "internalType": "uint256",
          "name": "NFTCode",
          "type": "uint256"
        },
        {
          "internalType": "string",
          "name": "description",
          "type": "string"
        },
        {
          "internalType": "address payable",
          "name": "owner",
          "type": "address"
        },
        {
          "internalType": "bool",
          "name": "forSale",
          "type": "bool"
        }
      ],
      "stateMutability": "view",
      "type": "function",
      "constant": true
    },
    {
      "inputs": [
        {
          "internalType": "uint256",
          "name": "tokenId",
          "type": "uint256"
        }
      ],
      "name": "ownerOf",
      "outputs": [
        {
          "internalType": "address",
          "name": "",
          "type": "address"
        }
      ],
      "stateMutability": "view",
      "type": "function",
      "constant": true
    },
    {
      "inputs": [
        {
          "internalType": "address",
          "name": "",
          "type": "address"
        },
        {
          "internalType": "uint256",
          "name": "",
          "type": "uint256"
        }
      ],
      "name": "ownerTokens",
      "outputs": [
        {
          "internalType": "uint256",
          "name": "",
          "type": "uint256"
        }
      ],
      "stateMutability": "view",
      "type": "function",
      "constant": true
    },
    {
      "inputs": [
        {
          "internalType": "address",
          "name": "from",
          "type": "address"
        },
        {
          "internalType": "address",
          "name": "to",
          "type": "address"
        },
        {
          "internalType": "uint256",
          "name": "tokenId",
          "type": "uint256"
        }
      ],
      "name": "safeTransferFrom",
      "outputs": [],
      "stateMutability": "nonpayable",
      "type": "function"
    },
    {
      "inputs": [
        {
          "internalType": "address",
          "name": "from",
          "type": "address"
        },
        {
          "internalType": "address",
          "name": "to",
          "type": "address"
        },
        {
          "internalType": "uint256",
          "name": "tokenId",
          "type": "uint256"
        },
        {
          "internalType": "bytes",
          "name": "_data",
          "type": "bytes"
        }
      ],
      "name": "safeTransferFrom",
      "outputs": [],
      "stateMutability": "nonpayable",
      "type": "function"
    },
    {
      "inputs": [
        {
          "internalType": "address",
          "name": "operator",
          "type": "address"
        },
        {
          "internalType": "bool",
          "name": "approved",
          "type": "bool"
        }
      ],
      "name": "setApprovalForAll",
      "outputs": [],
      "stateMutability": "nonpayable",
      "type": "function"
    },
    {
      "inputs": [
        {
          "internalType": "bytes4",
          "name": "interfaceId",
          "type": "bytes4"
        }
      ],
      "name": "supportsInterface",
      "outputs": [
        {
          "internalType": "bool",
          "name": "",
          "type": "bool"
        }
      ],
      "stateMutability": "view",
      "type": "function",
      "constant": true
    },
    {
      "inputs": [],
      "name": "symbol",
      "outputs": [
        {
          "internalType": "string",
          "name": "",
          "type": "string"
        }
      ],
      "stateMutability": "view",
      "type": "function",
      "constant": true
    },
    {
      "inputs": [
        {
          "internalType": "uint256",
          "name": "tokenId",
          "type": "uint256"
        }
      ],
      "name": "tokenURI",
      "outputs": [
        {
          "internalType": "string",
          "name": "",
          "type": "string"
        }
      ],
      "stateMutability": "view",
      "type": "function",
      "constant": true
    },
    {
      "inputs": [
        {
          "internalType": "address",
          "name": "from",
          "type": "address"
        },
        {
          "internalType": "address",
          "name": "to",
          "type": "address"
        },
        {
          "internalType": "uint256",
          "name": "tokenId",
          "type": "uint256"
        }
      ],
      "name": "transferFrom",
      "outputs": [],
      "stateMutability": "nonpayable",
      "type": "function"
    },
    {
      "stateMutability": "payable",
      "type": "receive",
      "payable": true
    },
    {
      "inputs": [
        {
          "internalType": "uint256",
          "name": "nftId",
          "type": "uint256"
        }
      ],
      "name": "NFTPurchase",
      "outputs": [],
      "stateMutability": "payable",
      "type": "function",
      "payable": true
    },
    {
      "inputs": [
        {
          "internalType": "uint256",
          "name": "nftId",
          "type": "uint256"
        }
      ],
      "name": "buySellNFT",
      "outputs": [],
      "stateMutability": "payable",
      "type": "function",
      "payable": true
    },
    {
      "inputs": [
        {
          "internalType": "uint256",
          "name": "nftId",
          "type": "uint256"
        }
      ],
      "name": "sellNFTs_new",
      "outputs": [],
      "stateMutability": "nonpayable",
      "type": "function"
    },
    {
      "inputs": [
        {
          "internalType": "string",
          "name": "name",
          "type": "string"
        },
        {
          "internalType": "uint256",
          "name": "value",
          "type": "uint256"
        },
        {
          "internalType": "string",
          "name": "description",
          "type": "string"
        }
      ],
      "name": "addNFTs",
      "outputs": [],
      "stateMutability": "nonpayable",
      "type": "function"
    },
    {
      "inputs": [],
      "name": "getCount",
      "outputs": [
        {
          "internalType": "uint256",
          "name": "",
          "type": "uint256"
        }
      ],
      "stateMutability": "view",
      "type": "function",
      "constant": true
    },
    {
      "inputs": [
        {
          "internalType": "address",
          "name": "owner",
          "type": "address"
        }
      ],
      "name": "getOwnedTokens",
      "outputs": [
        {
          "internalType": "uint256[]",
          "name": "",
          "type": "uint256[]"
        }
      ],
      "stateMutability": "view",
      "type": "function",
      "constant": true
    },
    {
      "inputs": [
        {
          "internalType": "uint256",
          "name": "nftId",
          "type": "uint256"
        }
      ],
      "name": "getNFTsByOwner",
      "outputs": [
        {
          "internalType": "string",
          "name": "",
          "type": "string"
        },
        {
          "internalType": "string",
          "name": "",
          "type": "string"
        },
        {
          "internalType": "uint256",
          "name": "",
          "type": "uint256"
        },
        {
          "internalType": "bool",
          "name": "",
          "type": "bool"
        },
        {
          "internalType": "string",
          "name": "",
          "type": "string"
        },
        {
          "internalType": "uint256",
          "name": "",
          "type": "uint256"
        },
        {
          "internalType": "uint256",
          "name": "",
          "type": "uint256"
        }
      ],
      "stateMutability": "view",
      "type": "function",
      "constant": true
    },
    {
      "inputs": [
        {
          "internalType": "uint256",
          "name": "nftId",
          "type": "uint256"
        }
      ],
      "name": "getAllNFTs",
      "outputs": [
        {
          "internalType": "string",
          "name": "",
          "type": "string"
        },
        {
          "internalType": "string",
          "name": "",
          "type": "string"
        },
        {
          "internalType": "uint256",
          "name": "",
          "type": "uint256"
        },
        {
          "internalType": "bool",
          "name": "",
          "type": "bool"
        },
        {
          "internalType": "string",
          "name": "",
          "type": "string"
        },
        {
          "internalType": "uint256",
          "name": "",
          "type": "uint256"
        },
        {
          "internalType": "uint256",
          "name": "",
          "type": "uint256"
        }
      ],
      "stateMutability": "view",
      "type": "function",
      "constant": true
    }
  ],
  "bytecode": "0x6080604052600880553480156200001557600080fd5b506040518060400160405280601281526020017f4469676974616c436f6c6c65637469626c6500000000000000000000000000008152506040518060400160405280600381526020017f44435400000000000000000000000000000000000000000000000000000000008152508160009081620000939190620010c8565b508060019081620000a59190620010c8565b5050506040518061010001604052806040518060400160405280601881526020017f537461747565206f66207468652053697820456c64657273000000000000000081525081526020016040518060400160405280600c81526020017f696d616765732f312e6a7067000000000000000000000000000000000000000081525081526020016003815260200160008152602001600081526020016040518060e0016040528060b8815260200162005a3660b891398152602001600073ffffffffffffffffffffffffffffffffffffffff1681526020016000151581525060066000600181526020019081526020016000206000820151816000019081620001ad9190620010c8565b506020820151816001019081620001c59190620010c8565b5060408201518160020155606082015181600301556080820151816004015560a0820151816005019081620001fb9190620010c8565b5060c08201518160060160006101000a81548173ffffffffffffffffffffffffffffffffffffffff021916908373ffffffffffffffffffffffffffffffffffffffff16021790555060e08201518160060160146101000a81548160ff0219169083151502179055509050506040518061010001604052806040518060600160405280602f815260200162005aee602f913981526020016040518060400160405280600c81526020017f696d616765732f322e6a7067000000000000000000000000000000000000000081525081526020016004815260200160008152602001600081526020016040518060c00160405280609e815260200162005b49609e91398152602001600073ffffffffffffffffffffffffffffffffffffffff16815260200160001515815250600660006002815260200190815260200160002060008201518160000190816200034f9190620010c8565b506020820151816001019081620003679190620010c8565b5060408201518160020155606082015181600301556080820151816004015560a08201518160050190816200039d9190620010c8565b5060c08201518160060160006101000a81548173ffffffffffffffffffffffffffffffffffffffff021916908373ffffffffffffffffffffffffffffffffffffffff16021790555060e08201518160060160146101000a81548160ff0219169083151502179055509050506040518061010001604052806040518060400160405280601781526020017f426f7368616e672052656164696e6720537469636b657200000000000000000081525081526020016040518060400160405280600c81526020017f696d616765732f352e6a7067000000000000000000000000000000000000000081525081526020016003815260200160008152602001600081526020016040518060e0016040528060af815260200162005cda60af91398152602001600073ffffffffffffffffffffffffffffffffffffffff16815260200160001515815250600660006003815260200190815260200160002060008201518160000190816200050d9190620010c8565b506020820151816001019081620005259190620010c8565b5060408201518160020155606082015181600301556080820151816004015560a08201518160050190816200055b9190620010c8565b5060c08201518160060160006101000a81548173ffffffffffffffffffffffffffffffffffffffff021916908373ffffffffffffffffffffffffffffffffffffffff16021790555060e08201518160060160146101000a81548160ff0219169083151502179055509050506040518061010001604052806040518060400160405280601a81526020017f4e6174696f6e616c205374796c6520466f7274756e652043617400000000000081525081526020016040518060400160405280600c81526020017f696d616765732f332e6a7067000000000000000000000000000000000000000081525081526020016003815260200160008152602001600081526020016040518060e0016040528060bd815260200162005d8960bd91398152602001600073ffffffffffffffffffffffffffffffffffffffff1681526020016000151581525060066000600481526020019081526020016000206000820151816000019081620006cb9190620010c8565b506020820151816001019081620006e39190620010c8565b5060408201518160020155606082015181600301556080820151816004015560a0820151816005019081620007199190620010c8565b5060c08201518160060160006101000a81548173ffffffffffffffffffffffffffffffffffffffff021916908373ffffffffffffffffffffffffffffffffffffffff16021790555060e08201518160060160146101000a81548160ff0219169083151502179055509050506040518061010001604052806040518060600160405280602c815260200162005b1d602c913981526020016040518060400160405280600c81526020017f696d616765732f342e6a70670000000000000000000000000000000000000000815250815260200160058152602001600081526020016000815260200160405180610120016040528060f3815260200162005be760f391398152602001600073ffffffffffffffffffffffffffffffffffffffff16815260200160001515815250600660006005815260200190815260200160002060008201518160000190816200086e9190620010c8565b506020820151816001019081620008869190620010c8565b5060408201518160020155606082015181600301556080820151816004015560a0820151816005019081620008bc9190620010c8565b5060c08201518160060160006101000a81548173ffffffffffffffffffffffffffffffffffffffff021916908373ffffffffffffffffffffffffffffffffffffffff16021790555060e08201518160060160146101000a81548160ff0219169083151502179055509050506040518061010001604052806040518060400160405280601881526020017f537072696e6720436f6c6f7273206f66204c756f79616e67000000000000000081525081526020016040518060400160405280600c81526020017f696d616765732f362e6a70670000000000000000000000000000000000000000815250815260200160058152602001600081526020016000815260200160405180610120016040528060ec81526020016200584860ec91398152602001600073ffffffffffffffffffffffffffffffffffffffff168152602001600015158152506006600060068152602001908152602001600020600082015181600001908162000a2d9190620010c8565b50602082015181600101908162000a459190620010c8565b5060408201518160020155606082015181600301556080820151816004015560a082015181600501908162000a7b9190620010c8565b5060c08201518160060160006101000a81548173ffffffffffffffffffffffffffffffffffffffff021916908373ffffffffffffffffffffffffffffffffffffffff16021790555060e08201518160060160146101000a81548160ff021916908315150217905550905050604051806101000160405280604051806060016040528060298152602001620059346029913981526020016040518060400160405280600c81526020017f696d616765732f372e6a70670000000000000000000000000000000000000000815250815260200160038152602001600081526020016000815260200160405180610100016040528060d981526020016200595d60d991398152602001600073ffffffffffffffffffffffffffffffffffffffff168152602001600015158152506006600060078152602001908152602001600020600082015181600001908162000bd09190620010c8565b50602082015181600101908162000be89190620010c8565b5060408201518160020155606082015181600301556080820151816004015560a082015181600501908162000c1e9190620010c8565b5060c08201518160060160006101000a81548173ffffffffffffffffffffffffffffffffffffffff021916908373ffffffffffffffffffffffffffffffffffffffff16021790555060e08201518160060160146101000a81548160ff0219169083151502179055509050506040518061010001604052806040518060400160405280601581526020017f5465612054617374696e672061742043756927616e000000000000000000000081525081526020016040518060400160405280600c81526020017f696d616765732f382e6a70670000000000000000000000000000000000000000815250815260200160038152602001600081526020016000815260200160405180610120016040528060e7815260200162005e4660e791398152602001600073ffffffffffffffffffffffffffffffffffffffff168152602001600015158152506006600060088152602001908152602001600020600082015181600001908162000d8f9190620010c8565b50602082015181600101908162000da79190620010c8565b5060408201518160020155606082015181600301556080820151816004015560a082015181600501908162000ddd9190620010c8565b5060c08201518160060160006101000a81548173ffffffffffffffffffffffffffffffffffffffff021916908373ffffffffffffffffffffffffffffffffffffffff16021790555060e08201518160060160146101000a81548160ff021916908315150217905550905050620011af565b600081519050919050565b7f4e487b7100000000000000000000000000000000000000000000000000000000600052604160045260246000fd5b7f4e487b7100000000000000000000000000000000000000000000000000000000600052602260045260246000fd5b6000600282049050600182168062000ed057607f821691505b60208210810362000ee65762000ee562000e88565b5b50919050565b60008190508160005260206000209050919050565b60006020601f8301049050919050565b600082821b905092915050565b60006008830262000f507fffffffffffffffffffffffffffffffffffffffffffffffffffffffffffffffff8262000f11565b62000f5c868362000f11565b95508019841693508086168417925050509392505050565b6000819050919050565b6000819050919050565b600062000fa962000fa362000f9d8462000f74565b62000f7e565b62000f74565b9050919050565b6000819050919050565b62000fc58362000f88565b62000fdd62000fd48262000fb0565b84845462000f1e565b825550505050565b600090565b62000ff462000fe5565b6200100181848462000fba565b505050565b5b8181101562001029576200101d60008262000fea565b60018101905062001007565b5050565b601f8211156200107857620010428162000eec565b6200104d8462000f01565b810160208510156200105d578190505b620010756200106c8562000f01565b83018262001006565b50505b505050565b600082821c905092915050565b60006200109d600019846008026200107d565b1980831691505092915050565b6000620010b883836200108a565b9150826002028217905092915050565b620010d38262000e4e565b67ffffffffffffffff811115620010ef57620010ee62000e59565b5b620010fb825462000eb7565b620011088282856200102d565b600060209050601f8311600181146200114057600084156200112b578287015190505b620011378582620010aa565b865550620011a7565b601f198416620011508662000eec565b60005b828110156200117a5784890151825560018201915060208501945060208101905062001153565b868310156200119a578489015162001196601f8916826200108a565b8355505b6001600288020188555050505b505050505050565b61468980620011bf6000396000f3fe60806040526004361061014f5760003560e01c806363af31f2116100b6578063b88d4fde1161006f578063b88d4fde146104ce578063bf2f34b0146104f7578063c87b56dd14610513578063d36c8c3d14610550578063d9d6165514610593578063e985e9c5146105d057610156565b806363af31f2146103b357806370a08231146103cf57806391c6af031461040c57806395d89b411461044f578063a22cb4651461047a578063a87d942c146104a357610156565b8063265aa62111610108578063265aa6211461027a57806328b60031146102be57806342817ecd146102fb57806342842e0e146103245780635b7829841461034d5780636352211e1461037657610156565b806301ffc9a71461015857806306fdde0314610195578063081812fc146101c0578063095ea7b3146101fd5780630af2c6ca1461022657806323b872dd1461025157610156565b3661015657005b005b34801561016457600080fd5b5061017f600480360381019061017a9190612d59565b61060d565b60405161018c9190612da1565b60405180910390f35b3480156101a157600080fd5b506101aa6106ef565b6040516101b79190612e4c565b60405180910390f35b3480156101cc57600080fd5b506101e760048036038101906101e29190612ea4565b610781565b6040516101f49190612f12565b60405180910390f35b34801561020957600080fd5b50610224600480360381019061021f9190612f59565b610806565b005b34801561023257600080fd5b5061023b61091d565b6040516102489190612fa8565b60405180910390f35b34801561025d57600080fd5b5061027860048036038101906102739190612fc3565b610923565b005b34801561028657600080fd5b506102a1600480360381019061029c9190612ea4565b610983565b6040516102b5989796959493929190613037565b60405180910390f35b3480156102ca57600080fd5b506102e560048036038101906102e09190612f59565b610b90565b6040516102f29190612fa8565b60405180910390f35b34801561030757600080fd5b50610322600480360381019061031d9190612ea4565b610bc1565b005b34801561033057600080fd5b5061034b60048036038101906103469190612fc3565b610ed6565b005b34801561035957600080fd5b50610374600480360381019061036f91906131ff565b610ef6565b005b34801561038257600080fd5b5061039d60048036038101906103989190612ea4565b6110bb565b6040516103aa9190612f12565b60405180910390f35b6103cd60048036038101906103c89190612ea4565b61116c565b005b3480156103db57600080fd5b506103f660048036038101906103f1919061328a565b61139a565b6040516104039190612fa8565b60405180910390f35b34801561041857600080fd5b50610433600480360381019061042e9190612ea4565b611451565b60405161044697969594939291906132b7565b60405180910390f35b34801561045b57600080fd5b50610464611701565b6040516104719190612e4c565b60405180910390f35b34801561048657600080fd5b506104a1600480360381019061049c9190613367565b611793565b005b3480156104af57600080fd5b506104b86117a9565b6040516104c59190612fa8565b60405180910390f35b3480156104da57600080fd5b506104f560048036038101906104f09190613448565b6117b3565b005b610511600480360381019061050c9190612ea4565b611815565b005b34801561051f57600080fd5b5061053a60048036038101906105359190612ea4565b611abc565b6040516105479190612e4c565b60405180910390f35b34801561055c57600080fd5b5061057760048036038101906105729190612ea4565b611b63565b60405161058a97969594939291906132b7565b60405180910390f35b34801561059f57600080fd5b506105ba60048036038101906105b5919061328a565b611e13565b6040516105c79190613589565b60405180910390f35b3480156105dc57600080fd5b506105f760048036038101906105f291906135ab565b611eaa565b6040516106049190612da1565b60405180910390f35b60007f80ac58cd000000000000000000000000000000000000000000000000000000007bffffffffffffffffffffffffffffffffffffffffffffffffffffffff1916827bffffffffffffffffffffffffffffffffffffffffffffffffffffffff191614806106d857507f5b5e139f000000000000000000000000000000000000000000000000000000007bffffffffffffffffffffffffffffffffffffffffffffffffffffffff1916827bffffffffffffffffffffffffffffffffffffffffffffffffffffffff1916145b806106e857506106e782611f3e565b5b9050919050565b6060600080546106fe9061361a565b80601f016020809104026020016040519081016040528092919081815260200182805461072a9061361a565b80156107775780601f1061074c57610100808354040283529160200191610777565b820191906000526020600020905b81548152906001019060200180831161075a57829003601f168201915b5050505050905090565b600061078c82611fa8565b6107cb576040517f08c379a00000000000000000000000000000000000000000000000000000000081526004016107c2906136bd565b60405180910390fd5b6004600083815260200190815260200160002060009054906101000a900473ffffffffffffffffffffffffffffffffffffffff169050919050565b6000610811826110bb565b90508073ffffffffffffffffffffffffffffffffffffffff168373ffffffffffffffffffffffffffffffffffffffff1603610881576040517f08c379a00000000000000000000000000000000000000000000000000000000081526004016108789061374f565b60405180910390fd5b8073ffffffffffffffffffffffffffffffffffffffff166108a0612014565b73ffffffffffffffffffffffffffffffffffffffff1614806108cf57506108ce816108c9612014565b611eaa565b5b61090e576040517f08c379a0000000000000000000000000000000000000000000000000000000008152600401610905906137e1565b60405180910390fd5b610918838361201c565b505050565b60085481565b61093461092e612014565b826120d5565b610973576040517f08c379a000000000000000000000000000000000000000000000000000000000815260040161096a90613873565b60405180910390fd5b61097e8383836121b3565b505050565b60066020528060005260406000206000915090508060000180546109a69061361a565b80601f01602080910402602001604051908101604052809291908181526020018280546109d29061361a565b8015610a1f5780601f106109f457610100808354040283529160200191610a1f565b820191906000526020600020905b815481529060010190602001808311610a0257829003601f168201915b505050505090806001018054610a349061361a565b80601f0160208091040260200160405190810160405280929190818152602001828054610a609061361a565b8015610aad5780601f10610a8257610100808354040283529160200191610aad565b820191906000526020600020905b815481529060010190602001808311610a9057829003601f168201915b505050505090806002015490806003015490806004015490806005018054610ad49061361a565b80601f0160208091040260200160405190810160405280929190818152602001828054610b009061361a565b8015610b4d5780601f10610b2257610100808354040283529160200191610b4d565b820191906000526020600020905b815481529060010190602001808311610b3057829003601f168201915b5050505050908060060160009054906101000a900473ffffffffffffffffffffffffffffffffffffffff16908060060160149054906101000a900460ff16905088565b60076020528160005260406000208181548110610bac57600080fd5b90600052602060002001600091509150505481565b3373ffffffffffffffffffffffffffffffffffffffff166006600083815260200190815260200160002060060160009054906101000a900473ffffffffffffffffffffffffffffffffffffffff1673ffffffffffffffffffffffffffffffffffffffff1614610c65576040517f08c379a0000000000000000000000000000000000000000000000000000000008152600401610c5c906138df565b60405180910390fd5b610c6f3382612419565b610cae576040517f08c379a0000000000000000000000000000000000000000000000000000000008152600401610ca59061394b565b60405180910390fd5b3373ffffffffffffffffffffffffffffffffffffffff16610cce826110bb565b73ffffffffffffffffffffffffffffffffffffffff1614610d24576040517f08c379a0000000000000000000000000000000000000000000000000000000008152600401610d1b906139b7565b60405180910390fd5b610d2d81612504565b60016006600083815260200190815260200160002060060160146101000a81548160ff02191690831515021790555060006006600083815260200190815260200160002060040181905550600060066000838152602001908152602001600020600301819055506000600760003373ffffffffffffffffffffffffffffffffffffffff1673ffffffffffffffffffffffffffffffffffffffff168152602001908152602001600020905060005b8180549050811015610e985782828281548110610dfa57610df96139d7565b5b906000526020600020015403610e85578160018380549050610e1c9190613a35565b81548110610e2d57610e2c6139d7565b5b9060005260206000200154828281548110610e4b57610e4a6139d7565b5b906000526020600020018190555081805480610e6a57610e69613a69565b5b60019003818190600052602060002001600090559055610e98565b8080610e9090613a98565b915050610dda565b507ffa9b8d7a5322ce99e49fe0bb8a9dae40e0af71e721da0bab9d9bb9a92602c5b98233604051610eca929190613ae0565b60405180910390a15050565b610ef1838383604051806020016040528060008152506117b3565b505050565b6001600854610f059190613b09565b600881905550600060085490506040518061010001604052808581526020016040518060400160405280601181526020017f696d616765732f626f7865722e6a70656700000000000000000000000000000081525081526020018481526020016000815260200160008152602001838152602001600073ffffffffffffffffffffffffffffffffffffffff16815260200160001515815250600660008381526020019081526020016000206000820151816000019081610fc59190613ce9565b506020820151816001019081610fdb9190613ce9565b5060408201518160020155606082015181600301556080820151816004015560a082015181600501908161100f9190613ce9565b5060c08201518160060160006101000a81548173ffffffffffffffffffffffffffffffffffffffff021916908373ffffffffffffffffffffffffffffffffffffffff16021790555060e08201518160060160146101000a81548160ff0219169083151502179055509050507f31e4051d8f36e404bf4b7c6571fbd91da0297dd12f7831e8b6b11bf0adc0a0aa8185336040516110ad93929190613dbb565b60405180910390a150505050565b6000806002600084815260200190815260200160002060009054906101000a900473ffffffffffffffffffffffffffffffffffffffff169050600073ffffffffffffffffffffffffffffffffffffffff168173ffffffffffffffffffffffffffffffffffffffff1603611163576040517f08c379a000000000000000000000000000000000000000000000000000000000815260040161115a90613e6b565b60405180910390fd5b80915050919050565b6006600082815260200190815260200160002060060160149054906101000a900460ff16156111d0576040517f08c379a00000000000000000000000000000000000000000000000000000000081526004016111c790613ed7565b60405180910390fd5b6006600082815260200190815260200160002060060160009054906101000a900473ffffffffffffffffffffffffffffffffffffffff1673ffffffffffffffffffffffffffffffffffffffff166108fc60066000848152602001908152602001600020600201549081150290604051600060405180830381858888f19350505050158015611262573d6000803e3d6000fd5b50336006600083815260200190815260200160002060060160006101000a81548173ffffffffffffffffffffffffffffffffffffffff021916908373ffffffffffffffffffffffffffffffffffffffff1602179055508060066000838152602001908152602001600020600401819055504260066000838152602001908152602001600020600301819055506112f83382612621565b600760003373ffffffffffffffffffffffffffffffffffffffff1673ffffffffffffffffffffffffffffffffffffffff1681526020019081526020016000208190806001815401808255809150506001900390600052602060002001600090919091909150557fbebca6653c629a651174dc2ea9b9f7ef506290dee89fe1a6087eb1e12c06d430813360405161138f929190613ae0565b60405180910390a150565b60008073ffffffffffffffffffffffffffffffffffffffff168273ffffffffffffffffffffffffffffffffffffffff160361140a576040517f08c379a000000000000000000000000000000000000000000000000000000000815260040161140190613f69565b60405180910390fd5b600360008373ffffffffffffffffffffffffffffffffffffffff1673ffffffffffffffffffffffffffffffffffffffff168152602001908152602001600020549050919050565b60608060008060606000806000600660008a81526020019081526020016000206040518061010001604052908160008201805461148d9061361a565b80601f01602080910402602001604051908101604052809291908181526020018280546114b99061361a565b80156115065780601f106114db57610100808354040283529160200191611506565b820191906000526020600020905b8154815290600101906020018083116114e957829003601f168201915b5050505050815260200160018201805461151f9061361a565b80601f016020809104026020016040519081016040528092919081815260200182805461154b9061361a565b80156115985780601f1061156d57610100808354040283529160200191611598565b820191906000526020600020905b81548152906001019060200180831161157b57829003601f168201915b505050505081526020016002820154815260200160038201548152602001600482015481526020016005820180546115cf9061361a565b80601f01602080910402602001604051908101604052809291908181526020018280546115fb9061361a565b80156116485780601f1061161d57610100808354040283529160200191611648565b820191906000526020600020905b81548152906001019060200180831161162b57829003601f168201915b505050505081526020016006820160009054906101000a900473ffffffffffffffffffffffffffffffffffffffff1673ffffffffffffffffffffffffffffffffffffffff1673ffffffffffffffffffffffffffffffffffffffff1681526020016006820160149054906101000a900460ff161515151581525050905080600001518160a0015182604001518360e00151846020015185608001518660600151975097509750975097509750975050919395979092949650565b6060600180546117109061361a565b80601f016020809104026020016040519081016040528092919081815260200182805461173c9061361a565b80156117895780601f1061175e57610100808354040283529160200191611789565b820191906000526020600020905b81548152906001019060200180831161176c57829003601f168201915b5050505050905090565b6117a561179e612014565b83836127fa565b5050565b6000600854905090565b6117c46117be612014565b836120d5565b611803576040517f08c379a00000000000000000000000000000000000000000000000000000000081526004016117fa90613873565b60405180910390fd5b61180f84848484612966565b50505050565b67016345785d8a0000341015611860576040517f08c379a000000000000000000000000000000000000000000000000000000000815260040161185790613fd5565b60405180910390fd5b6006600082815260200190815260200160002060060160149054906101000a900460ff166118c3576040517f08c379a00000000000000000000000000000000000000000000000000000000081526004016118ba90614041565b60405180910390fd5b6006600082815260200190815260200160002060060160009054906101000a900473ffffffffffffffffffffffffffffffffffffffff1673ffffffffffffffffffffffffffffffffffffffff166108fc60066000848152602001908152602001600020600201549081150290604051600060405180830381858888f19350505050158015611955573d6000803e3d6000fd5b5060006006600083815260200190815260200160002060060160146101000a81548160ff021916908315150217905550336006600083815260200190815260200160002060060160006101000a81548173ffffffffffffffffffffffffffffffffffffffff021916908373ffffffffffffffffffffffffffffffffffffffff160217905550806006600083815260200190815260200160002060040181905550426006600083815260200190815260200160002060030181905550611a1a3382612621565b600760003373ffffffffffffffffffffffffffffffffffffffff1673ffffffffffffffffffffffffffffffffffffffff1681526020019081526020016000208190806001815401808255809150506001900390600052602060002001600090919091909150557fbebca6653c629a651174dc2ea9b9f7ef506290dee89fe1a6087eb1e12c06d4308133604051611ab1929190613ae0565b60405180910390a150565b6060611ac782611fa8565b611b06576040517f08c379a0000000000000000000000000000000000000000000000000000000008152600401611afd906140d3565b60405180910390fd5b6000611b106129c2565b90506000815111611b305760405180602001604052806000815250611b5b565b80611b3a846129d9565b604051602001611b4b92919061412f565b6040516020818303038152906040525b915050919050565b60608060008060606000806000600660008a815260200190815260200160002060405180610100016040529081600082018054611b9f9061361a565b80601f0160208091040260200160405190810160405280929190818152602001828054611bcb9061361a565b8015611c185780601f10611bed57610100808354040283529160200191611c18565b820191906000526020600020905b815481529060010190602001808311611bfb57829003601f168201915b50505050508152602001600182018054611c319061361a565b80601f0160208091040260200160405190810160405280929190818152602001828054611c5d9061361a565b8015611caa5780601f10611c7f57610100808354040283529160200191611caa565b820191906000526020600020905b815481529060010190602001808311611c8d57829003601f168201915b50505050508152602001600282015481526020016003820154815260200160048201548152602001600582018054611ce19061361a565b80601f0160208091040260200160405190810160405280929190818152602001828054611d0d9061361a565b8015611d5a5780601f10611d2f57610100808354040283529160200191611d5a565b820191906000526020600020905b815481529060010190602001808311611d3d57829003601f168201915b505050505081526020016006820160009054906101000a900473ffffffffffffffffffffffffffffffffffffffff1673ffffffffffffffffffffffffffffffffffffffff1673ffffffffffffffffffffffffffffffffffffffff1681526020016006820160149054906101000a900460ff161515151581525050905080600001518160a0015182604001518360e00151846020015185608001518660600151975097509750975097509750975050919395979092949650565b6060600760008373ffffffffffffffffffffffffffffffffffffffff1673ffffffffffffffffffffffffffffffffffffffff168152602001908152602001600020805480602002602001604051908101604052809291908181526020018280548015611e9e57602002820191906000526020600020905b815481526020019060010190808311611e8a575b50505050509050919050565b6000600560008473ffffffffffffffffffffffffffffffffffffffff1673ffffffffffffffffffffffffffffffffffffffff16815260200190815260200160002060008373ffffffffffffffffffffffffffffffffffffffff1673ffffffffffffffffffffffffffffffffffffffff16815260200190815260200160002060009054906101000a900460ff16905092915050565b60007f01ffc9a7000000000000000000000000000000000000000000000000000000007bffffffffffffffffffffffffffffffffffffffffffffffffffffffff1916827bffffffffffffffffffffffffffffffffffffffffffffffffffffffff1916149050919050565b60008073ffffffffffffffffffffffffffffffffffffffff166002600084815260200190815260200160002060009054906101000a900473ffffffffffffffffffffffffffffffffffffffff1673ffffffffffffffffffffffffffffffffffffffff1614159050919050565b600033905090565b816004600083815260200190815260200160002060006101000a81548173ffffffffffffffffffffffffffffffffffffffff021916908373ffffffffffffffffffffffffffffffffffffffff160217905550808273ffffffffffffffffffffffffffffffffffffffff1661208f836110bb565b73ffffffffffffffffffffffffffffffffffffffff167f8c5be1e5ebec7d5bd14f71427d1e84f3dd0314c0f7b2291e5b200ac8c7c3b92560405160405180910390a45050565b60006120e082611fa8565b61211f576040517f08c379a0000000000000000000000000000000000000000000000000000000008152600401612116906141c5565b60405180910390fd5b600061212a836110bb565b90508073ffffffffffffffffffffffffffffffffffffffff168473ffffffffffffffffffffffffffffffffffffffff16148061219957508373ffffffffffffffffffffffffffffffffffffffff1661218184610781565b73ffffffffffffffffffffffffffffffffffffffff16145b806121aa57506121a98185611eaa565b5b91505092915050565b8273ffffffffffffffffffffffffffffffffffffffff166121d3826110bb565b73ffffffffffffffffffffffffffffffffffffffff1614612229576040517f08c379a000000000000000000000000000000000000000000000000000000000815260040161222090614257565b60405180910390fd5b600073ffffffffffffffffffffffffffffffffffffffff168273ffffffffffffffffffffffffffffffffffffffff1603612298576040517f08c379a000000000000000000000000000000000000000000000000000000000815260040161228f906142e9565b60405180910390fd5b6122a3838383612b39565b6122ae60008261201c565b6001600360008573ffffffffffffffffffffffffffffffffffffffff1673ffffffffffffffffffffffffffffffffffffffff16815260200190815260200160002060008282546122fe9190613a35565b925050819055506001600360008473ffffffffffffffffffffffffffffffffffffffff1673ffffffffffffffffffffffffffffffffffffffff16815260200190815260200160002060008282546123559190613b09565b92505081905550816002600083815260200190815260200160002060006101000a81548173ffffffffffffffffffffffffffffffffffffffff021916908373ffffffffffffffffffffffffffffffffffffffff160217905550808273ffffffffffffffffffffffffffffffffffffffff168473ffffffffffffffffffffffffffffffffffffffff167fddf252ad1be2c89b69c2b068fc378daa952ba7f163c4a11628f55a4df523b3ef60405160405180910390a4612414838383612b3e565b505050565b600080600760008573ffffffffffffffffffffffffffffffffffffffff1673ffffffffffffffffffffffffffffffffffffffff1681526020019081526020016000208054806020026020016040519081016040528092919081815260200182805480156124a557602002820191906000526020600020905b815481526020019060010190808311612491575b5050505050905060005b81518110156124f757838282815181106124cc576124cb6139d7565b5b6020026020010151036124e4576001925050506124fe565b80806124ef90613a98565b9150506124af565b5060009150505b92915050565b600061250f826110bb565b905061251d81600084612b39565b61252860008361201c565b6001600360008373ffffffffffffffffffffffffffffffffffffffff1673ffffffffffffffffffffffffffffffffffffffff16815260200190815260200160002060008282546125789190613a35565b925050819055506002600083815260200190815260200160002060006101000a81549073ffffffffffffffffffffffffffffffffffffffff021916905581600073ffffffffffffffffffffffffffffffffffffffff168273ffffffffffffffffffffffffffffffffffffffff167fddf252ad1be2c89b69c2b068fc378daa952ba7f163c4a11628f55a4df523b3ef60405160405180910390a461261d81600084612b3e565b5050565b600073ffffffffffffffffffffffffffffffffffffffff168273ffffffffffffffffffffffffffffffffffffffff1603612690576040517f08c379a000000000000000000000000000000000000000000000000000000000815260040161268790614355565b60405180910390fd5b61269981611fa8565b156126d9576040517f08c379a00000000000000000000000000000000000000000000000000000000081526004016126d0906143c1565b60405180910390fd5b6126e560008383612b39565b6001600360008473ffffffffffffffffffffffffffffffffffffffff1673ffffffffffffffffffffffffffffffffffffffff16815260200190815260200160002060008282546127359190613b09565b92505081905550816002600083815260200190815260200160002060006101000a81548173ffffffffffffffffffffffffffffffffffffffff021916908373ffffffffffffffffffffffffffffffffffffffff160217905550808273ffffffffffffffffffffffffffffffffffffffff16600073ffffffffffffffffffffffffffffffffffffffff167fddf252ad1be2c89b69c2b068fc378daa952ba7f163c4a11628f55a4df523b3ef60405160405180910390a46127f660008383612b3e565b5050565b8173ffffffffffffffffffffffffffffffffffffffff168373ffffffffffffffffffffffffffffffffffffffff1603612868576040517f08c379a000000000000000000000000000000000000000000000000000000000815260040161285f9061442d565b60405180910390fd5b80600560008573ffffffffffffffffffffffffffffffffffffffff1673ffffffffffffffffffffffffffffffffffffffff16815260200190815260200160002060008473ffffffffffffffffffffffffffffffffffffffff1673ffffffffffffffffffffffffffffffffffffffff16815260200190815260200160002060006101000a81548160ff0219169083151502179055508173ffffffffffffffffffffffffffffffffffffffff168373ffffffffffffffffffffffffffffffffffffffff167f17307eab39ab6107e8899845ad3d59bd9653f200f220920489ca2b5937696c31836040516129599190612da1565b60405180910390a3505050565b6129718484846121b3565b61297d84848484612b43565b6129bc576040517f08c379a00000000000000000000000000000000000000000000000000000000081526004016129b3906144bf565b60405180910390fd5b50505050565b606060405180602001604052806000815250905090565b606060008203612a20576040518060400160405280600181526020017f30000000000000000000000000000000000000000000000000000000000000008152509050612b34565b600082905060005b60008214612a52578080612a3b90613a98565b915050600a82612a4b919061450e565b9150612a28565b60008167ffffffffffffffff811115612a6e57612a6d6130d4565b5b6040519080825280601f01601f191660200182016040528015612aa05781602001600182028036833780820191505090505b5090505b60008514612b2d57600182612ab99190613a35565b9150600a85612ac8919061453f565b6030612ad49190613b09565b60f81b818381518110612aea57612ae96139d7565b5b60200101907effffffffffffffffffffffffffffffffffffffffffffffffffffffffffffff1916908160001a905350600a85612b26919061450e565b9450612aa4565b8093505050505b919050565b505050565b505050565b6000612b648473ffffffffffffffffffffffffffffffffffffffff16612cca565b15612cbd578373ffffffffffffffffffffffffffffffffffffffff1663150b7a02612b8d612014565b8786866040518563ffffffff1660e01b8152600401612baf94939291906145c5565b6020604051808303816000875af1925050508015612beb57506040513d601f19601f82011682018060405250810190612be89190614626565b60015b612c6d573d8060008114612c1b576040519150601f19603f3d011682016040523d82523d6000602084013e612c20565b606091505b506000815103612c65576040517f08c379a0000000000000000000000000000000000000000000000000000000008152600401612c5c906144bf565b60405180910390fd5b805181602001fd5b63150b7a0260e01b7bffffffffffffffffffffffffffffffffffffffffffffffffffffffff1916817bffffffffffffffffffffffffffffffffffffffffffffffffffffffff191614915050612cc2565b600190505b949350505050565b6000808273ffffffffffffffffffffffffffffffffffffffff163b119050919050565b6000604051905090565b600080fd5b600080fd5b60007fffffffff0000000000000000000000000000000000000000000000000000000082169050919050565b612d3681612d01565b8114612d4157600080fd5b50565b600081359050612d5381612d2d565b92915050565b600060208284031215612d6f57612d6e612cf7565b5b6000612d7d84828501612d44565b91505092915050565b60008115159050919050565b612d9b81612d86565b82525050565b6000602082019050612db66000830184612d92565b92915050565b600081519050919050565b600082825260208201905092915050565b60005b83811015612df6578082015181840152602081019050612ddb565b60008484015250505050565b6000601f19601f8301169050919050565b6000612e1e82612dbc565b612e288185612dc7565b9350612e38818560208601612dd8565b612e4181612e02565b840191505092915050565b60006020820190508181036000830152612e668184612e13565b905092915050565b6000819050919050565b612e8181612e6e565b8114612e8c57600080fd5b50565b600081359050612e9e81612e78565b92915050565b600060208284031215612eba57612eb9612cf7565b5b6000612ec884828501612e8f565b91505092915050565b600073ffffffffffffffffffffffffffffffffffffffff82169050919050565b6000612efc82612ed1565b9050919050565b612f0c81612ef1565b82525050565b6000602082019050612f276000830184612f03565b92915050565b612f3681612ef1565b8114612f4157600080fd5b50565b600081359050612f5381612f2d565b92915050565b60008060408385031215612f7057612f6f612cf7565b5b6000612f7e85828601612f44565b9250506020612f8f85828601612e8f565b9150509250929050565b612fa281612e6e565b82525050565b6000602082019050612fbd6000830184612f99565b92915050565b600080600060608486031215612fdc57612fdb612cf7565b5b6000612fea86828701612f44565b9350506020612ffb86828701612f44565b925050604061300c86828701612e8f565b9150509250925092565b600061302182612ed1565b9050919050565b61303181613016565b82525050565b6000610100820190508181036000830152613052818b612e13565b90508181036020830152613066818a612e13565b90506130756040830189612f99565b6130826060830188612f99565b61308f6080830187612f99565b81810360a08301526130a18186612e13565b90506130b060c0830185613028565b6130bd60e0830184612d92565b9998505050505050505050565b600080fd5b600080fd5b7f4e487b7100000000000000000000000000000000000000000000000000000000600052604160045260246000fd5b61310c82612e02565b810181811067ffffffffffffffff8211171561312b5761312a6130d4565b5b80604052505050565b600061313e612ced565b905061314a8282613103565b919050565b600067ffffffffffffffff82111561316a576131696130d4565b5b61317382612e02565b9050602081019050919050565b82818337600083830152505050565b60006131a261319d8461314f565b613134565b9050828152602081018484840111156131be576131bd6130cf565b5b6131c9848285613180565b509392505050565b600082601f8301126131e6576131e56130ca565b5b81356131f684826020860161318f565b91505092915050565b60008060006060848603121561321857613217612cf7565b5b600084013567ffffffffffffffff81111561323657613235612cfc565b5b613242868287016131d1565b935050602061325386828701612e8f565b925050604084013567ffffffffffffffff81111561327457613273612cfc565b5b613280868287016131d1565b9150509250925092565b6000602082840312156132a05761329f612cf7565b5b60006132ae84828501612f44565b91505092915050565b600060e08201905081810360008301526132d1818a612e13565b905081810360208301526132e58189612e13565b90506132f46040830188612f99565b6133016060830187612d92565b81810360808301526133138186612e13565b905061332260a0830185612f99565b61332f60c0830184612f99565b98975050505050505050565b61334481612d86565b811461334f57600080fd5b50565b6000813590506133618161333b565b92915050565b6000806040838503121561337e5761337d612cf7565b5b600061338c85828601612f44565b925050602061339d85828601613352565b9150509250929050565b600067ffffffffffffffff8211156133c2576133c16130d4565b5b6133cb82612e02565b9050602081019050919050565b60006133eb6133e6846133a7565b613134565b905082815260208101848484011115613407576134066130cf565b5b613412848285613180565b509392505050565b600082601f83011261342f5761342e6130ca565b5b813561343f8482602086016133d8565b91505092915050565b6000806000806080858703121561346257613461612cf7565b5b600061347087828801612f44565b945050602061348187828801612f44565b935050604061349287828801612e8f565b925050606085013567ffffffffffffffff8111156134b3576134b2612cfc565b5b6134bf8782880161341a565b91505092959194509250565b600081519050919050565b600082825260208201905092915050565b6000819050602082019050919050565b61350081612e6e565b82525050565b600061351283836134f7565b60208301905092915050565b6000602082019050919050565b6000613536826134cb565b61354081856134d6565b935061354b836134e7565b8060005b8381101561357c5781516135638882613506565b975061356e8361351e565b92505060018101905061354f565b5085935050505092915050565b600060208201905081810360008301526135a3818461352b565b905092915050565b600080604083850312156135c2576135c1612cf7565b5b60006135d085828601612f44565b92505060206135e185828601612f44565b9150509250929050565b7f4e487b7100000000000000000000000000000000000000000000000000000000600052602260045260246000fd5b6000600282049050600182168061363257607f821691505b602082108103613645576136446135eb565b5b50919050565b7f4552433732313a20617070726f76656420717565727920666f72206e6f6e657860008201527f697374656e7420746f6b656e0000000000000000000000000000000000000000602082015250565b60006136a7602c83612dc7565b91506136b28261364b565b604082019050919050565b600060208201905081810360008301526136d68161369a565b9050919050565b7f4552433732313a20617070726f76616c20746f2063757272656e74206f776e6560008201527f7200000000000000000000000000000000000000000000000000000000000000602082015250565b6000613739602183612dc7565b9150613744826136dd565b604082019050919050565b600060208201905081810360008301526137688161372c565b9050919050565b7f4552433732313a20617070726f76652063616c6c6572206973206e6f74206f7760008201527f6e6572206e6f7220617070726f76656420666f7220616c6c0000000000000000602082015250565b60006137cb603883612dc7565b91506137d68261376f565b604082019050919050565b600060208201905081810360008301526137fa816137be565b9050919050565b7f4552433732313a207472616e736665722063616c6c6572206973206e6f74206f60008201527f776e6572206e6f7220617070726f766564000000000000000000000000000000602082015250565b600061385d603183612dc7565b915061386882613801565b604082019050919050565b6000602082019050818103600083015261388c81613850565b9050919050565b7f4e6f7420746865206f776e657200000000000000000000000000000000000000600082015250565b60006138c9600d83612dc7565b91506138d482613893565b602082019050919050565b600060208201905081810360008301526138f8816138bc565b9050919050565b7f546f6b656e206e6f74206f776e65642062792074686973206164647265737300600082015250565b6000613935601f83612dc7565b9150613940826138ff565b602082019050919050565b6000602082019050818103600083015261396481613928565b9050919050565b7f4e6f742074686520746f6b656e206f776e657200000000000000000000000000600082015250565b60006139a1601383612dc7565b91506139ac8261396b565b602082019050919050565b600060208201905081810360008301526139d081613994565b9050919050565b7f4e487b7100000000000000000000000000000000000000000000000000000000600052603260045260246000fd5b7f4e487b7100000000000000000000000000000000000000000000000000000000600052601160045260246000fd5b6000613a4082612e6e565b9150613a4b83612e6e565b9250828203905081811115613a6357613a62613a06565b5b92915050565b7f4e487b7100000000000000000000000000000000000000000000000000000000600052603160045260246000fd5b6000613aa382612e6e565b91507fffffffffffffffffffffffffffffffffffffffffffffffffffffffffffffffff8203613ad557613ad4613a06565b5b600182019050919050565b6000604082019050613af56000830185612f99565b613b026020830184612f03565b9392505050565b6000613b1482612e6e565b9150613b1f83612e6e565b9250828201905080821115613b3757613b36613a06565b5b92915050565b60008190508160005260206000209050919050565b60006020601f8301049050919050565b600082821b905092915050565b600060088302613b9f7fffffffffffffffffffffffffffffffffffffffffffffffffffffffffffffffff82613b62565b613ba98683613b62565b95508019841693508086168417925050509392505050565b6000819050919050565b6000613be6613be1613bdc84612e6e565b613bc1565b612e6e565b9050919050565b6000819050919050565b613c0083613bcb565b613c14613c0c82613bed565b848454613b6f565b825550505050565b600090565b613c29613c1c565b613c34818484613bf7565b505050565b5b81811015613c5857613c4d600082613c21565b600181019050613c3a565b5050565b601f821115613c9d57613c6e81613b3d565b613c7784613b52565b81016020851015613c86578190505b613c9a613c9285613b52565b830182613c39565b50505b505050565b600082821c905092915050565b6000613cc060001984600802613ca2565b1980831691505092915050565b6000613cd98383613caf565b9150826002028217905092915050565b613cf282612dbc565b67ffffffffffffffff811115613d0b57613d0a6130d4565b5b613d15825461361a565b613d20828285613c5c565b600060209050601f831160018114613d535760008415613d41578287015190505b613d4b8582613ccd565b865550613db3565b601f198416613d6186613b3d565b60005b82811015613d8957848901518255600182019150602085019450602081019050613d64565b86831015613da65784890151613da2601f891682613caf565b8355505b6001600288020188555050505b505050505050565b6000606082019050613dd06000830186612f99565b8181036020830152613de28185612e13565b9050613df16040830184612f03565b949350505050565b7f4552433732313a206f776e657220717565727920666f72206e6f6e657869737460008201527f656e7420746f6b656e0000000000000000000000000000000000000000000000602082015250565b6000613e55602983612dc7565b9150613e6082613df9565b604082019050919050565b60006020820190508181036000830152613e8481613e48565b9050919050565b7f4e465420616c726561647920666f722073616c65000000000000000000000000600082015250565b6000613ec1601483612dc7565b9150613ecc82613e8b565b602082019050919050565b60006020820190508181036000830152613ef081613eb4565b9050919050565b7f4552433732313a2062616c616e636520717565727920666f7220746865207a6560008201527f726f206164647265737300000000000000000000000000000000000000000000602082015250565b6000613f53602a83612dc7565b9150613f5e82613ef7565b604082019050919050565b60006020820190508181036000830152613f8281613f46565b9050919050565b7f4e6f7420656e6f7567682045746865722070726f76696465642e000000000000600082015250565b6000613fbf601a83612dc7565b9150613fca82613f89565b602082019050919050565b60006020820190508181036000830152613fee81613fb2565b9050919050565b7f4e4654206e6f7420666f722073616c6500000000000000000000000000000000600082015250565b600061402b601083612dc7565b915061403682613ff5565b602082019050919050565b6000602082019050818103600083015261405a8161401e565b9050919050565b7f4552433732314d657461646174613a2055524920717565727920666f72206e6f60008201527f6e6578697374656e7420746f6b656e0000000000000000000000000000000000602082015250565b60006140bd602f83612dc7565b91506140c882614061565b604082019050919050565b600060208201905081810360008301526140ec816140b0565b9050919050565b600081905092915050565b600061410982612dbc565b61411381856140f3565b9350614123818560208601612dd8565b80840191505092915050565b600061413b82856140fe565b915061414782846140fe565b91508190509392505050565b7f4552433732313a206f70657261746f7220717565727920666f72206e6f6e657860008201527f697374656e7420746f6b656e0000000000000000000000000000000000000000602082015250565b60006141af602c83612dc7565b91506141ba82614153565b604082019050919050565b600060208201905081810360008301526141de816141a2565b9050919050565b7f4552433732313a207472616e736665722066726f6d20696e636f72726563742060008201527f6f776e6572000000000000000000000000000000000000000000000000000000602082015250565b6000614241602583612dc7565b915061424c826141e5565b604082019050919050565b6000602082019050818103600083015261427081614234565b9050919050565b7f4552433732313a207472616e7366657220746f20746865207a65726f2061646460008201527f7265737300000000000000000000000000000000000000000000000000000000602082015250565b60006142d3602483612dc7565b91506142de82614277565b604082019050919050565b60006020820190508181036000830152614302816142c6565b9050919050565b7f4552433732313a206d696e7420746f20746865207a65726f2061646472657373600082015250565b600061433f602083612dc7565b915061434a82614309565b602082019050919050565b6000602082019050818103600083015261436e81614332565b9050919050565b7f4552433732313a20746f6b656e20616c7265616479206d696e74656400000000600082015250565b60006143ab601c83612dc7565b91506143b682614375565b602082019050919050565b600060208201905081810360008301526143da8161439e565b9050919050565b7f4552433732313a20617070726f766520746f2063616c6c657200000000000000600082015250565b6000614417601983612dc7565b9150614422826143e1565b602082019050919050565b600060208201905081810360008301526144468161440a565b9050919050565b7f4552433732313a207472616e7366657220746f206e6f6e20455243373231526560008201527f63656976657220696d706c656d656e7465720000000000000000000000000000602082015250565b60006144a9603283612dc7565b91506144b48261444d565b604082019050919050565b600060208201905081810360008301526144d88161449c565b9050919050565b7f4e487b7100000000000000000000000000000000000000000000000000000000600052601260045260246000fd5b600061451982612e6e565b915061452483612e6e565b925082614534576145336144df565b5b828204905092915050565b600061454a82612e6e565b915061455583612e6e565b925082614565576145646144df565b5b828206905092915050565b600081519050919050565b600082825260208201905092915050565b600061459782614570565b6145a1818561457b565b93506145b1818560208601612dd8565b6145ba81612e02565b840191505092915050565b60006080820190506145da6000830187612f03565b6145e76020830186612f03565b6145f46040830185612f99565b8181036060830152614606818461458c565b905095945050505050565b60008151905061462081612d2d565b92915050565b60006020828403121561463c5761463b612cf7565b5b600061464a84828501614611565b9150509291505056fea26469706673582212207f5c5c90ea4cc4b507383efd49890190e9b55b966224e9b991690f79019dd22d64736f6c6343000813003343757272656e746c7920686f7573656420696e207468652050616c616365204d757365756d20696e204265696a696e672c206974206465706963747320746865207669766964206e61747572616c2065636f6c6f676963616c20626561757479206f662070656f6e6965732e2054686973207061696e74696e672062726f6b6520667265652066726f6d2074686520636f6e73747261696e7473206f6620696e6b206f75746c696e652c206469726563746c7920626c656e64696e6720636f6c6f727320616e6420776174657220746f20646f742074686520666c6f7765727320616e64206c65617665732e4d656970696e67207769746820466f7572204c6f76657320696e20426c756520616e6420576869746543757272656e746c7920686f7573656420696e207468652048756265692050726f76696e6369616c204d757365756d2c2061206e6174696f6e616c2066697273742d636c6173732063756c747572616c2072656c69632e20497427732061207261726520616e642070726563696f7573206578616d706c65206f66205975616e2044796e6173747920626c75652d616e642d776869746520706f7263656c61696e2c207072696d6172696c7920666561747572696e672068756d616e206669677572657320617320746865206d61696e207375626a6563742e5468652027537461747565206f66207468652053697820456c64657273272069732061207061696e74696e67206279207468652054616e672044796e6173747920617274697374204c75204c656e676a69612c2063757272656e746c7920686f7573656420696e207468652050616c616365204d757365756d20696e204265696a696e672c206361727279696e672070726f666f756e642072656c6967696f75732063756c747572616c20636f6e6e6f746174696f6e732e476f6c64204d6564616c206f6620746865205072696d6f726469616c2048656176656e6c7920536f7665726569676e4a616465204f726e616d656e74206f662048756d616e204865616420616e642053657270656e7420426f6479546865205072696d6f726469616c2048656176656e6c7920536f7665726569676e206f6620746865204a616465205075726974792c207468652068656164206f66207468652054687265652050757265204f6e657320696e2054616f69736d2c2073796d626f6c697a657320746865206368616f7320616e6420696e66696e697479206f662074686520756e6976657273652773206372656174696f6e2e546865206a616465206f726e616d656e74206f662068756d616e206865616420616e642073657270656e7420626f64792077617320756e656172746865642066726f6d2074686520746f6d62206f66204875616e67204a756e6d656e6720696e20746865206561726c7920537072696e6720616e6420417574756d6e20706572696f642c2070726f766964696e672076616c7561626c6520706879736963616c206461746120666f72207374756479696e672074686520636c6f7468696e6720616e64206a6164652063617276696e67206372616674736d616e73686970206f6620746865205a686f752044796e617374792e5468652027426f7368616e672052656164696e6720537469636b657227206973206120776f726b206f6e207061706572206279207468652066616d6f75732054616e672044796e617374792063616c6c6967726170686572204f7579616e672058756e2c206b6e6f776e20666f7220697473206578717569736974652063616c6c6967726170687920736b696c6c7320616e642070726f666f756e642063756c747572616c2068657269746167652e546865204e6174696f6e616c205374796c6520466f7274756e65204361742069732070726573656e74656420696e206120626c756520616e642072656420676c617a652c20776974682064656c696361746520706f7263656c61696e207175616c69747920616e64206120636c65616e20616e6420656c6567616e7420636f6c6f722e20497420697320776f72746879206f66206265696e672061206d61737465727069656365206f66204368696e65736520706f7263656c61696e2e4d69616f797520686f73746564207769746820686967682065746971756574746520746f2072656365697665204a6961204d7520616e64206865722070617274792e204d69616f797520707265706172656420646966666572656e74207479706573206f6620746561206163636f7264696e6720746f20746865206964656e74697469657320616e6420707265666572656e636573206f6620646966666572656e7420696e646976696475616c732c2073686f77636173696e672074686520696e747269636163696573206f662074686520616e6369656e742074656120636572656d6f6e792e",
  "immutableReferences": {},
  "source": "// SPDX-License-Identifier: MIT\r\npragma solidity ^0.8.19;\r\npragma experimental ABIEncoderV2;\r\n\r\nimport \"@openzeppelin/contracts/token/ERC721/ERC721.sol\"; //  ERC721 \r\n\r\ncontract DigitalCollectibleContract is ERC721 {\r\n    struct DigitalCollectible {\r\n        string name;\r\n        string picture;\r\n        uint value;\r\n        uint timestamp;\r\n        uint NFTCode;\r\n        string description;\r\n        address payable owner;\r\n        bool forSale;\r\n    }\r\n    // Pet[] public nfts;\r\n\r\n    //  ID \r\n    mapping(uint256 => DigitalCollectible) public nfts;\r\n\r\n    // ID\r\n    mapping(address => uint256[]) public ownerTokens;\r\n\r\n    // \r\n    uint256 public nftCount=8;\r\n\r\n    constructor() ERC721(\"DigitalCollectible\", \"DCT\") {\r\n\r\n        nfts[1] = DigitalCollectible(\r\n                \"Statue of the Six Elders\", // \"\"\r\n                \"images/1.jpg\",\r\n                3,\r\n                0,\r\n                0,\r\n                \"The 'Statue of the Six Elders' is a painting by the Tang Dynasty artist Lu Lengjia, currently housed in the Palace Museum in Beijing, carrying profound religious cultural connotations.\",\r\n                payable(address(0)),\r\n                false\r\n            );\r\n\r\n        nfts[2] = DigitalCollectible(\r\n                \"Gold Medal of the Primordial Heavenly Sovereign\",\r\n                \"images/2.jpg\",\r\n                4,\r\n                0,\r\n                0,\r\n                \"The Primordial Heavenly Sovereign of the Jade Purity, the head of the Three Pure Ones in Taoism, symbolizes the chaos and infinity of the universe's creation.\",\r\n                payable(address(0)),\r\n                false\r\n            );\r\n\r\n        nfts[3] = DigitalCollectible(\r\n                \"Boshang Reading Sticker\",\r\n                \"images/5.jpg\",\r\n                3,\r\n                0,\r\n                0,\r\n                \"The 'Boshang Reading Sticker' is a work on paper by the famous Tang Dynasty calligrapher Ouyang Xun, known for its exquisite calligraphy skills and profound cultural heritage.\",\r\n                payable(address(0)),\r\n                false\r\n            );\r\n\r\n        nfts[4] = DigitalCollectible(\r\n                \"National Style Fortune Cat\",\r\n                \"images/3.jpg\",\r\n                3,\r\n                0,\r\n                0,\r\n                \"The National Style Fortune Cat is presented in a blue and red glaze, with delicate porcelain quality and a clean and elegant color. It is worthy of being a masterpiece of Chinese porcelain.\",\r\n                payable(address(0)),\r\n                false\r\n            );\r\n\r\n        nfts[5] = DigitalCollectible(\r\n                \"Jade Ornament of Human Head and Serpent Body\",\r\n                \"images/4.jpg\",\r\n                5,\r\n                0,\r\n                0,\r\n                \"The jade ornament of human head and serpent body was unearthed from the tomb of Huang Junmeng in the early Spring and Autumn period, providing valuable physical data for studying the clothing and jade carving craftsmanship of the Zhou Dynasty.\",\r\n                payable(address(0)),\r\n                false\r\n            );\r\n\r\n        nfts[6] = DigitalCollectible(\r\n                \"Spring Colors of Luoyang\",\r\n                \"images/6.jpg\",\r\n                5,\r\n                0,\r\n                0,\r\n                \"Currently housed in the Palace Museum in Beijing, it depicts the vivid natural ecological beauty of peonies. This painting broke free from the constraints of ink outline, directly blending colors and water to dot the flowers and leaves.\",\r\n                payable(address(0)),\r\n                false\r\n            );\r\n\r\n        nfts[7] = DigitalCollectible(\r\n                \"Meiping with Four Loves in Blue and White\",\r\n                \"images/7.jpg\",\r\n                3,\r\n                0,\r\n                0,\r\n                \"Currently housed in the Hubei Provincial Museum, a national first-class cultural relic. It's a rare and precious example of Yuan Dynasty blue-and-white porcelain, primarily featuring human figures as the main subject.\",\r\n                payable(address(0)),\r\n                false\r\n            );\r\n\r\n        nfts[8] = DigitalCollectible(\r\n                \"Tea Tasting at Cui'an\",\r\n                \"images/8.jpg\",\r\n                3,\r\n                0,\r\n                0,\r\n                \"Miaoyu hosted with high etiquette to receive Jia Mu and her party. Miaoyu prepared different types of tea according to the identities and preferences of different individuals, showcasing the intricacies of the ancient tea ceremony.\",\r\n                payable(address(0)),\r\n                false\r\n            );\r\n    }\r\n\r\n\r\n    event NFTPurchased(uint nftId, address newOwner);\r\n    event NFTSold(uint nftId, address newOwner);\r\n    event NFTAdded(uint nftId, string name, address owner);\r\n\r\n    //\r\n    function NFTPurchase(uint nftId) public payable{\r\n        // require(nftId < nfts.length, \"NFT does not exist\");\r\n        require(!nfts[nftId].forSale, \"NFT already for sale\");\r\n        //require(msg.value >= nfts[nftId].value * 1 ether, \"Incorrect Ether amount provided.\");\r\n\r\n        nfts[nftId].owner.transfer(nfts[nftId].value); \r\n        nfts[nftId].owner = payable(msg.sender);\r\n        nfts[nftId].NFTCode = nftId;\r\n        nfts[nftId].timestamp = block.timestamp;\r\n\r\n        _mint(msg.sender, nftId); //  NFT\r\n\r\n        ownerTokens[msg.sender].push(nftId); //  ID \r\n\r\n        // nfts[nftId].isDaibi = true;\r\n        \r\n        emit NFTPurchased(nftId, msg.sender);\r\n    }\r\n    //\r\n    function buySellNFT(uint nftId) public payable {\r\n        // require(nftId < nfts.length, \"NFT does not exist\");\r\n        require(msg.value >= 0.1 ether, \"Not enough Ether provided.\"); // Check if the transaction value is enough.\r\n        require(nfts[nftId].forSale, \"NFT not for sale\"); // Ensure the pet is for sale.\r\n\r\n        nfts[nftId].owner.transfer(nfts[nftId].value); // Transfer the Ether to the current pet owner.\r\n        nfts[nftId].forSale = false;\r\n        nfts[nftId].owner = payable(msg.sender);\r\n        nfts[nftId].NFTCode = nftId;\r\n        nfts[nftId].timestamp = block.timestamp;\r\n\r\n        _mint(msg.sender, nftId); //  NFT\r\n\r\n        ownerTokens[msg.sender].push(nftId); //  ID \r\n\r\n        emit NFTPurchased(nftId, msg.sender);\r\n    }\r\n\r\n    //address\r\n    function isTokenOwnedBy(address owner, uint nftId) internal view returns (bool) {\r\n        uint256[] memory tokens = ownerTokens[owner];\r\n        for (uint i = 0; i < tokens.length; i++) {\r\n            if (tokens[i] == nftId) {\r\n                return true; //  true\r\n            }\r\n        }\r\n        return false; //  false\r\n    }\r\n\r\n    //\r\n    function sellNFTs_new(uint nftId) public {\r\n        // require(nftId < nfts.length, \"Pet does not exist\");\r\n        require(nfts[nftId].owner == msg.sender, \"Not the owner\");\r\n        require(isTokenOwnedBy(msg.sender, nftId), \"Token not owned by this address\"); // \r\n        require(ownerOf(nftId) == msg.sender, \"Not the token owner\"); // \r\n        _burn(nftId); // \r\n        // \r\n        nfts[nftId].forSale = true;\r\n        nfts[nftId].NFTCode = 0;\r\n        nfts[nftId].timestamp = 0;\r\n        //owner\r\n        //nfts[nftId].owner = payable(address(0));\r\n\r\n        // \r\n        uint256[] storage tokens = ownerTokens[msg.sender];\r\n        for (uint i = 0; i < tokens.length; i++) {\r\n            if (tokens[i] == nftId) {\r\n                tokens[i] = tokens[tokens.length - 1]; // \r\n                tokens.pop(); // \r\n                break;\r\n            }\r\n        }\r\n        \r\n        emit NFTSold(nftId, msg.sender);\r\n    }\r\n\r\n    function addNFTs(\r\n        string memory name,\r\n        uint value,\r\n        string memory description\r\n    ) public {\r\n        nftCount = nftCount+1;\r\n        uint newNFTId = nftCount;\r\n        nfts[newNFTId]=DigitalCollectible({\r\n                value: value,\r\n                name: name,\r\n                description: description,\r\n                picture: \"images/boxer.jpeg\",\r\n                timestamp: 0,\r\n                NFTCode: 0,\r\n                owner: payable(address(0)),\r\n                forSale: false\r\n            });\r\n        emit NFTAdded(newNFTId, name, msg.sender);\r\n    }\r\n\r\n    function getCount() public view returns (uint) {\r\n        return nftCount;\r\n    }\r\n\r\n   //  ID\r\n    function getOwnedTokens(address owner) public view returns (uint256[] memory) {\r\n        return ownerTokens[owner]; //  ID\r\n    }\r\n\r\n    function getNFTsByOwner(\r\n        uint nftId\r\n    )\r\n        public\r\n        view\r\n        returns (\r\n            string memory,\r\n            string memory,\r\n            uint,\r\n            bool,\r\n            // address,\r\n            string memory,\r\n            uint,\r\n            uint\r\n        )\r\n    {\r\n        DigitalCollectible memory nft = nfts[nftId];\r\n        return (\r\n            nft.name,\r\n            nft.description,\r\n            nft.value,\r\n            nft.forSale,\r\n            // ownerOf(nftId),\r\n            nft.picture,\r\n            nft.NFTCode,\r\n            nft.timestamp\r\n        );\r\n    }\r\n\r\n    function getAllNFTs(\r\n        uint nftId\r\n    )\r\n        public\r\n        view\r\n        returns (\r\n            string memory,\r\n            string memory,\r\n            uint,\r\n            bool,\r\n            // address,\r\n            string memory,\r\n            uint,\r\n            uint\r\n        )\r\n    {\r\n        DigitalCollectible memory nft = nfts[nftId];\r\n        return (\r\n            nft.name,\r\n            nft.description,\r\n            nft.value,\r\n            nft.forSale,\r\n            // ownerOf(nftId),\r\n            nft.picture,\r\n            nft.NFTCode,\r\n            nft.timestamp\r\n        );\r\n    }\r\n\r\n    fallback() external payable {}\r\n\r\n    receive() external payable {}\r\n}\r\n",
  "sourcePath": "C:\\Users\\admin\\Desktop\\\\\\\\blockchain\\contracts\\DigitalCollectibleContract.sol",
  "compiler": {
    "name": "solc",
    "version": "0.8.19+commit.7dd6d404.Emscripten.clang"
  },
  "schemaVersion": "3.4.14",
  "updatedAt": "2024-11-30T13:19:26.555Z",
  "networkType": "ethereum",
  "devdoc": {
    "events": {
      "Approval(address,address,uint256)": {
        "details": "Emitted when `owner` enables `approved` to manage the `tokenId` token."
      },
      "ApprovalForAll(address,address,bool)": {
        "details": "Emitted when `owner` enables or disables (`approved`) `operator` to manage all of its assets."
      },
      "Transfer(address,address,uint256)": {
        "details": "Emitted when `tokenId` token is transferred from `from` to `to`."
      }
    },
    "kind": "dev",
    "methods": {
      "approve(address,uint256)": {
        "details": "See {IERC721-approve}."
      },
      "balanceOf(address)": {
        "details": "See {IERC721-balanceOf}."
      },
      "getApproved(uint256)": {
        "details": "See {IERC721-getApproved}."
      },
      "isApprovedForAll(address,address)": {
        "details": "See {IERC721-isApprovedForAll}."
      },
      "name()": {
        "details": "See {IERC721Metadata-name}."
      },
      "ownerOf(uint256)": {
        "details": "See {IERC721-ownerOf}."
      },
      "safeTransferFrom(address,address,uint256)": {
        "details": "See {IERC721-safeTransferFrom}."
      },
      "safeTransferFrom(address,address,uint256,bytes)": {
        "details": "See {IERC721-safeTransferFrom}."
      },
      "setApprovalForAll(address,bool)": {
        "details": "See {IERC721-setApprovalForAll}."
      },
      "supportsInterface(bytes4)": {
        "details": "See {IERC165-supportsInterface}."
      },
      "symbol()": {
        "details": "See {IERC721Metadata-symbol}."
      },
      "tokenURI(uint256)": {
        "details": "See {IERC721Metadata-tokenURI}."
      },
      "transferFrom(address,address,uint256)": {
        "details": "See {IERC721-transferFrom}."
      }
    },
    "version": 1
  },
  "userdoc": {
    "kind": "user",
    "methods": {},
    "version": 1
  }
}